:100000000C947A0B0C94A00B0C94A00B0C94A00BEA
:100010000C94A00B0C94A00B0C94A00B0C94A00BB4
:100020000C94A00B0C94A00B0C94A00B0C94A00BA4
:100030000C94A00B0C94A92D0C94A00B0C94A00B69
:100040000C94A00B0C94A00B0C94A00B0C94A00B84
:100050000C94A00B0C94A00B0C94A00B0C94A00B74
:100060000C94A00B0C94643B0C94B43B0C94A00B2C
:100070000C94A00B0C94A00B0C94A00B0C94A00B54
:100080000C94A00B0C94A00B0C94A00B0C94A00B44
:100090000C94A00B0C94A00B0C94A00B0C94A00B34
:1000A0000C94A00B0C94A00B0C94A00B0C94A00B24
:1000B0000C94A00B0C94A00B0C943F2D0C94293C99
:1000C0000C94A00B0C94A00B0C94A00B0C94A00B04
:1000D0000C94A00B0C941A4E0C94A00B0C94A00B37
:1000E0000C94A00B0C94A00B0C94A00B0C94A00BE4
:1000F0000C94A00B0C94A00B0C94A00B0C94A00BD4
:100100000C94A00B0C94A00B0C94A00B0C94A00BC3
:100110000C94A00B0C94A00B0C94A00B0C94A00BB3
:100120000C94A00B0C94A00B0C94A00B0C94A00BA3
:100130000C94742D0C94A00B0C94A00B0C94A00B9D
:100140000C94A00B0C94A00B0C94A00B0C94A00B83
:100150000C94A00B0C94A00B0C94A00B0C94A00B73
:100160000C94A00B0C94A00B0C94A00B0C94A00B63
:100170000C94A00B0C94A00B0C94A00B0C94A00B53
:100180000C94A00B0C94A00B0C94A00B0C94A00B43
:100190000C94970C0C94A00B0C94A00B0C94A00B3B
:1001A0000C94A00B0C94A00B0C94A00B0C940A2D97
:1001B0000C946A4E0C94A00B0C94A00B0C94A00B06
:1001C0000C94A00B0C94A00B0C94A00B0C94A00B03
:1001D0000C94A00B0C94A00B0C94A00B0C94A00BF3
:1001E0000C94A00B0C94A00B0C94A00B0C94A00BE3
:1001F0000C94A00B58265D26622666266A266E267B
:1002000077267B267F269C269C269C269C269C2641
:100210009C26832698266A4C7E4CEE4CF44C674C08
:10022000674C674C674C674C674C8F4D944D964DAF
:10023000A44DC34D494E54332063617463686573A4
:10024000206120726973696E672065646765207438
:10025000726967676572210A004572726F72206663
:100260005F6F70656E20696E205344496E666F2E15
:100270006D61742E0A004572726F7220665F6C7336
:1002800065656B20696E2072656D61696E656420BD
:10029000646174612E0A004572726F7220665F6C31
:1002A0007365656B20696E205344496E666F2E6DD1
:1002B00061742E0A004572726F7220696E20665F4B
:1002C0006C7365656B20696E2066657463685F7525
:1002D00070646174655F66756E63590A0072657358
:1002E000203D202025750A004572726F7220696ECC
:1002F00020665F7265616420696E20696E206665A4
:100300007463685F7570646174655F66756E635968
:100310000A00726573203D202025750A0052696E1F
:1003200067206275666665722066756E6374696FB4
:100330006E5F592069732066756C6C0A0052696E95
:1003400067206275666665722066756E6374696F94
:100350006E5F5920697320656D7074790A0045726B
:10036000726F7220696E20665F6C7365656B2069C1
:100370006E2066657463685F7570646174655F663E
:10038000756E63580A00726573203D202025750A3A
:10039000004572726F7220696E20665F72656164DB
:1003A00020696E20696E2066657463685F7570648D
:1003B0006174655F66756E63580A00726573203DEF
:1003C000202025750A0052696E6720627566666591
:1003D000722066756E6374696F6E5F782069732032
:1003E00066756C6C0A0052696E6720627566666598
:1003F000722066756E6374696F6E5F782069732012
:10040000656D7074790A004572726F7220696E7042
:10041000757420666F722066756E6374696F6E20E6
:100420006368616E6E656C2E0A006E756D5F627535
:10043000666665725F6C6F61645F79203D2025752B
:100440000A006E756D5F6275666665725F6C6F61DE
:10045000645F79203D2025750A006C6173745F6CC0
:100460006F61645F79203D2025750A0066756E63B3
:1004700053697A655F79203D2025750A00457272BF
:100480006F7220665F6F70656E20696E2073657491
:100490005F76656C5F66756E6320592E0A00457243
:1004A000726F7220665F7265616420696E20736589
:1004B000745F76656C5F66756E6320592E0A005313
:1004C000657474696E672076656C6F6369747920F2
:1004D00066756E6374696F6E20257520666F722075
:1004E000590A006E756D5F6275666665725F6C6F46
:1004F00061645F78203D2025750A006E756D5F622E
:1005000075666665725F6C6F61645F78203D20255B
:10051000750A006C6173745F6C6F61645F78203D75
:100520002025750A0066756E6353697A655F7820C9
:100530003D2025750A004572726F7220665F6F70EC
:10054000656E20696E207365745F76656C5F667595
:100550006E6320582E0A004572726F7220665F72B9
:1005600065616420696E207365745F76656C5F6693
:10057000756E6320582E0A0053657474696E672087
:1005800076656C6F636974792066756E6374696FE4
:100590006E2020257520666F7220580A0045727201
:1005A0006F7220696E70757420666F722066756E4A
:1005B0006374696F6E206368616E6E656C2E0A00ED
:1005C0006E756D5F6275666665725F6C6F61645FA4
:1005D00079203D2025750A006E756D5F627566662F
:1005E00065725F6C6F61645F79203D2025750A003C
:1005F0006C6173745F6C6F61645F79203D20257559
:10060000200A0066756E6353697A655F79203D2024
:1006100025750A004572726F7220665F6F70656E95
:1006200020696E207365745F706F735F66756E63AB
:1006300020592E0A004572726F7220665F726561E2
:1006400064207365745F706F735F66756E632059A5
:100650002E0A0053657474696E6720706F73697435
:10066000696F6E2066756E6374696F6E20257520E4
:10067000666F7220590A006E756D5F6275666665F9
:10068000725F6C6F61645F78203D2025750A006E93
:10069000756D5F6275666665725F6C6F61645F78C9
:1006A000203D2025750A006C6173745F6C6F616476
:1006B0005F78203D2025750A0066756E6353697A60
:1006C000655F78203D2025750A004572726F7220A3
:1006D000696E20665F7265616420696E20696E20B4
:1006E00066657463685F7570646174655F66756E76
:1006F00063580A00726573203D202025750A004565
:1007000072726F7220696E20665F72656164206923
:100710006E20696E2066657463685F7570646174CD
:10072000655F66756E63580A00726573203D202010
:1007300025750A004572726F7220696E20665F72BD
:1007400065616420696E20696E2066657463685F08
:100750007570646174655F66756E63580A007265D2
:1007600073203D202025750A0066756E6374696FDD
:100770006E2073697A6520697320746F6F206269D7
:100780006720746F206C6F616420746F2045455042
:10079000524F4D2E0A004572726F7220665F6F7065
:1007A000656E20696E207365745F706F735F667528
:1007B0006E6320582E0A004572726F7220665F7257
:1007C000656164207365745F706F735F66756E63D7
:1007D00020580A0053657474696E6720706F7369DE
:1007E00074696F6E2066756E6374696F6E2025750F
:1007F00020666F7220580A004572726F7220696E0F
:1008000070757420666F722066756E6374696F6EA2
:10081000206368616E6E656C2E0A006E756D5F6296
:1008200075666665725F6C6F61645F79203D202537
:10083000750A006E756D5F6275666665725F6C6FD6
:1008400061645F79203D2025750A006C6173745FD7
:100850006C6F61645F79203D202575200A00667504
:100860006E6353697A655F79203D2025750A0045DE
:1008700072726F7220665F6F70656E20696E207392
:1008800065745F706F735F66756E6320592E0A0022
:100890004572726F7220665F726561642073657461
:1008A0005F706F735F66756E6320592E0A00536523
:1008B0007474696E6720706F736974696F6E2066F7
:1008C000756E6374696F6E20257520666F7220598E
:1008D0000A006E756D5F6275666665725F6C6F614A
:1008E000645F78203D2025750A006E756D5F627526
:1008F000666665725F6C6F61645F78203D20257568
:100900000A006C6173745F6C6F61645F78203D20D6
:1009100025750A0066756E6353697A655F78203DB8
:100920002025750A004572726F7220665F6F7065D0
:100930006E20696E207365745F706F735F66756E8D
:100940006320582E0A004572726F7220665F7265CE
:100950006164207365745F706F735F66756E63208A
:10096000580A0053657474696E6720706F736974F8
:10097000696F6E2066756E6374696F6E20257520D1
:10098000666F7220580A0057726F6E672066756E28
:100990006374696F6E206368616E6E656C206E753E
:1009A0006D6265722E0A0053657474696E67206407
:1009B000656661756C742066756E6374696F6E2010
:1009C000666F7220592E0A0053657474696E672031
:1009D00064656661756C742066756E6374696F6EAC
:1009E00020666F7220582E0A002062656E63685F71
:1009F00074696D65203D20256C75206D732C206613
:100A000072616D655F72617465203D2025750A0015
:100A100043616E6E6F742066696E64207468652031
:100A2000686172647761726520636F6E66696720C2
:100A300066696C65206F6E2074686520534420637E
:100A40006172642E0A005375636365737366756C17
:100A50006C79206C6F6164207468652068617264D1
:100A60007761726520636F6E6669672066696C6581
:100A700020746F20454550524F4D0A004572726FE9
:100A800072206F70656E696E672070617474657234
:100A90006E2066696C650A004572726F722072651D
:100AA0006164696E6720696E207061747465726E2E
:100AB0002066696C650A002020785F6E756D203DA8
:100AC0002025750A2020795F6E756D203D202575E3
:100AD0000A20206E756D5F70616E656C73203D201D
:100AE00025750A202067735F76616C7565203D204F
:100AF00025750A20726F775F636F6D70726573730F
:100B0000696F6E203D2025750A0053657474696E07
:100B100067207061747465726E2025753A0A0053FF
:100B200075636365737366756C6C79206C6F616453
:100B3000207061747465726E20257520746F207446
:100B400068652070616E656C730A004572726F7221
:100B5000206F70656E696E67207061747465726E67
:100B60002066696C650A004572726F722072656159
:100B700064696E6720696E207061747465726E209E
:100B800066696C650A004661696C656420746F2053
:100B90006C6F61642074686973205061747465724D
:100BA0006E20746F2050616E656C730A0054686922
:100BB00073207061747465726E2073697A65206940
:100BC0007320256C750A005061747465726E207311
:100BD000697A65206973207570746F203830302011
:100BE00062797465207065722070616E656C2E0A82
:100BF00000524553203D2025752C20665F6E756D93
:100C00003D2025752C206F6666736574203D202578
:100C10006C750A004572726F7220696E20665F6C97
:100C20007365656B20696E2066657463685F6469CF
:100C300073706C61795F6672616D65210A0052455F
:100C400053203D2025752C20665F6E756D3D202557
:100C5000752C20636E743D2025750A004572726FF5
:100C60007220696E20665F7265616420696E20661D
:100C7000657463685F646973706C61795F667261E3
:100C80006D65210A00202062797465735F7065725A
:100C90005F70616E656C5F6672616D65203D2025D9
:100CA000750A202062797465735F7065725F706188
:100CB0006E656C5F7061747465726E203D20257581
:100CC0000A002020785F6E756D203D2025750A2072
:100CD00020795F6E756D203D2025750A20206E7588
:100CE0006D5F70616E656C73203D2025750A202054
:100CF00067735F76616C7565203D2025750A2072EB
:100D00006F775F636F6D7072657373696F6E203D8F
:100D10002025750A007072656C6F616420706174C3
:100D20007465726E2025753A0A00524553203D20A5
:100D300025752C20665F6E756D3D2025752C206F06
:100D40006666736574203D20256C750A00457272D5
:100D50006F7220696E20665F6C7365656B20696ECB
:100D60002066657463685F646973706C61795F663F
:100D700072616D65210A00524553203D2025752C76
:100D800020665F6E756D3D2025752C20636E743D69
:100D90002025750A004572726F7220696E20665FA9
:100DA0007265616420696E2066657463685F64695A
:100DB00073706C61795F6672616D65210A005375AD
:100DC00063636573732073657420746865206E6552
:100DD00077206C61736572207061747465726E2E19
:100DE0000A007365745F6761696E5F626961733A77
:100DF000206761696E5F783D2025642C2020626940
:100E000061735F783D2025642C206761696E5F798E
:100E10003D2025642C20626961735F793D25640A59
:100E2000007365745F706F736974696F6E3A2069DF
:100E30006E6465785F783D2025752C2020696E648E
:100E400065785F793D2025752C20616E642066727F
:100E5000616D655F6E756D3D2025750A0066756E66
:100E60006374696F6E2059207570646174652066C3
:100E700072657175656E6379203D2025752E0A00B7
:100E800066756E6374696F6E205820757064617446
:100E900065206672657175656E6379203D202575E4
:100EA0002E0A004144435F76616C7565203D202029
:100EB00025643A0A007265736F6C7574696F6E5FB2
:100EC00079203D202025643A0A007265736F6C75A5
:100ED00074696F6E5F78203D202025643A0A0044D3
:100EE000697361626C656420496E7433206578743F
:100EF00065726E616C2074726967676572206D6FD0
:100F00006465210A00456E61626C656420496E74F7
:100F1000332065787465726E616C207472696767DE
:100F20006572206D6F6465206973206F6E210A0001
:100F3000526573657420636F6E74726F6C6C65724A
:100F400020746F20776F726B20696E207468652043
:100F500050432064756D70696E67206D6F64652104
:100F60000A00526573657420636F6E74726F6C6CE7
:100F7000657220746F20776F726B20696E207468C1
:100F80006520636F6E74726F6C6C6572206D6F6438
:100F900065210A007570646174653A202564202516
:100FA0006420256420256420256420256420256490
:100FB0002025643A0A0043757272656E7420766566
:100FC0007273696F6E206E756D6265722069732031
:100FD00025732E0A0043757272656E7420776F72E6
:100FE0006B696E67206D6F64652069732074686536
:100FF0002050432064756D70696E67206D6F646565
:10100000210A0043757272656E7420776F726B6986
:101010006E67206D6F646520697320746865204376
:101020006F6E74726F6C6C6572206D6F6465210AEF
:10103000003F3F3F0A00204E4F5420524541445943
:10104000210A002057524954452050524F544543DD
:10105000544544210A00204552524F52210A002093
:10106000464154204F4B210A00496E697469616CF6
:10107000697A696E6720464154204469736B2E2E4D
:101080002E003F3F3F0A00534448430A00424C4B66
:101090000A005344430A005344320A0053440A00EE
:1010A0004D4D430A004361726420747970653A20A3
:1010B000005344206361726420697320696E69740F
:1010C00069616C697A65640A00496E697469616C6A
:1010D000697A6174696F6E206661696C656421214B
:1010E000210A00534420636172642069732057729F
:1010F0006974652050726F746563746564210A00B9
:10110000496E736572742053442063617264000AEF
:101110004D61696E20436F6E74726F6C6C657220E6
:10112000576F726B730A0043616E6E6F742066694D
:101130006E64207468652070616E656C2025642E75
:101140000A00426164206578697420636D642C2014
:10115000726573756C74203D2025750A00646F6E8E
:101160002774206B6E6F7720686F7720746F206410
:1011700065616C2077697468207265637479706545
:101180003D2564206174206C696E65202564206FA4
:101190006620656570726F6D2E6865780A000A00BA
:1011A000766572696679206D69736D617463682014
:1011B000666F7220706167652025640A007665722B
:1011C000696679206D69736D6174636820666F72FA
:1011D00020706167652025640A00636865636B732E
:1011E000756D3D3078253032782C20636F6D7075C9
:1011F00074656420636865636B73756D3D30782535
:101200003032780A004552524F523A206368656383
:101210006B73756D206D69736D61746368206174A3
:10122000206C696E65202564206F6620656570728C
:101230006F6D2E6865780A000A766572696679694D
:101240006E673A20004572726F7220665F6C73653C
:10125000656B20696E20656570726F6D2E686578AC
:101260002E0A00646F6E2774206B6E6F7720686F94
:101270007720746F206465616C20776974682072D0
:101280006563747970653D2564206174206C696EB6
:1012900065202564206F6620656570726F6D2E680D
:1012A00065782E0A00636865636B73756D3D3078F1
:1012B000253032782C20636F6D70757465642063FF
:1012C0006865636B73756D3D3078253032780A0040
:1012D0004552524F523A20636865636B73756D20B7
:1012E0006D69736D61746368206174206C696E65EB
:1012F000202564206F6620656570726F6D2E6865AD
:10130000782E0A000A77726974696E673A20202085
:10131000004261642070616E656C20726573657453
:101320002C20726573756C74203D2025750A00654C
:101330006570726F6D2070616E656C2025752E0A68
:10134000004572726F7220665F6F70656E20696E05
:1013500020656570726F6D2E6865782E0A002553C2
:101360000A004F4B004449534B5F45525200494ECF
:10137000545F455252004E4F545F5245414459000C
:101380004E4F5F46494C45004E4F5F504154480018
:10139000494E56414C49445F4E414D450044454EEF
:1013A00049454400455849535400494E56414C491B
:1013B000445F4F424A4543540057524954455F5099
:1013C000524F54454354454400494E56414C4944BC
:1013D0005F4452495645004E4F545F454E41424C82
:1013E0004544004E4F5F46494C455F535953544561
:1013F0004D004D4B46535F41424F525445440054BB
:10140000494D454F5554000043616E6E6F74206620
:10141000696E64207468652070616E656C20256457
:101420002E0A00426164206578697420636D642C23
:1014300020726573756C74203D2025750A00646FF9
:101440006E2774206B6E6F7720686F7720746F2023
:101450006465616C20776974682072656374797063
:10146000653D2564206174206C696E6520256420CB
:101470006F662070616E656C2E6865780A000A00E0
:10148000766572696679206D69736D617463682031
:10149000666F7220706167652025640A0076657248
:1014A000696679206D69736D6174636820666F7217
:1014B00020706167652025640A00636865636B734B
:1014C000756D3D3078253032782C20636F6D7075E6
:1014D00074656420636865636B73756D3D30782552
:1014E0003032780A004552524F523A2063686563A1
:1014F0006B73756D206D69736D61746368206174C1
:10150000206C696E65202564206F662070616E65B1
:101510006C2E6865780A000A766572696679696E6C
:10152000673A20004572726F7220665F6C73656562
:101530006B20696E2070616E656C2E6865782E0A6E
:1015400000646F6E2774206B6E6F7720686F772052
:10155000746F206465616C207769746820726563BC
:10156000747970653D2564206174206C696E652016
:101570002564206F662070616E656C2E6865780A40
:1015800000636865636B73756D3D30782530327824
:101590002C20636F6D707574656420636865636B80
:1015A00073756D3D3078253032780A004552524FC0
:1015B000523A20636865636B73756D206D69736D56
:1015C00061746368206174206C696E6520256420F5
:1015D0006F662070616E656C2E6865782E0A000A51
:1015E00077726974696E673A202020004261642036
:1015F00070616E656C2072657365742C2072657302
:10160000756C74203D2025750A00666C6173682036
:1016100070616E656C2025752E0A004572726F72BE
:1016200020665F6F70656E20696E2070616E656CFC
:101630002E6865782E0A0042616420666C617368CA
:1016400020726561642C20726573756C74203D2076
:1016500025750A00230042616420666C617368206E
:10166000726561642C20726573756C74203D202551
:10167000750A00230042616420656570726F6D20F9
:1016800077726974652C20726573756C74203D20C7
:1016900025750A00230042616420666C617368202E
:1016A000726561642C20726573756C74203D202511
:1016B000750A00230042616420666C6173682072C1
:1016C0006561642C20726573756C74203D202575EE
:1016D0000A00230042616420666C6173682077729F
:1016E0006974652C20726573756C74203D202575B6
:1016F0000A00230011241FBECFEFDFE3DEBFCDBF02
:1017000000E00CBF18BE19BE1ABE1BBE13E2A0E05B
:10171000B0E2E2EEFDEA00E00BBF02C007900D92DE
:10172000AA3FB107D9F71BBE1BE2AAEFB3E201C083
:101730001D92A930B107E1F70E94842A0C94EF565C
:101740000C940000AC0120E030E0F901EF55FA4DB7
:10175000DA01A20FB31F8C9180832F5F3F4F2E338E
:10176000310599F708958091CD269091CE26019666
:101770008093CD269093CE268091CD269091CE2633
:1017800040912627509127278417950720F0109223
:10179000CD261092CE2680917128909172282091AA
:1017A000CD263091CE26BC01649FC001659F900D6F
:1017B000749F900D1124820F931F809301249093A6
:1017C00002248091FB23882329F08091FA238F5FE4
:1017D0008093FA2308958091712890917228019640
:1017E00080937128909372282091712830917228EB
:1017F0008091C5249091C6242817390720F01092B3
:10180000712810927228209171283091722840918D
:10181000CD265091CE268091262790912727BC0176
:10182000269FC001279F900D369F900D1124840F95
:10183000951F80930124909302248091FB23882399
:1018400029F48091FA238F5F8093FA230895809181
:10185000CD269091CE26892B29F480912627909130
:10186000272704C08091CD269091CE2601978093A2
:10187000CD269093CE2620917128309172284091E8
:10188000CD265091CE268091262790912727BC0106
:10189000269FC001279F900D369F900D1124840F25
:1018A000951F80930124909302248091FB23882329
:1018B00029F08091FA238F5F8093FA230895809115
:1018C000712890917228892B29F48091C5249091D8
:1018D000C62404C08091712890917228019780934A
:1018E000712890937228209171283091722840912C
:1018F000CD265091CE268091262790912727BC0196
:10190000269FC001279F900D369F900D1124840FB4
:10191000951F80930124909302248091FB238823B8
:1019200029F48091FA238F5F8093FA2308951F9200
:101930000F920FB60F9208B60F9209B60F920BB620
:101940000F92112418BE19BE1BBE0F932F933F9305
:101950004F935F936F937F938F939F93AF93BF93B7
:10196000EF93FF93109203241092042410929C2072
:101970001092FA238FEB9FE14EE350E060E070E0BD
:1019800021E001E00E94AA3C83EB9BE04EE350E0A3
:1019900060E070E022E000E00E94AA3C8BEE9BE059
:1019A0004EE350E060E070E023E00E94AA3C4091EA
:1019B000A3205091A42060E070E083E090E124E057
:1019C00001E00E94AA3C4091A5205091A62060E031
:1019D00070E083E39FE025E00E94AA3C84E392E06C
:1019E0000E941050FF91EF91BF91AF919F918F9105
:1019F0007F916F915F914F913F912F910F910F9038
:101A00000BBE0F9009BE0F9008BE0F900FBE0F9037
:101A10001F901895813031F090910B24823009F09D
:101A200063C032C080910B24882321F488EC99E0B4
:101A30000E94105010920C2410920D2484E690E025
:101A4000A0E0B0E08093A9209093AA20A093AB20BF
:101A5000B093AC20E8E2F7E28AE090E081939193C2
:101A600027E2E03FF207D1F71092032481E0809350
:101A7000A12081E090E08093B1209093B220109259
:101A800010241092112436C0992321F487EA99E09A
:101A90000E94105010920E2410920F2484E690E0C1
:101AA000A0E0B0E08093AD209093AE20A093AF2053
:101AB000B093B020E8ECF4E28AE090E08193919357
:101AC00025E2E039F207D1F71092042481E08093F7
:101AD000A22081E090E08093B3209093B4201092F4
:101AE00012241092132406C0992321F487E899E068
:101AF0000E9410501092FF230895AC0120E030E0C6
:101B0000F901EF55FA4DDA01A20FB31F8C9186AFA0
:101B10002F5F3F4F2F33310599F780910B24882396
:101B200021F48EEB9DE00E9410500895A4E3B0E0F4
:101B3000ECE9FDE00C948F518CE097E265EB70E2EC
:101B400041E00E949144882309F0B5C08090162797
:101B500070911727682D809118279091192722E3FB
:101B600030E040E050E00E94515179018A0199240F
:101B7000939422E3322E93E0692E712C6C0E7D1E1D
:101B80002E010894411C511C3AC0939CC0011124A1
:101B9000C2975C01CC24B7FCC094DC2C8CE097E2AB
:101BA000B601A5010E943140882301F580911227DA
:101BB00090911327A0911427B09115278A159B05A2
:101BC000AC05BD0599F48CE097E2B30142E350E027
:101BD00092010E94A342882389F489819A81C29745
:101BE00069F4C30162E30E94483B08C080910B2462
:101BF000882321F487E992E00E9410509394892D64
:101C000090E0A0E0B0E0E816F9060A071B0708F02C
:101C1000BCCF82E3989EC0011124C2975C01CC2402
:101C2000B7FCC094DC2C8CE097E2B601A5010E94C1
:101C30003140882399F58091122790911327A09124
:101C40001427B09115278A159B05AC05BD0531F504
:101C5000C801B70122E330E040E050E00E940B51A0
:101C6000D82CD61A0D2D10E083E0E82EF12CEC0EC6
:101C7000FD1E8CE097E2B701A8019E012F5F3F4F48
:101C80000E94A342882391F489819A818017910749
:101C900069F4C7016D2D0E94483B08C080910B2458
:101CA000882321F486E792E00E9410508CE097E2AE
:101CB0000E94E93E08C080910B24882321F489E525
:101CC00092E00E941050E496E1E10C94AB51A6E63C
:101CD000B0E0EDE6FEE00C949951982FD62E80915D
:101CE0000824843618F08DE193E0B6C0913031F4C9
:101CF00010920824109204241092062484E6D89EA0
:101D0000C001112480509E4F7C0100E010E080E271
:101D100096E2B801A7010E943140282F882309F0DC
:101D200080C08091262690912726A0912826B091E8
:101D300029268E159F05A007B10709F072C02D2D29
:101D400030E08091B3209091B42001972817390793
:101D500039F400911224109113240115110511F486
:101D600004E610E080E296E2BE016D5F7F4FA801BD
:101D70009E012F5F3F4F0E94A342282F882329F402
:101D800089819A8180179107E9F080910B2488233B
:101D9000C9F400D00F92EDB7FEB7319682E193E01F
:101DA000ADB7BEB711968D939C9312972283138281
:101DB0000E9452500F900F900F900F9088EE92E07B
:101DC0000E94105069817A81DE01139640E050E054
:101DD00024C0E0910624F0E0EE0FFF1FE853FB4D16
:101DE00011963C91119720E08C918901080F111DEB
:101DF00000831183809106248F5F80930624809155
:101E00000624843610F010920624809108248F5FF7
:101E1000809308244E5F5F4F129646175707C8F20B
:101E20001DC080910B248823C9F400D00F92EDB718
:101E3000FEB731968DED92E0ADB7BEB711968D939A
:101E40009C931297228313820E9452500F900F90FE
:101E50000F900F9085EB92E00E941050CA59DF4F0F
:101E6000E7E00C94B551A0E0B0E0E9E3FFE00C94AA
:101E7000925180910824882329F48DE393E00E94F5
:101E80001050BCC0809104248F5F80930424809103
:101E90000424843610F01092042480910824815088
:101EA0008093082480910927843009F448C0853044
:101EB00009F490C0833009F0A1C083E00E94BA2EDB
:101EC00040919F205091A020C091C524D091C6245C
:101ED0003E01882499247A0100E010E06401530156
:101EE000AA0CBB1CCC1CDD1C4817590708F4CA01FE
:101EF0009C0140E050E0C601B5010E940B516E0DFF
:101F00007F1D801F911FEE0CFF1C001F111FA801D9
:101F100097010E9473512150304040405040261597
:101F200037054805590524F021979E0140E050E00F
:101F300057FF20C020E030E040E050E01BC0E091BF
:101F40000424F0E0EE0FFF1FE853FB4D0190F081F9
:101F5000E02D8091902590919125E80FF91F209117
:101F6000C5243091C624F7FD0AC0CF01B9010E94F3
:101F70002A519C01209371283093722810C0882721
:101F800099278E1B9F0BB9010E942A512150304086
:101F9000A901481B590B4093712850937228209136
:101FA0007128309172284091CD265091CE26809193
:101FB000262790912727BC01269FC001279F900DBF
:101FC000369F900D1124840F951F809301249093C8
:101FD000022414C0E0910424F0E0EE0FFF1FE85348
:101FE000FB4D80819181BC0145E0660F771F4A95CA
:101FF000E1F7680F791F81E00E942A2FCDB7DEB785
:10200000EEE00C94AE51A0E0B0E0E9E0F0E10C9419
:10201000925180910724882329F486EE93E00E9450
:102020001050D2C0809103248F5F8093032480914D
:102030000324843610F010920324809107248150E9
:10204000809307248091CB26843009F45FC08530CB
:1020500009F4A6C0833009F0B7C082E00E94BA2E0E
:1020600040919D2050919E20C0912627D0912727F6
:102070003E01882499247A0100E010E064015301B4
:10208000AA0CBB1CCC1CDD1C4817590708F4CA015C
:102090009C0140E050E0C601B5010E940B516E0D5D
:1020A0007F1D801F911FEE0CFF1C001F111FA80138
:1020B00097010E94735121503040404050402615F6
:1020C0003705480559052CF021979E0140E050E066
:1020D000219657FF04C020E030E040E050E020931C
:1020E000CD263093CE268091712890917228209130
:1020F000CD263091CE26AC014C9FC0014D9F900D56
:102100005C9F900D1124820F931F45C0E091032422
:10211000F0E0EE0FFF1FE85DF84D0190F081E02D3B
:1021200080911E2690911F26E80FF91F20912627E7
:1021300030912727F7FD09C0CF01B9010E942A512C
:102140008093CD269093CE2610C0882799278E1B8A
:102150009F0BB9010E942A5121503040B901681BE0
:10216000790B6093CD267093CE2620917128309103
:1021700072284091CD265091CE26809126279091AD
:102180002727BC01269FC001279F900D369F900DE9
:102190001124840F951F809301249093022414C06E
:1021A000E0910324F0E0EE0FFF1FE85DF84D808121
:1021B0009181BC01A5E0660F771FAA95E1F7680F32
:1021C000791F80E00E942A2FCDB7DEB7EEE00C9495
:1021D000AE51A2E0B2E0EFEEF0E10C949451982FF2
:1021E000162F80910724843618F086EC93E0C5C042
:1021F000913031F410920324109205241092072498
:10220000212F30E08091B1209091B22001972817C2
:10221000390739F48090102490901124811491048E
:1022200019F404E6802E912C8091FF23882309F075
:10223000A7C084E6189FC001112480509E4F7C01E6
:1022400000E010E08AE994E2B801A7010E94314061
:10225000282F882309F075C08091A0249091A12493
:10226000A091A224B091A3248E159F05A007B107C9
:1022700009F067C080E061E00E94882E8AE994E25C
:10228000BE016D5F7F4FA4019E012F5F3F4F0E94F3
:10229000A342282F882329F489819A8188159905DA
:1022A000E9F080910B248823C9F400D00F92EDB798
:1022B000FEB731968BEB93E0ADB7BEB711968D9319
:1022C0009C931297228313820E9452500F900F907A
:1022D0000F900F9081E993E00E94105080E060E041
:1022E0000E94882E69817A81DE01139640E050E0D9
:1022F00024C0E0910524F0E0EE0FFF1FE85DF84DEB
:1023000011963C91119720E08C918901080F111DC5
:1023100000831183809105248F5F80930524809131
:102320000524843610F010920524809107248F5FD5
:10233000809307244E5F5F4F129646175707C8F2E7
:1023400061C080910B24882309F05CC000D00F92FB
:10235000EDB7FEB7319686E893E0ADB7BEB71196FC
:102360008D939C931297228313820E9452500F9058
:102370000F900F900F908EE593E00E94105042C096
:1023800080E061E00E94882E84E6189F600111249D
:1023900002E810E0C00ED11EAA24BB242CC0C60146
:1023A0000E941956182FC60101960E941956E091F5
:1023B0000524F0E0EE0FFF1FE85DF84DF82EEE2447
:1023C000C701810F911D80839183809105248F5FC8
:1023D0008093052480910524843610F01092052402
:1023E000809107248F5F8093072482E090E0A80EFD
:1023F000B91EC80ED91EA814B90488F280E060E0A6
:102400000E94882ECE5FDD4FECE00C94B051AEE020
:10241000B2E0EDE0F2E10C949C51082F162F6A30E7
:1024200080F400D000D0EDB7FEB73196CE01039610
:10243000ADB7BEB711968D939C93129780E090E252
:102440001FC0CE010396643670F400D000D0EDB703
:10245000FEB73196ADB7BEB711968D939C93129788
:102460008EE090E20DC000D000D0EDB7FEB73196FF
:10247000ADB7BEB711968D939C9312978BE190E206
:1024800082839383148315820E94EE53EDB7FEB7C7
:102490003696EDBFFEBF013021F0023009F0EAC1EF
:1024A000F4C08AE994E20E94E93E8AE994E2BE011E
:1024B0006D5F7F4F41E00E949144882309F048C03E
:1024C0008AE994E2BE01615F7F4F40E052E09E01E5
:1024D0002F5F3F4F0E94A342882399F589819A81FB
:1024E0008050924071F58F858093A92088898093D0
:1024F000AA2089898093AB208A898093AC2010938D
:102500000C2410920D2400939C201092FA238091A9
:102510000B24882329F500D00F92EDB7FEB7319632
:1025200088E795E0ADB7BEB711968D939C9312974F
:10253000128313820E9452500F900F900F900F90B1
:102540000FC080910B24882359F487E595E006C0DD
:1025500080910B24882321F486E395E00E9410509B
:1025600080910B24882309F089C000D000D085E237
:1025700095E0EDB7FEB7818392838091A920909179
:10258000AA20A091AB20B091AC2083839483A58333
:10259000B6830E9452506091A9207091AA20809128
:1025A000AB209091AC2028EC30E040E050E00E945D
:1025B0005151969587957795679560931024709300
:1025C00011240F900F90EDB7FEB7319623E135E05F
:1025D000ADB7BEB711962D933C9312976283738368
:1025E0000E9452500F900F900F900F9080911024E6
:1025F000909111242091A9203091AA204091AB20E4
:102600005091AC20892BE1F4CA01B90120E931E0F5
:1026100040E050E00E9451512093B1203093B2200D
:1026200000D00F92EDB7FEB731968BEF94E0ADB7C7
:10263000BEB711968D939C9312972283338318C053
:10264000CA01B90120E931E040E050E00E94515157
:102650002F5F3F4F2093B1203093B22000D00F92D4
:1026600083EE94E0EDB7FEB78183928323833483B6
:102670000E9452500F900F900F900F901092A12037
:1026800081E060E00E94E910FDC080E296E20E94D5
:10269000E93E80E296E2BE016D5F7F4F41E00E941D
:1026A0009144882309F049C080E296E2BE01615F4F
:1026B0007F4F40E052E09E012F5F3F4F0E94A342B8
:1026C0008823A1F589819A818050924079F58F8580
:1026D0008093AD2088898093AE2089898093AF2034
:1026E0008A898093B02010930E2410920F2481E0E9
:1026F00080939C201092FA2380910B24882329F543
:1027000000D00F92EDB7FEB731968FEB94E0ADB7E6
:10271000BEB711968D939C931297128313820E94D9
:1027200052500F900F900F900F900FC080910B247C
:10273000882359F48EE994E006C080910B24882305
:1027400021F48DE794E00E94105080910B2488239F
:1027500009F089C000D000D08CE694E0EDB7FEB758
:10276000818392838091AD209091AE20A091AF2083
:10277000B091B02083839483A583B6830E94525086
:102780006091AD207091AE208091AF209091B020EB
:1027900028EC30E040E050E00E945151969587953A
:1027A0007795679560931224709313240F900F9080
:1027B000EDB7FEB731962AE534E0ADB7BEB7119656
:1027C0002D933C931297628373830E9452500F9013
:1027D0000F900F900F9080911224909113242091CC
:1027E000AD203091AE204091AF205091B020892B88
:1027F000E1F4CA01B90120E931E040E050E00E9473
:1028000051512093B3203093B42000D00F92EDB7F4
:10281000FEB7319682E494E0ADB7BEB711968D93C2
:102820009C9312972283338318C0CA01B90120E90F
:1028300031E040E050E00E9451512F5F3F4F209324
:10284000B3203093B42000D00F928AE294E0EDB729
:10285000FEB781839283238334830E9452500F906A
:102860000F900F900F901092A22081E060E00E94E4
:10287000670E08C080910B24882321F487E094E040
:102880000E941050C25FDD4FE4E00C94B851AEE0FE
:10289000B2E0EDE4F4E10C949C51082F162F6A305D
:1028A00080F400D000D0EDB7FEB73196CE0103968C
:1028B000ADB7BEB711968D939C93129787E290E2C5
:1028C0001FC0CE010396643670F400D000D0EDB77F
:1028D000FEB73196ADB7BEB711968D939C93129704
:1028E00085E390E20DC000D000D0EDB7FEB7319681
:1028F000ADB7BEB711968D939C93129782E490E288
:1029000082839383148315820E94EE53EDB7FEB742
:102910003696EDBFFEBF013021F0023009F0EAC16A
:10292000F4C08AE994E20E94E93E8AE994E2BE0199
:102930006D5F7F4F41E00E949144882309F048C0B9
:102940008AE994E2BE01615F7F4F40E052E09E0160
:102950002F5F3F4F0E94A342882399F589819A8176
:102960008050924071F58F858093A920888980934B
:10297000AA2089898093AB208A898093AC20109308
:102980000C2410920D2400939C201092FA23809125
:102990000B24882329F500D00F92EDB7FEB73196AE
:1029A00083E699E0ADB7BEB711968D939C931297CD
:1029B000128313820E9452500F900F900F900F902D
:1029C0000FC080910B24882359F486E499E006C057
:1029D00080910B24882321F485E299E00E94105015
:1029E00080910B24882309F089C000D000D084E1B5
:1029F00099E0EDB7FEB7818392838091A9209091F1
:102A0000AA20A091AB20B091AC2083839483A583AE
:102A1000B6830E9452506091A9207091AA208091A3
:102A2000AB209091AC2028EC30E040E050E00E94D8
:102A3000515196958795779567956093102470937B
:102A400011240F900F90EDB7FEB7319622E039E0D8
:102A5000ADB7BEB711962D933C93129762837383E3
:102A60000E9452500F900F900F900F908091102461
:102A7000909111242091A9203091AA204091AB205F
:102A80005091AC20892BE1F4CA01B90120E931E071
:102A900040E050E00E9451512093B1203093B22089
:102AA00000D00F92EDB7FEB731968AEE98E0ADB741
:102AB000BEB711968D939C9312972283338318C0CF
:102AC000CA01B90120E931E040E050E00E945151D3
:102AD0002F5F3F4F2093B1203093B22000D00F9250
:102AE00082ED98E0EDB7FEB7818392832383348330
:102AF0000E9452500F900F900F900F901092A120B3
:102B000081E060E00E94E910FDC080E296E20E9450
:102B1000E93E80E296E2BE016D5F7F4F41E00E9498
:102B20009144882309F049C080E296E2BE01615FCA
:102B30007F4F40E052E09E012F5F3F4F0E94A34233
:102B40008823A1F589819A818050924079F58F85FB
:102B50008093AD2088898093AE2089898093AF20AF
:102B60008A898093B02010930E2410920F2481E064
:102B700080939C201092FA2380910B24882329F5BE
:102B800000D00F92EDB7FEB731968EEA98E0ADB760
:102B9000BEB711968D939C931297128313820E9455
:102BA00052500F900F900F900F900FC080910B24F8
:102BB000882359F480E998E006C080910B2488238B
:102BC00021F48FE698E00E94105080910B24882316
:102BD00009F089C000D000D08EE598E0EDB7FEB7CF
:102BE000818392838091AD209091AE20A091AF20FF
:102BF000B091B02083839483A583B6830E94525002
:102C00006091AD207091AE208091AF209091B02066
:102C100028EC30E040E050E00E94515196958795B5
:102C20007795679560931224709313240F900F90FB
:102C3000EDB7FEB731962BE438E0ADB7BEB71196CD
:102C40002D933C931297628373830E9452500F908E
:102C50000F900F900F908091122490911324209147
:102C6000AD203091AE204091AF205091B020892B03
:102C7000E1F4CA01B90120E931E040E050E00E94EE
:102C800051512093B3203093B42000D00F92EDB770
:102C9000FEB7319683E398E0ADB7BEB711968D933A
:102CA0009C9312972283338318C0CA01B90120E98B
:102CB00031E040E050E00E9451512F5F3F4F2093A0
:102CC000B3203093B42000D00F928BE198E0EDB7A1
:102CD000FEB781839283238334830E9452500F90E6
:102CE0000F900F900F901092A22081E060E00E9460
:102CF000670E08C080910B24882321F488EF97E0A9
:102D00000E9410501092FF23C25FDD4FE4E00C944C
:102D1000B851AEE0B2E0EFE8F6E10C949651082F1E
:102D2000162F6A3080F400D000D0EDB7FEB7319690
:102D3000CE010396ADB7BEB711968D939C931297B3
:102D400087E290E21FC0CE010396643670F400D093
:102D500000D0EDB7FEB73196ADB7BEB711968D93E3
:102D60009C93129785E390E20DC000D000D0EDB7A0
:102D7000FEB73196ADB7BEB711968D939C9312975F
:102D800082E490E282839383148315820E94EE533F
:102D9000EDB7FEB73696EDBFFEBF013021F0023031
:102DA00009F020C32AC28AE994E20E94E93E8AE936
:102DB00094E2BE016D5F7F4F41E00E949144882301
:102DC00009F048C08AE994E2BE01615F7F4F40E0AC
:102DD00052E09E012F5F3F4F0E94A342882399F546
:102DE00089819A818050924071F58F858093A920C6
:102DF00088898093AA2089898093AB208A898093CF
:102E0000AC2010930C2410920D2400939C2010925F
:102E1000FA2380910B24882329F500D00F92EDB777
:102E2000FEB7319684ED97E0ADB7BEB711968D939E
:102E30009C931297128313820E9452500F900F900E
:102E40000F900F900FC080910B24882359F487EBCB
:102E500097E006C080910B24882321F486E997E04F
:102E60000E9410502091A9203091AA204091AB20BF
:102E70005091AC20293EB3E03B07B0E04B07B0E0F7
:102E80005B0718F089E697E0B3C2BE01615F7F4F30
:102E9000FE013196213082E0380780E0480780E06B
:102EA000580708F4B3C08AE994E240E052E09F0179
:102EB0000E94A342282F882329F489819A81805077
:102EC0009240E9F080910B248823C9F400D00F923E
:102ED000EDB7FEB731968EE597E0ADB7BEB7119668
:102EE0008D939C931297228313820E9452500F90CD
:102EF0000F900F900F9084E397E00E94105000E035
:102F000010E02FE0E22EF12CEC0EFD1EF701E00F99
:102F1000F11FC8018E579F4F60810E9429560F5F95
:102F20001F4FB2E000301B0789F74091A920509154
:102F3000AA20405052408AE994E2B7019E012F5FD7
:102F40003F4F0E94A342682F8823A9F429813A8128
:102F500040E050E08091A9209091AA20A091AB2060
:102F6000B091AC2080509240A040B0402817390763
:102F70004A075B07E9F080910B248823C9F400D04D
:102F80000F92EDB7FEB7319689E297E0ADB7BEB7C5
:102F900011968D939C931297628313820E945250D4
:102FA0000F900F900F900F908FEF96E00E941050AF
:102FB00092E8C92E92E0D92EEE24FF2487018FE0FB
:102FC000A82EB12CAC0EBD1E0FC0F501EE0DFF1DDD
:102FD000C60160810E9429560894E11CF11C011D64
:102FE000111D0894C11CD11C8091A9209091AA2088
:102FF000A091AB20B091AC2080509240A040B04056
:10300000E816F9060A071B0700F360C08AE994E294
:10301000A9019F010E94A342682F882389F4898116
:103020009A81A0E0B0E02091A9203091AA2040919F
:10303000AB205091AC2082179307A407B507E9F0A5
:1030400080910B248823C9F400D00F92EDB7FEB70E
:10305000319684EF96E0ADB7BEB711968D939C93F1
:103060001297628313820E9452500F900F900F901C
:103070000F908AEC96E00E941050B2E8CB2EB0E0A0
:10308000DB2EEE24FF248701AFE0AA2EB12CAC0E7C
:10309000BD1E0FC0F501EE0DFF1DC60160810E942F
:1030A00029560894E11CF11C011D111D0894C11C36
:1030B000D11C8091A9209091AA20A091AB20B09121
:1030C000AC20E816F9060A071B0720F380910B24B1
:1030D000882309F089C000D000D089EB96E0EDB7D5
:1030E000FEB7818392838091A9209091AA20A0911C
:1030F000AB20B091AC2083839483A583B6830E94D8
:1031000052506091A9207091AA208091AB2090919B
:10311000AC2028EC30E040E050E00E945151969500
:1031200087957795679560931024709311240F907D
:103130000F90EDB7FEB7319627EA36E0ADB7BEB7D0
:1031400011962D933C931297628373830E94525081
:103150000F900F900F900F90809110249091112458
:103160002091A9203091AA204091AB205091AC2011
:10317000892BE1F4CA01B90120E931E040E050E0D7
:103180000E9451512093B1203093B22000D00F9271
:10319000EDB7FEB731968FE896E0ADB7BEB71196A2
:1031A0008D939C9312972283338318C0CA01B9016F
:1031B00020E931E040E050E00E9451512F5F3F4F45
:1031C0002093B1203093B22000D00F9287E796E091
:1031D000EDB7FEB781839283238334830E945250DC
:1031E0000F900F900F900F901092A12081E080938C
:1031F000FF2360E00E94E910FDC080E296E20E9499
:10320000E93E80E296E2BE016D5F7F4F41E00E94A1
:103210009144882309F049C080E296E2BE01615FD3
:103220007F4F40E052E09E012F5F3F4F0E94A3423C
:103230008823A1F589819A818050924079F58F8504
:103240008093AD2088898093AE2089898093AF20B8
:103250008A898093B02010930E2410920F2481E06D
:1032600080939C201092FA2380910B24882329F5C7
:1032700000D00F92EDB7FEB7319683E596E0ADB77B
:10328000BEB711968D939C931297128313820E945E
:1032900052500F900F900F900F900FC080910B2401
:1032A000882359F485E396E006C080910B24882397
:1032B00021F484E196E00E94105080910B24882331
:1032C00009F089C000D000D083E096E0EDB7FEB7EA
:1032D000818392838091AD209091AE20A091AF2008
:1032E000B091B02083839483A583B6830E9452500B
:1032F0006091AD207091AE208091AF209091B02070
:1033000028EC30E040E050E00E94515196958795BE
:103310007795679560931224709313240F900F9004
:10332000EDB7FEB7319620EF35E0ADB7BEB71196D9
:103330002D933C931297628373830E9452500F9097
:103340000F900F900F908091122490911324209150
:10335000AD203091AE204091AF205091B020892B0C
:10336000E1F4CA01B90120E931E040E050E00E94F7
:1033700051512093B3203093B42000D00F92EDB779
:10338000FEB7319688ED95E0ADB7BEB711968D9337
:103390009C9312972283338318C0CA01B90120E994
:1033A00031E040E050E00E9451512F5F3F4F2093A9
:1033B000B3203093B42000D00F9280EC95E0EDB7AD
:1033C000FEB781839283238334830E9452500F90EF
:1033D0000F900F900F901092A22081E060E00E9469
:1033E000670E08C080910B24882321F48DE995E0B5
:1033F0000E941050C25FDD4FEAE00C94B251A2E887
:10340000B0E0E5E0FAE10C949851282F8A3080F47E
:1034100000D000D0EDB7FEB7319684E194E2ADB7AD
:10342000BEB711968D939C9312978EE490E21FC0C5
:1034300084E194E2243670F400D000D0EDB7FEB7FA
:103440003196ADB7BEB711968D939C9312978CE5CC
:1034500090E20DC000D000D0EDB7FEB73196ADB709
:10346000BEB711968D939C93129789E690E2828362
:103470009383248315820E94EE53EDB7FEB73696F0
:10348000EDBFFEBF8CE097E264E174E241E00E9490
:1034900091448823C9F543E0C42ED12CCC0EDD1E07
:1034A0008CE097E2B60140E850E09E012F5F3F4F6D
:1034B0000E94A342882309F589819A818038910569
:1034C000E1F43BE4E32E36E2F32E00E010E0F601F7
:1034D000E00FF11F6081D7016D937D010F5F1F4FDA
:1034E000C8018F5F9F4F0E9429560038110579F758
:1034F00081E090E060E00E9429568CE097E20E9413
:10350000E93E86E49AE002C080E19AE00E94105011
:10351000CE57DF4FE8E00C94B4511F93CF93DF9365
:10352000162FEA01882349F580919F258823E1F72A
:1035300082E995E260E0AE01212F0E94823D8091F8
:103540009A288823E1F78DE898E260E0AE01212F08
:103550000E94823D809147268823E1F78AE396E224
:1035600060E0AE01212F0E94823D8091C324882318
:10357000E1F786EB94E260E022C0E82FF0E0DF01A3
:10358000A65BB94DAC91E051F84D6081AA23D9F00A
:10359000A33051F0A43059F0A23019F4ADE8B8E2EC
:1035A00008C0A2E9B5E205C0AAE3B6E202C0A6EBF4
:1035B000B4E21D968C911D978823D9F7CD01AE01F9
:1035C000212F0E94823DDF91CF911F910895A1E0AC
:1035D000B0E0EDEEFAE10C9496515C01FC01E08064
:1035E000F180C280D3808481809300249581909360
:1035F000492686818093C724882319F09093CC268E
:1036000009C0892F90E053E0880F991F5A95E1F780
:103610008093CC261092FA2381E061E00E94882EEC
:1036200091E007E010E00FC0A501400F511F892F66
:103630006091CC2699830E948D1A8091CC26080F28
:10364000111D99819F5F80910024891768F77F2D54
:1036500060E06E0D711D80E00E942A2F7D2D60E0DC
:103660006C0D711D81E00E942A2F81E060E00E94B4
:10367000882E2196EAE00C94B251CF93DF93FC019F
:103680008081813009F049C0928180E02181DC0194
:10369000A20FB11DA0930A27B0930B27948180E05D
:1036A0002381BC01620F711D6093B4247093B52413
:1036B000968180E02581AC01420F511D4093CF26B9
:1036C0005093D026908580E02781EC01C20FD11D58
:1036D0009E01C093BF2AD093C02A80910B248823D7
:1036E00011F5EDB7FEB73A97EDBFFEBF319682EE0A
:1036F0009DE0CDB7DEB789839A83A283B3836483C9
:10370000758346835783208731870E945250EDB7D7
:10371000FEB73A96EDBFFEBF06C080E068E04DEE12
:1037200050E20E948D1ADF91CF910895FC018081B3
:10373000803119F08131A9F407C08181738160E083
:103740009281690F711D09C0738160E08281680FE9
:10375000711D8181709561957F4F81500E942A2F44
:10376000089580E068E04DED50E20E948D1A0895C2
:10377000A2E0B0E0EEEBFBE10C949B518C01FC016C
:103780008081853209F4B9C0863250F4853109F45C
:10379000A0C0803209F4A7C0803109F02EC191C0C9
:1037A000853309F4F2C0863320F4803309F025C153
:1037B000C2C0803409F414C18F3F09F01EC1F80162
:1037C000F18080919F258823E1F782E995E26F2DB2
:1037D0004DEF50E222E00E94823D80919A2888239A
:1037E000E1F78DE898E26F2D4DEF50E222E00E9464
:1037F000823D809147268823E1F78AE396E26F2D88
:103800004DEF50E222E00E94823D8091C324882344
:10381000E1F786EB94E26F2D4DEF50E222E00E943B
:10382000823D80EF95E520E233E0F9013197F1F731
:103830000197D9F78FEF8983F801928180919F25B5
:103840008823E1F79A8382E995E26F2DAE014F5FFD
:103850005F4F22E00E94823D80919A288823E1F701
:103860008DE898E26F2DAE014F5F5F4F22E00E941E
:10387000823D809147268823E1F78AE396E26F2D07
:10388000AE014F5F5F4F22E00E94823D8091C324D2
:103890008823E1F786EB94E26F2DAE014F5F5F4F17
:1038A00022E00E94823D84EF91E020E233E0F901C2
:1038B0003197F1F70197D9F780E062E04DEF50E2E0
:1038C000A0C0F80181818093CB2682818093092753
:1038D0009AC0F8016281662309F486C0F8018181EB
:1038E0000E94471490C0F8016281662309F47CC0ED
:1038F000F80181810E94071286C0F801928180E060
:1039000021818C01020F111D980140E050E062E11D
:103910007AE780E090E00E9473512093A3203093D7
:10392000A42080910B24882309F06DC000D00F9251
:1039300080E89EE01DC0F801928180E021818C0129
:10394000020F111D980140E050E062E17AE780E04B
:1039500090E00E9473512093A5203093A62080917F
:103960000B24882309F04FC000D00F928DE59EE014
:10397000EDB7FEB781839283038314830E94525074
:103980000F900F900F900F903EC0F801618170E092
:1039900080E090E02FEF3FE040E050E00E940B51CC
:1039A0002AE030E040E050E00E94515120939D20F9
:1039B00030939E20F801628170E080E090E02FEF6C
:1039C0003FE040E050E00E940B512AE030E040E050
:1039D00050E00E94515120939F203093A02013C0AB
:1039E000F8016281662321F481810E940A0D0BC0D7
:1039F000F80181810E94891606C080E068E045EDEB
:103A000050E20E948D1A2296E5E00C94B751AAE28A
:103A1000B2E0EDE0FDE10C948E51A82E8DB79EB77B
:103A2000C95DDD4F88839983C752D2408FB799E033
:103A30009A1580F000D000D0EDB7FEB731968CE239
:103A400094E2ADB7BEB711968D939C93129785E71C
:103A500090E220C08CE294E2F3E6FA1570F000D018
:103A600000D0EDB7FEB73196ADB7BEB711968D93C6
:103A70009C93129783E890E20DC000D000D0EDB780
:103A8000FEB73196ADB7BEB711968D939C93129742
:103A900080E990E282839383A48215820E94EE5390
:103AA000EDB7FEB73696EDBFFEBF83E798E26CE256
:103AB00074E241E00E949144882309F02AC283E71E
:103AC00098E2BE01695D7F4F40E052E09E012F5FAA
:103AD0003F4F0E94A342882309F014C289819A8132
:103AE0008050924009F00EC28FA18093262788A5AE
:103AF0008093272789A58093C5248AA58093C6240F
:103B00008BA5809300244CA5409349262091C52481
:103B10003091C6248091262790912727289F200145
:103B2000299F500C389F500C1124842F8B508430C7
:103B300050F4942F9A509093492681E08093C724A3
:103B40009093CC260BC01092C724842F90E0F3E012
:103B5000880F991FFA95E1F78093CC26109271286F
:103B60001092722880917128909172288093CD26AE
:103B70009093CE26109201241092022481E080932B
:103B80009C201092FA238091CC2690E0849D8001A5
:103B9000859D100D949D100D112480910B24882378
:103BA00009F054C000D00F92EDB7FEB7319685E111
:103BB0009DE0ADB7BEB711968D939C931297A282EC
:103BC00013820E945250EDB7FEB73897EDBFFEBF8B
:103BD000319682EC9CE0ADB7BEB711968D939C9365
:103BE0001297809126279091272782839383809133
:103BF000C5249091C6248483958380910024868374
:103C0000178280914926808711868091C7248287F8
:103C100013860E945250EDB7FEB73696EDBFFEBF39
:103C2000319685E89CE0ADB7BEB711968D939C9315
:103C300012978091CC2682831382048315830E947D
:103C40005250EDB7FEB73696EDBFFEBFF3E001323E
:103C50001F0708F02EC11B821C82E5E08E2E912CDE
:103C60008C0E9D1E73E0272E312C2C0E3D1E1AC18A
:103C70008DB7C75DDD4F8883C952D2409EB7C65D00
:103C8000DD4F9883CA52D2409091CC268091002477
:103C9000989F60011124ADB7BEB7AC19BD09ADBF87
:103CA000BEBF6DB67EB60894611C711C6D2D669505
:103CB0006F5F70E080E090E040E050E00E940B51C8
:103CC0007B018C010894E11CF11C011D111D69E0B0
:103CD000EE0CFF1C001F111F6A95D1F783E798E2D5
:103CE000B801A7010E943140B82E882309F091C085
:103CF0008091792890917A28A0917B28B0917C2896
:103D00008E159F05A007B10709F083C083E798E2ED
:103D1000B301A6019E012F5F3F4F0E94A342182FBF
:103D2000882309F04FC089819A818C159D0509F07F
:103D300049C011E0EE24FF243FC00091CC2693013E
:103D40002E0D3F1DD401F90102C081918D938E2F5C
:103D5000821B8017D0F3E02FF0E094012E0F3F1F5D
:103D6000D1018C91D9018C9386E090E08C0F9D1F3E
:103D7000E80FF91FD10111968C9180838091C7249F
:103D8000882321F4602F6E5F812F10C08091492617
:103D9000833039F0843041F0813059F4812F65E06F
:103DA00005C0812F66E002C0812F67E0A4010E9458
:103DB0008D1AE00EF11C1F5F80910024811708F01E
:103DC000BCCF5EC080910B24882309F059C08CE5DC
:103DD0009CE00E941050EDB7FEB73897EDBFFEBFD4
:103DE00031968EE39CE0ADB7BEB711968D939C9350
:103DF0001297128313828B819C818483958389819E
:103E00009A81868397830E945250EDB7FEB7389609
:103E100027C080910B24882399F584E19CE00E94BF
:103E200010508DB79EB70A978DBF9EBFEDB7FEB7F6
:103E3000319681EF9BE0ADB7BEB711968D939C9301
:103E40001297B28213828B819C8184839583E68250
:103E5000F782008711870E945250EDB7FEB73A965D
:103E6000EDBFFEBFC75DDD4F8881C952D240C65D40
:103E7000DD4F9881CA52D2409C012DBF3EBF6EC01B
:103E8000C75DDD4F2881C952D240C65DDD4F388104
:103E9000CA52D240C9018DBF9EBF8B819C810196C1
:103EA0008B839C832B813C812415350508F4E0CE5F
:103EB00039C00F920F9287EC9BE0ADB7BEB7119659
:103EC0008D939C9312970E9452500F920F928DEAFD
:103ED0009BE0EDB7FEB781839283038314830E9436
:103EE00052500F900F9086E89BE0ADB7BEB7119689
:103EF0008D939C9312970E9452501092FE230F9024
:103F00000F902CC080910B24882341F587E69BE01D
:103F100006C080910B24882309F58BE49BE00E9466
:103F200010501CC083E798E20E94E93E81E0809334
:103F3000FE2300D00F92EDB7FEB731968FE19BE0E4
:103F4000ADB7BEB711968D939C931297A282138240
:103F50000E9452500F900F900F900F90C95DDD4F4F
:103F6000E881F981C752D240EDBFFEBFC65DDD4F8B
:103F7000E2E10C94AA5183E00E94A92E0895EF92E9
:103F8000FF920F93CF93DF938091CB26813001F185
:103F9000813030F0823009F44AC0EE24FF2488C01A
:103FA000E091032420910A2730910B27220F331F21
:103FB000F0E0EE0FFF1FE85DF84D80819181AC01CC
:103FC000249FC001259F900D349F900D11241CC08B
:103FD00080E00E94BA2E64E070E00E943E51CB0166
:103FE000880F991F880F991F6AE070E00E943E5168
:103FF00080910A2790910B279C01629FC001639FCB
:10400000900D729F900D11246AE070E00E943E5165
:10401000CB014091B4245091B5249A01220F331F53
:10402000220F331F240F351F820F931F3CC080E0E7
:104030000E94BA2E64E070E00E943E51CB01E091F4
:104040000324F0E0EE0FFF1FE85DF84D0190F081D2
:10405000E02DEE0FFF1F4091B4245091B5249A013A
:10406000220F331F220F331F240F351FE20FF31FC0
:10407000880F991F880F991F6AE070E00E943E51D7
:1040800080910A2790910B27AC01649FC001659F26
:10409000900D749F900D11246AE070E00E943E51D3
:1040A000CF01860F971F62E070E00E943E517B01B6
:1040B00080910927813001F1813030F0823009F49C
:1040C0004AC0C0E0D0E088C0E09104242091CF260F
:1040D0003091D026220F331FF0E0EE0FFF1FE85380
:1040E000FB4D80819181AC01249FC001259F900DE3
:1040F000349F900D11241CC081E00E94BA2E64E010
:1041000070E00E943E51CB01880F991F880F991FC4
:104110006AE070E00E943E518091CF269091D026B7
:104120009C01629FC001639F900D729F900D1124AE
:104130006AE070E00E943E51CB014091BF2A50914D
:10414000C02A9A01220F331F220F331F240F351F5D
:10415000820F931F3CC081E00E94BA2E64E070E0A1
:104160000E943E51CB01E0910424F0E0EE0FFF1FCE
:10417000E853FB4D0190F081E02DEE0FFF1F4091C1
:10418000BF2A5091C02A9A01220F331F220F331FDA
:10419000240F351FE20FF31F880F991F880F991FF7
:1041A0006AE070E00E943E518091CF269091D02627
:1041B000AC01649FC001659F900D749F900D112408
:1041C0006AE070E00E943E51CF01860F971F62E0C7
:1041D00070E00E943E51EB0180919C20813059F1AA
:1041E0001E141F0474F49701442737FD4095542F83
:1041F00062E17AE780E090E00E94515183EB9BE01E
:1042000013C0E114F104C9F0222733272E193F0906
:10421000442737FD4095542F62E17AE780E090E033
:104220000E94515187E29CE0BA01A90122E001E01D
:104230000E94D03C0EC0C0E0D0E087E29CE04EE39C
:1042400050E060E070E022E000E00E94D03CEE240C
:10425000FF241C161D0674F49E01442737FD40956B
:10426000542F62E17AE780E090E00E9451518BEE9A
:104270009BE012C02097A9F0222733272C1B3D0B6F
:10428000442737FD4095542F62E17AE780E090E0C3
:104290000E9451518FE59CE0BA01A90123E001E0A1
:1042A00008C08FE59CE04EE350E060E070E023E062
:1042B00000E00E94D03C1092FB23EC16FD061CF09F
:1042C00081E08093FB23DF91CF910F91FF90EF90DE
:1042D0000895ABE0B0E0EFE6F1E20C948E515C01A2
:1042E0002B011A018DB79EB789879A878FB781E016
:1042F00061E00E94882E8091FA23823018F081E0DC
:104300000E94162E1092FA238091FE23882309F032
:1043100047C28DB69EB79B878091CC269091002492
:10432000899F60011124C60191706D2D6695892BBE
:1043300009F06F5FADB7BEB7AC19BD09ADBFBEBF69
:104340006DB67EB60894611C711C70E080E090E050
:10435000950140E050E00E940B517B018C010894D4
:10436000E11CF11C011D111DE9E0EE0CFF1C001FFA
:10437000111FEA95D1F783E798E2B801A7010E94DF
:104380003140982E882309F0DEC1809179289091E0
:104390007A28A0917B28B0917C288E159F05A007D4
:1043A000B10709F0D0C183E798E2B301A6019E01ED
:1043B0002F5F3F4F0E94A342182F882309F09EC110
:1043C00089819A818C159D0509F098C1DD24D394CB
:1043D000EE24FF2475E0A72EB12CAC0EBD1E88C1C3
:1043E00083010E0D1F1DC090CC2680919C2881302A
:1043F00009F075C1B8E0CB16F1F4F8019081818124
:104400009817C9F4428183814817A9F434818581C2
:10441000381789F426818781281769F4941759F48D
:10442000931749F4921739F48D2D61E0A8010E9489
:104430008D1A51E001C050E08091CC26883109F0FE
:104440008CC0F301EE0DFF1DE081D80111968C9117
:104450001197E81709F081C012963C9112971396B4
:104460008C911397381709F078C014962C911497F3
:1044700015968C911597281709F06FC016969C9188
:10448000169717968C911797981709F066C0E3173F
:1044900009F063C0E21709F060C0E91709F05DC0D8
:1044A00018969C91189719968C911997981709F05E
:1044B00054C01A964C911A971B968C911B974817CB
:1044C00009F04BC01C963C911C971D968C911D9732
:1044D000381709F042C01E962C911E971F968C919A
:1044E0001F972817D1F59417C1F59317B1F59217B7
:1044F000A1F550969C91509751968C915197981791
:1045000061F552964C91529753968C915397481758
:1045100021F554963C91549755968C9155973817A0
:10452000E1F456962C91569757968C9157972817E9
:10453000A1F4941791F4931781F4921771F4ED8319
:1045400018968C9118978E8350968C918F838D2D11
:1045500063E0A5010E948D1A51E08091CC26803243
:1045600009F0BBC0F301EE0DFF1DE081D8011196EB
:104570008C911197E81709F0B0C012963C911297F0
:1045800013968C911397381709F0A7C014962C91A5
:10459000149715968C911597281709F09EC01696BA
:1045A0009C91169717968C911797981709F095C0BC
:1045B000E31709F092C0E21709F08FC0E91709F07C
:1045C0008CC018969C91189719968C9119979817EA
:1045D00009F083C01A964C911A971B968C911B97E1
:1045E000481709F07AC01C963C911C971D968C9137
:1045F0001D97381709F071C01E962C911E971F96B3
:104600008C911F97281709F068C0941709F065C0AE
:10461000931709F062C0921709F05FC050969C9101
:10462000509751968C915197981709F056C0529611
:104630004C91529753968C915397481709F04DC05F
:1046400054963C91549755968C915597381709F08C
:1046500044C056962C91569757968C915797281789
:10466000E1F59417D1F59317C1F59217B1F5589666
:104670009C91589759968C915997981771F55A961D
:104680004C915A975B968C915B97481731F55C96E5
:104690003C915C975D968C915D973817F1F45E962E
:1046A0002C915E975F968C915F972817B1F49417C1
:1046B000A1F4931791F4921781F4ED8318968C91DD
:1046C00018978E8350968C9150978F8358968C9123
:1046D00088878D2D64E0A50106C0552331F48D2D0A
:1046E0006091CC26A8010E948D1AEC0CF11CD39489
:1046F000809100248D1508F073CE4CC080910B245E
:10470000882309F047C085E99DE00E941050EDB76D
:10471000FEB73897EDBFFEBF319687E79DE0ADB796
:10472000BEB711968D939C93129712831382A48225
:10473000B58289819A81868397830E945250EDB712
:10474000FEB7389625C080910B24882319F58DE497
:104750009DE00E9410508DB79EB70A978DBF9EBFF7
:10476000EDB7FEB731968AE29DE0ADB7BEB71196C0
:104770008D939C93129792821382A482B582E682D3
:10478000F782008711870E945250EDB7FEB73A9624
:10479000EDBFFEBF882D9B859C012DBF3EBF0EC087
:1047A00080910224806F8B83809101248C8380E030
:1047B00062E0AE014D5F5F4F0E948D1A8091CB2663
:1047C0008530C9F0B20180E090E06F5F7F4F8F4F7E
:1047D0009F4F2FEF3FE740E050E00E940B512091A8
:1047E00026273091272740E050E00E94515180E079
:1047F000B9010E942A2F809109278530C9F0B101A3
:1048000080E090E06F5F7F4F8F4F9F4F2FEF3FE72C
:1048100040E050E00E940B512091C5243091C62405
:1048200040E050E00E94515181E0B9010E942A2FDE
:104830008091FC23813059F58091CD269091CE2630
:104840004091CD265091CE2663E0969587956A9546
:10485000E1F790E0FC01EF55FA4D208130E053E0A4
:10486000880F991F5A95E1F7481B87E090E0841B59
:10487000910902C0359527958A95E2F720FD03C07E
:1048800080E060E002C080E061E00E94882E81E06C
:1048900060E00E94882E89859A858DBF9EBF2B96E9
:1048A000E2E10C94AA51A0E0B0E0E9E5F4E20C9456
:1048B000965181E080939C202091C5243091C6249C
:1048C0008091262790912727289F5001299FB00C7F
:1048D000389FB00C11240E94E04EC0E0D0E00CC024
:1048E0006091CD267091CE2640917128509172280A
:1048F000CE010E9469212196CA15DB0588F30E942A
:10490000F54E7B018C018DB79EB708978DBF9EBF7A
:10491000CDB6DEB60894C11CD11C89EE99E0EDB786
:10492000FEB781839283F601E282F38204831583CA
:10493000B50180E090E028EE33E040E050E00E94D6
:104940000B51A80197010E945151F601268337832C
:104950000E9452508DB79EB708968DBF9EBFCDB7AF
:10496000DEB7EAE00C94B251A2E0B2E0EAEBF4E286
:104970000C949D51182F8A3080F400D000D0EDB7F0
:10498000FEB7319680E294E2ADB7BEB711968D9333
:104990009C93129785E790E21FC080E294E2143660
:1049A00070F400D000D0EDB7FEB73196ADB7BEB70A
:1049B00011968D939C93129783E890E20DC000D0DE
:1049C00000D0EDB7FEB73196ADB7BEB711968D9357
:1049D0009C93129780E990E28283938314831582DB
:1049E0000E94EE538DB79EB706968DBF9EBF83E79C
:1049F00098E20E94E93E83E798E260E274E241E0D7
:104A00000E949144882309F0AFC083E798E2BE0179
:104A10006D5F7F4F40E052E09E012F5F3F4F0E944D
:104A2000A342882309F099C089819A8180509240DD
:104A300009F093C08B81809326278C818093272750
:104A40008D818093C5248E818093C6248F8180932D
:104A50000024988590934926892F8B50843048F400
:104A60009A509093492681E08093C7249093CC2656
:104A70000BC01092C724892F90E0F3E0880F991F94
:104A8000FA95E1F78093CC26109271281092722843
:104A900080917128909172288093CD269093CE2694
:104AA000109201241092022481E080939C201092A5
:104AB000FA2380910B24882309F040C000D00F9284
:104AC000EDB7FEB731968AE09BE0ADB7BEB7119661
:104AD0008D939C931297128313820E9452508DB72C
:104AE0009EB708978DBF9EBFEDB7FEB7319687EB97
:104AF0009AE0ADB7BEB711968D939C9312978091B3
:104B0000262790912727828393838091C5249091B3
:104B1000C6248483958380910024868317828091A4
:104B20004926808711868091C724828713860E9438
:104B300052508DB79EB70C968DBF9EBF80910124B9
:104B4000909102246091CD267091CE2640917128DB
:104B5000509172280E9469210FC080910B248823F4
:104B600059F488E99AE006C080910B24882321F447
:104B70008CE79AE00E9410501092FE23CE5FDD4F2A
:104B8000E3E00C94B951FC018081803709F07BC0CF
:104B9000928180E02181820F911D8093CD26909398
:104BA000CE26948180E02381820F911D809371280D
:104BB000909372288091CD269091CE2680931E26C8
:104BC00090931F2680917128909172288093902550
:104BD0009093912520917128309172284091CD2693
:104BE0005091CE268091262790912727BC01269FA1
:104BF000C001279F900D369F900D1124840F951FA3
:104C000080930124909302241092FA2380910B2424
:104C1000882351F52091CD263091CE2640917128E0
:104C20005091722860910124709102248DB79EB733
:104C300008978DBF9EBFEDB7FEB7319681E29EE02B
:104C4000ADB7BEB711968D939C9312972283338391
:104C500044835583668377830E9452506DB77EB735
:104C6000685F7F4F6DBF7EBF8091012490910224C9
:104C70006091CD267091CE26409171285091722876
:104C80000E946921089580E068E045EE50E20E94AC
:104C90008D1A0895FC012181808190E0FC013197FB
:104CA000E131F10508F048C0E650FF4F0C94C551C2
:104CB000822F62E04DEF50E243C0822F62E04FEF5F
:104CC00050E23EC0822F0E94B4240895822F0E9499
:104CD000AC2F0895822F0E94502F0895822F90E0CC
:104CE000880F991F8093A7209093A8200895822F62
:104CF0000E9428360895822F0E9418330895822F2B
:104D00000E94FF190895822F81500E94BA2E00D070
:104D10000F9223EA3EE0EDB7FEB72183328383830F
:104D200094830E9452500F900F900F900F9008950F
:104D3000822F0E94071D089580E068E04DEC50E24C
:104D40000E948D1A08956F927F929F92AF92BF92A8
:104D5000CF92DF92EF92FF920F931F93DF93CF9347
:104D60000F920F92CDB7DEB7FC01E081E33409F476
:104D70001BC2E43408F05BC0E03209F4B6C0E13293
:104D800058F5E43109F499C2E53198F4E13109F4B8
:104D900086C2E23138F4EE2309F4F2C1E03109F0C1
:104DA0009DC379C2E23109F481C2E33109F096C3AF
:104DB00081C2E73109F4ADC2E83138F4E53109F4D4
:104DC0007FC2E63109F08AC38CC2E83109F4A5C27A
:104DD000E93109F083C3A4C2E63209F418C3E7320B
:104DE00098F4E33209F4F4C2E43238F4E13209F41D
:104DF000DBC2E23209F072C3E1C2E43209F4F7C265
:104E0000E53209F06BC311C1E03409F4BEC1E134ED
:104E100038F4E03309F4BCC0E53309F05FC366C180
:104E2000E13409F4B7C1E23409F058C3B8C1E43938
:104E300009F4F5C1E53958F5E03609F4D6C1E13693
:104E400098F4E63409F4BFC1E73438F4E43409F4E3
:104E5000B0C1E53409F042C3B1C1E73409F4B8C1C7
:104E6000E03509F03BC3BEC1E13909F4C9C1E239FB
:104E700038F4E03709F4BCC1E03909F02FC3BBC1F5
:104E8000E23909F4C2C1E33909F028C3C3C1EA39E0
:104E900009F4E3C1EB3998F4E73909F4CFC1E839F3
:104EA00038F4E53909F4C0C1E63909F017C3C1C1C6
:104EB000E83909F4C8C1E93909F010C3C9C1ED39AD
:104EC00009F4DAC1EE3938F4EB3909F4CBC1EC3925
:104ED00009F004C3CCC1EF3909F4D8C1EF3908F4A3
:104EE000D0C1EF3F09F0FAC278C1109203241092AA
:104EF000042410929C201092FA238FEB9FE14EE342
:104F000050E060E070E021E001E00E94AA3C83EB09
:104F10009BE04EE350E060E070E022E000E00E94A1
:104F2000AA3C8BEE9BE04EE350E060E070E023E0B3
:104F30000E94AA3C8091A1204091A3205091A420DE
:104F4000882331F060E070E083E090E124E006C067
:104F500060E070E083E090E124E001E00E94AA3C80
:104F60008091A2204091A5205091A620882339F05D
:104F700060E070E083E39FE025E000E006C060E0D1
:104F800070E083E39FE025E001E00E94AA3CACC210
:104F900081E080939C208FEB9FE14EE350E060E046
:104FA00070E021E000E00E94AA3C83EB9BE04EE32E
:104FB00050E060E070E022E00E94AA3C8BEE9BE0B3
:104FC0004EE350E060E070E023E00E94AA3C409194
:104FD000A3205091A42060E070E083E090E124E001
:104FE0000E94AA3C4091A5205091A62060E070E06C
:104FF00083E39FE025E00E94AA3C109209241092CE
:105000000A248091A120882329F46091092481E059
:105010000E94E9108091A220882309F065C2609166
:10502000092481E00E94670E5FC21092032410924F
:10503000042410929C201092FA238FEB9FE14EE300
:1050400050E060E070E021E001E00E94AA3C83EBC8
:105050009BE04EE350E060E070E022E000E00E9460
:10506000AA3C8BEE9BE04EE350E060E070E023E072
:105070000E94AA3C8091A1204091A3205091A4209D
:10508000882331F060E070E083E090E124E006C026
:1050900060E070E083E090E124E001E00E94AA3C3F
:1050A0008091A2204091A5205091A620882339F01C
:1050B00060E070E083E39FE025E000E006C060E090
:1050C00070E083E39FE025E001E00E94AA3C60914C
:1050D000A7207091A82082E19AE70E942A51AB0193
:1050E00060E070E08BEB9FE120E04ECF81E08093A9
:1050F0009C208FEB9FE14EE350E060E070E021E008
:1051000000E00E94AA3C83EB9BE04EE350E060E0AD
:1051100070E022E00E94AA3C8BEE9BE04EE350E060
:1051200060E070E023E00E94AA3C4091A3205091EF
:10513000A42060E070E083E090E124E00E94AA3CBB
:105140004091A5205091A62060E070E083E39FE0AD
:1051500025E00E94AA3C2091A7203091A82040E0A1
:1051600050E062E17AE780E090E00E9473518BEBBF
:105170009FE1BA01A90120E00E94AA3C82E092C00E
:1051800080E068E048E354E2ADC180E068E141E0DE
:1051900051E2A8C180E068E149E151E2A3C180E0A9
:1051A00068E141E351E29EC180E068E149E451E2F7
:1051B00099C180E068E141E651E294C180E068E194
:1051C00049E751E28FC180E068E141E951E28AC1DB
:1051D00080E068E149EA51E285C180E068E041ECA5
:1051E00051E280C10E94292E7FC10E94942F7CC170
:1051F0000E94532479C180E060E249EC51E272C11F
:1052000080E060E249EE51E26DC180E060E249E099
:1052100052E268C180E060E249E252E263C180E0AC
:1052200060E249E452E25EC180E060E249E652E2B7
:1052300059C180E060E249E852E254C180E060E296
:1052400049EA52E24FC180E060E249EC52E24AC1D1
:1052500080E060E249EE52E245C180E060E249E070
:1052600053E240C180E060E249E253E23BC180E0AA
:1052700060E249E453E236C180E060E249E653E28D
:1052800031C180E060E249E853E22CC180E060E295
:1052900049EA53E227C181E08093FC2325C11092A3
:1052A000FC2380E060E00E94882E1EC181E0809394
:1052B0009C281AC110929C2817C10E94960D14C1F7
:1052C00000D00F9286EB9FE0ADB7BEB711968D93DD
:1052D0009C93129789EC93E213968D939C93149769
:1052E000F6C01BE4E12E16E2F12E11E00EEF6E0186
:1052F0000894C11CD11C0983F70181917F018A8325
:10530000812F62E0A6010E948D1A1F5F113899F764
:10531000EBC081E080930B24E7C010920B24E4C023
:105320008DB79EB742978DBF9EBFEDB7FEB7319642
:1053300084E99FE0ADB7BEB711968D939C93129709
:1053400080910A2790910B27828393838091B424C4
:105350009091B5248483958380911E2690911F2679
:10536000868397838091CB26808711868091CF2674
:105370009091D026828793878091BF2A9091C02AEE
:10538000848795878091902590919125868797872E
:1053900080910927808B118A0E945250EDB7FEB789
:1053A0007296EDBFFEBFA0C080E090E06FEF0E945C
:1053B00029560F920F9282E69FE012C080E090E0A3
:1053C00060E00E9429560F920F9280E39FE016C082
:1053D00088E0E0E2F7E082870F920F9285E09FE09D
:1053E000ADB7BEB711968D939C9312970BC0E0E2B8
:1053F000F7E012860F920F928FED9EE0EDB7FEB7A9
:10540000818392830E9452500F900F906DC0EE24C2
:10541000FF248701AA24BB2465019924B0E46B2EE4
:10542000BCE97B2E82E00E94BA2EAA2797FDA095A8
:10543000BA2FE80EF91E0A1F1B1F83E00E94BA2E26
:10544000AA2797FDA095BA2FA80EB91ECA1EDB1E6B
:10545000C3010197F1F79394F4E69F1619F7C80179
:10546000B70124E630E040E050E00E945151209323
:105470009D2030939E20C601B50124E630E040E037
:1054800050E00E94515120939F203093A02000D0E3
:105490000F928AEC9EE0ADB7BEB711968D939C93A8
:1054A000129780919D2090919E2013968D939C93AE
:1054B00014970E94525085EB9EE0EDB7FEB78183B2
:1054C000928380919F209091A020838394830E9457
:1054D00052500F900F900F900F9006C080E068E040
:1054E00045EC50E20E948D1A0F900F90CF91DF9102
:1054F0001F910F91FF90EF90DF90CF90BF90AF90F2
:105500009F907F906F900895A0E5B6E0EAE8FAE2F8
:105510000C94945180E090E00E941956E82E82E9A4
:1055200095E26E2D0E944E3E8DE898E26E2D0E940F
:105530004E3E8AE396E26E2D0E944E3E86EB94E24A
:105540006E2D0E944E3E82E995E260E874E040E4F0
:1055500050E023E20E94FF3C8DE898E260E974E0AD
:1055600040E450E023E20E94FF3C8AE396E260EAD6
:1055700074E040E450E023E20E94FF3C86EB94E2BA
:1055800060EB74E040E450E023E20E94FF3C8E2D8B
:105590000E94F63B0E944C398FEB9AE3809398244B
:1055A0009093992480E090E02AE030E0FC01E853F9
:1055B000FB4D20833183FC01E85DF84D208331836E
:1055C0000296883C910591F7E1EAF5E220E030E0AF
:1055D0004FEF2330310520F0C9010697039710F4EF
:1055E000408301C010822F5F3F4F31962D37310528
:1055F00081F71092712810927228809171289091F1
:1056000072288093CD269093CE268091CD269091BE
:10561000CE26809390259093912580931E2690937B
:105620001F261092BF2A1092C02A1092B424109202
:10563000B5241092CF261092D02610920A271092ED
:105640000B27109209271092CB2681E080934926E0
:105650001092C72410929C2881E090E00E94195675
:105660008F3FD9F4198224E014C0E82FF0E0E65B04
:10567000F94D982F93709083882319F0992309F49A
:1056800020838981E82FF0E0E051F84D80838F5F1F
:1056900089838981813848F317C0198211C00F2D81
:1056A00010E0C8018F5F9F4F0E941956F801E65B1A
:1056B000F94D80830051184DF801F082F394F9827E
:1056C000F980F0E8FF1558F78FE091E10E94105043
:1056D00081E061E00E94F32D01E030E2C32E33E06F
:1056E000D32E3AC080E00E94CF4B082F81FF0DC01F
:1056F00080E091E10E9410500E94EB3A04C080E0EB
:105700000E94CF4B082F01FDFACF02FF04C083EEA9
:1057100090E10E941050198210C080E00E94F34A6C
:10572000082F80FF0DC089818F5F898384EF91E00E
:10573000F6013197F1F70197D9F78981843068F341
:1057400000FF0AC089EC90E10E94105080E00E94A6
:10575000CF4B082F81FFFACF00FDC4CF81EB90E142
:105760000E94105080E06AE0AE014F5F5F4F0E94E0
:105770003B4C892B59F585EA90E10E9410508981B4
:105780008430A1F0853028F4813051F08230D1F49A
:105790000AC0883089F08C3091F0863099F409C0C5
:1057A00080EA90E111C08CE990E10EC087E990E1B8
:1057B0000BC082E990E108C08DE890E105C087E860
:1057C00090E102C082E890E10E94105089E690E1E9
:1057D0000E94105080E06DE978E20E94B03E813076
:1057E00051F0813028F0823049F0833069F409C0EB
:1057F0008FE590E10BC086E590E108C083E490E17D
:1058000005C086E390E102C081E390E10E94105060
:1058100080E068E048E354E20E948D1A81E060E095
:105820000E94F32D0E94292E8FEFE81609F0CFC0B9
:1058300083E090E10E94105027EE822E23E0922E0A
:1058400097ECB92E87ECA82E02E0C02ED12CCC0EFE
:10585000DD1E03C00A2D470158010E948C3A892B96
:1058600009F453C0C6010E94F23A8430910539F11F
:105870008530910548F482309105C9F08330910557
:10588000D0F40197E1F50FC08930910501F18A301C
:10589000910518F4059799F516C08E339105D9F046
:1058A000CF9769F528C0C6010E94A3262EC0C60165
:1058B0000E944A262AC0C6010E94B81B26C0C60103
:1058C0000E94961B22C0C6010E94C3251EC0C601AD
:1058D0000E943D1B1AC020E030E0F901EF55FA4D5F
:1058E000D601A20FB31F8C9180832F5F3F4F2E33C1
:1058F000310599F70AC0C6010E947D0D06C080E0FF
:1059000068E045EF50E20E948D1A80919C20882328
:1059100009F0A3CFE0900124F0900224E814F904E8
:1059200091F0E0900124F090022480910124909164
:1059300002246091CD267091CE264091712850911D
:1059400072280E9469218091A1208823E1F480912E
:1059500007248A31C0F4109103241B15A9F010917B
:1059600003248091092490E06091B1207091B220CD
:1059700001960E942A51809309246091092480E0B5
:105980000E94E91001C01B2D8091A220882309F0FC
:1059900061CF809108248A3108F05CCF0091042403
:1059A0000A1509F458CF0091042460910A2480E07C
:1059B0000E94670E80910A2490E06091B32070915C
:1059C000B42001960E942A5180930A2444CF85ED89
:1059D0009FE00E9410508E010D5B1F4F0E948C3A79
:1059E000892BE1F3C8010E94F23A8130910519F048
:1059F000C29749F404C0C8010E94A326EFCFC80192
:105A00000E94E71AEBCF80E068E04DEF50E20E9481
:105A10008D1AE4CF1F920F920FB60F9208B60F9215
:105A200009B60F920BB60F92112418BE19BE1BBEF9
:105A30002F933F934F935F936F937F938F939F9396
:105A4000AF93BF93EF93FF9386EB94E20E941B3ECC
:105A5000FF91EF91BF91AF919F918F917F916F9146
:105A60005F914F913F912F910F900BBE0F9009BE08
:105A70000F9008BE0F900FBE0F901F9018951F92A9
:105A80000F920FB60F9208B60F9209B60F920BB68F
:105A90000F92112418BE19BE1BBE2F933F934F9334
:105AA0005F936F937F938F939F93AF93BF93EF9386
:105AB000FF938AE396E20E941B3EFF91EF91BF9114
:105AC000AF919F918F917F916F915F914F913F9196
:105AD0002F910F900BBE0F9009BE0F9008BE0F9034
