:100000000C9434000C9451000C9451000C94510049
:100010000C9451000C9451000C9451000C9451001C
:100020000C9451000C9451000C9451000C9451000C
:100030000C9451000C9451000C9451000C945100FC
:100040000C94A9090C9451000C9451000C9451008B
:100050000C9451000C9451000C9451000C945100DC
:100060000C94840B0C94510011241FBECFEFD4E0EC
:10007000DEBFCDBF11E0A0E0B1E0E8EAFAE102C0E6
:1000800005900D92AA30B107D9F714E0AAE0B1E0CB
:1000900001C01D92AE3AB107E1F70E9452090C94DB
:1000A000520D0C940000FC0140E01EC09081892F8D
:1000B00082958F709295907F892B282F30E0237343
:1000C0003070220F331F220F331F8695869583735E
:1000D000822B282F30E025753070220F331F869534
:1000E0008575822B81934F5F461700F30895DF9348
:1000F000CF930F92CDB7DEB780919E04E82FF0E04A
:1001000015B888E088B920919E0481E090E002C093
:10011000880F991F2A95E2F78BB930910001313091
:1001200071F4EA58FE4F8081982F9F7395B998B16A
:100130008295869586958370892B88B992C03230D6
:1001400049F520919F04213029F0213018F0223008
:1001500049F404C0EA5AFE4F808103C0EA5AFE4FB8
:100160008085898389818F7385B998B189818295CA
:10017000869586958370892B88B980919E04882303
:1001800009F06FC0822F8F5F80939F04833008F443
:1001900068C065C020919F04333069F5233049F071
:1001A000243038F0253049F0253038F0263069F415
:1001B00008C0EA5AFE4F808107C0EA5AFE4F808588
:1001C00003C0EA5AFE4F8089898389818F7385B97C
:1001D00098B189818295869586958370892B88B997
:1001E00080919E048823E9F5822F8F5F80939F047E
:1001F0008730B8F134C0273069F0283058F02B3000
:1002000069F02C3058F02D3069F02D3058F02E3038
:1002100089F40CC0EA5AFE4F80810BC0EA5AFE4FA7
:10022000808507C0EA5AFE4F808903C0EA5AFE4F14
:10023000808D898389818F7385B998B189818295F1
:10024000869586958370892B88B980919E04882332
:1002500041F4822F8F5F80939F048F3010F01092B3
:100260009F0480919E04882349F480919F048F5FAE
:1002700080939F04831710F010929F0480919E0436
:100280008F5F877080939E040F90CF91DF910895C8
:100290001F93DF93CF930F92CDB7DEB78983162FCD
:1002A000CE01019661E00E945300E6E7F1E0E10F24
:1002B000F11D898180830F90CF91DF911F91089567
:1002C000DF93CF930F92CDB7DEB78983CE0101962E
:1002D00061E00E9453002981922F20FF04C08FEF1C
:1002E0008093760102C01092760191FF04C08FEFD7
:1002F0008093770102C01092770192FF04C08FEFC4
:100300008093780102C01092780193FF04C08FEFB0
:100310008093790102C01092790194FF04C08FEF9D
:1003200080937A0102C010927A0195FF04C08FEF8A
:1003300080937B0102C010927B0196FF04C08FEF77
:1003400080937C0102C010927C0127FF04C08FEFD4
:1003500080937D0102C010927D0181E080930001B5
:100360000F90CF91DF910895CF93DF93EC0163E07D
:100370000E945300888180FF04C08FEF8093560154
:1003800002C010925601888181FF04C08FEF8093D4
:10039000570102C010925701888182FF04C08FEF7D
:1003A0008093580102C010925801888183FF04C0D5
:1003B0008FEF8093590102C010925901888184FF08
:1003C00004C08FEF80935A0102C010925A018881B5
:1003D00085FF04C08FEF80935B0102C010925B0128
:1003E000888186FF04C08FEF80935C0102C0109269
:1003F0005C01888187FF04C08FEF80935D0102C09C
:1004000010925D01898180FF04C08FEF80935E01AF
:1004100002C010925E01898181FF04C08FEF80933A
:100420005F0102C010925F01898182FF04C08FEFDB
:100430008093600102C010926001898183FF04C033
:100440008FEF8093610102C010926101898184FF66
:1004500004C08FEF8093620102C010926201898113
:1004600085FF04C08FEF8093630102C01092630187
:10047000898186FF04C08FEF8093640102C01092CF
:100480006401898187FF04C08FEF8093650102C0FA
:10049000109265018A8180FF04C08FEF809366010E
:1004A00002C0109266018A8181FF04C08FEF8093A1
:1004B000670102C0109267018A8182FF04C08FEF3A
:1004C0008093680102C0109268018A8183FF04C092
:1004D0008FEF8093690102C0109269018A8184FFC5
:1004E00004C08FEF80936A0102C010926A018A8172
:1004F00085FF04C08FEF80936B0102C010926B01E7
:100500008A8186FF04C08FEF80936C0102C0109235
:100510006C018A8187FF04C08FEF80936D0102C058
:1005200010926D01DF91CF910895CF93DF93EC018D
:1005300064E00E945300888180FF04C08FEF8093A5
:10054000560102C010925601888181FF04C08FEFCE
:100550008093570102C010925701888182FF04C026
:100560008FEF8093580102C010925801888183FF59
:1005700004C08FEF8093590102C010925901888105
:1005800084FF04C08FEF80935A0102C010925A0179
:10059000888185FF04C08FEF80935B0102C01092B9
:1005A0005B01888186FF04C08FEF80935C0102C0ED
:1005B00010925C01888187FF04C08FEF80935D01FA
:1005C00002C010925D01898180FF04C08FEF80938B
:1005D0005E0102C010925E01898181FF04C08FEF2D
:1005E00080935F0102C010925F01898182FF04C085
:1005F0008FEF8093600102C010926001898183FFB8
:1006000004C08FEF8093610102C010926101898163
:1006100084FF04C08FEF8093620102C010926201D8
:10062000898185FF04C08FEF8093630102C010921F
:100630006301898186FF04C08FEF8093640102C04B
:1006400010926401898187FF04C08FEF8093650158
:1006500002C0109265018A8180FF04C08FEF8093F1
:10066000660102C0109266018A8181FF04C08FEF8B
:100670008093670102C0109267018A8182FF04C0E3
:100680008FEF8093680102C0109268018A8183FF16
:1006900004C08FEF8093690102C0109269018A81C2
:1006A00084FF04C08FEF80936A0102C010926A0138
:1006B0008A8185FF04C08FEF80936B0102C0109286
:1006C0006B018A8186FF04C08FEF80936C0102C0AA
:1006D00010926C018A8187FF04C08FEF80936D01B7
:1006E00002C010926D018B8180FF04C08FEF809358
:1006F0006E0102C010926E018B8181FF04C08FEFEA
:1007000080936F0102C010926F018B8182FF04C041
:100710008FEF8093700102C0109270018B8183FF74
:1007200004C08FEF8093710102C0109271018B8120
:1007300084FF04C08FEF8093720102C01092720197
:100740008B8185FF04C08FEF8093730102C01092EC
:1007500073018B8186FF04C08FEF8093740102C008
:10076000109274018B8187FF04C08FEF8093750115
:1007700002C010927501DF91CF9108950F931F93DE
:100780008C0168E00E945300F8018081809376011B
:100790008181809377018281809378018381809326
:1007A0007901848180937A01858180937B018681A0
:1007B00080937C01878180937D0181E0809300019B
:1007C0001F910F9108950F931F938C0160E10E9478
:1007D0005300F801808180935601818180935701F5
:1007E0008281809358018381809359018481809311
:1007F0005A01858180935B01868180935C018781AA
:1008000080935D01808580935E01818580935F0187
:1008100082858093600183858093610184858093C4
:100820006201858580936301868580936401878555
:10083000809365011F910F9108950F931F938C0171
:1008400068E10E945300F801808180935601818104
:10085000809357018281809358018381809359014D
:10086000848180935A01858180935B018681809386
:100870005C01878180935D01808580935E01818525
:1008800080935F01828580936001838580936101FD
:10089000848580936201858580936301868580933A
:1008A00064018785809365018089809366018189D1
:1008B00080936701828980936801838980936901AD
:1008C000848980936A01858980936B0186898093EE
:1008D0006C01878980936D011F910F9108950F938B
:1008E0001F938C0160E20E945300F8018081809385
:1008F00056018181809357018281809358018381C1
:1009000080935901848180935A01858180935B0192
:10091000868180935C01878180935D0180858093CF
:100920005E01818580935F0182858093600183856C
:100930008093610184858093620185858093630142
:100940008685809364018785809365018089809383
:100950006601818980936701828980936801838918
:1009600080936901848980936A01858980936B01F2
:10097000868980936C01878980936D01808D809337
:100980006E01818D80936F01828D80937001838DC4
:1009900080937101848D80937201858D80937301A2
:1009A000868D80937401878D809375011F910F91BF
:1009B0000895FB01DC01A258BE4F80818C930895FD
:1009C000DB01FC01EE0FFF1FE80FF91FE258FE4F9D
:1009D0008C91808311968C911197818312968C91C2
:1009E00082830895CF93DF93DB01880F991F880FCF
:1009F000991FEEE7F1E0AF01480F591F2C91EA0172
:100A0000288311962C9111972983E80FF91F1296CC
:100A10008C911297828313968C918B83DF91CF9167
:100A20000895FB0123E0880F991F2A95E1F74EE70F
:100A300051E0BA01680F791F2081DB012C932181DD
:100A400011962C93DA01A80FB91F228112962C93CC
:100A50002381DB0113962C93480F591F8481DA01FF
:100A600014968C938581DB0115968C93159786815E
:100A700016968C931697878117968C930895DB01B1
:100A80009C0154E0220F331F5A95E1F76EE771E0A5
:100A9000260F371F4C91F901408311964C91119705
:100AA0004183F90112964C911297428313964C910F
:100AB0001397438354E0880F991F5A95E1F7F90182
:100AC00014964C911497448315964C911597458331
:100AD00016964C911697468317964C911797478315
:100AE000680F791F18968C911897FB0180871996CB
:100AF0008C911997F90181871A968C911A978287A0
:100B00001B968C911B9783871C968C911C978487CE
:100B10001D968C911D9785871E968C911E978687B2
:100B200050968C9187870895DB019C01220F331F1B
:100B3000280F391FC90163E0880F991F6A95E1F7F3
:100B40006EE771E0860F971F4C91FC014083119670
:100B50004C9111974183FC0112964C91129742835C
:100B600013964C9113974383FC0114964C91149760
:100B7000448315964C911597458316964C9116977C
:100B8000468317964C91179747832F5F3F4FE3E0BB
:100B9000220F331FEA95E1F7620F731F18962C910D
:100BA0001897FB01208319962C911997FC01218736
:100BB0001A962C911A9722871B962C911B972387A4
:100BC0001C962C911C9724871D962C911D97258788
:100BD0001E962C911E9726871F962C911F9727876C
:100BE00050962C915097208B51962C915197218B98
:100BF00052962C915297228B53962C915397238B7C
:100C000054962C915497248B55962C915597258B5F
:100C100056962C915697268B57962C91278B089594
:100C2000DB019C0165E0220F331F6A95E1F76EE757
:100C300071E0260F371F4C91F901408311964C91BA
:100C400011974183F90112964C91129742831396A2
:100C50004C9113974383F90114964C911497448354
:100C600015964C911597458316964C911697468389
:100C700017964C9117974783F5E0880F991FFA95BF
:100C8000E1F7F90118964C911897408719964C9105
:100C9000199741871A964C911A9742871B964C9147
:100CA0001B9743871C964C911C9744871D964C912B
:100CB0001D9745871E964C911E9746871F964C910F
:100CC0001F974787680F791F50968C915097FB01AB
:100CD000808B51968C915197F901818B52968C9112
:100CE0005297828B53968C915397838B54968C9109
:100CF0005497848B55968C915597858B56968C91ED
:100D00005697868B57968C915797878B58968C91D0
:100D10005897808F59968C915997818F5A968C91BC
:100D20005A97828F5B968C915B97838F5C968C91A0
:100D30005C97848F5D968C915D97858F5E968C9184
:100D40005E97868F5F968C91878F0895039665E0F6
:100D500070E00E94EB0C80E090E024E130E040E0A5
:100D600050E00E94C00C20E030E003C000002F5F84
:100D70003F4F26173707D0F308950F931F93CF9354
:100D8000DF938C01C0E0D0E005C088EE93E00E94C4
:100D9000A6062196C017D107C0F3DF91CF911F910E
:100DA0000F910895F89480916000886180936000AD
:100DB00089E0809360000000FECF0F931F93CF93D4
:100DC000DF93082F10E0C0E0D0E0CE018F5F9F4F8F
:100DD0000E943C0D6C2F0E9448012196C430D10521
:100DE000A1F7E801CC0FDD1FCC0FDD1FCF5FDF4F78
:100DF00014E0CE010E943C0D612F0E944801219613
:100E00001F5F1830B1F7DF91CF911F910F910895B7
:100E1000DF92EF92FF920F931F93CF93DF93D090C7
:100E2000A0048D2D64E60E94DF0C292F892F6AE033
:100E30000E94DF0CE92EFF24822F0E94DF0CC82FB6
:100E4000D0E0CC0FDD1FCC0FDD1FCF5FDF4F10E0F8
:100E5000CE010E943C0D00E093E69D1508F401E0F0
:100E6000802B612F0E94480121961F5F143081F76B
:100E7000E701CC0FDD1FCC0FDD1FCF5FDF4FCE01B1
:100E80000E943C0D802B612F0E94480121961F5F1C
:100E90001830A9F7DF91CF911F910F91FF90EF903C
:100EA000DF9008950F931F938C0168E00E94530018
:100EB000C8010E943C0D80937601C80101960E94F2
:100EC0003C0D80937701C80102960E943C0D8093EF
:100ED0007801C80103960E943C0D80937901C801F6
:100EE00004960E943C0D80937A01C80105960E94E9
:100EF0003C0D80937B01C80106960E943C0D8093B7
:100F00007C01C80107960E943C0D80937D011F91D2
:100F10000F910895FF920F931F93DF93CF9300D00B
:100F2000CDB7DEB7F82E8B0188E0F81609F463C15F
:100F30008F15E0F0A4E0FA1609F426C1AF1558F0B9
:100F4000B2E0FB16A9F1BF1508F41AC1E1E0FE16E4
:100F500009F09CC12BC0F6E0FF1609F42EC1FE017A
:100F6000319686E08F1508F433C114C1A8E1FA1652
:100F700009F463C1AF1568F0B0E1FB1609F44AC18A
:100F8000E2E1FE1609F44BC1FAE0FF1609F07EC15A
:100F900036C180E2F81609F460C1A2E2FA1609F43B
:100FA00063C1BAE1FB1609F071C14CC1FB013AC043
:100FB000DB019C91953F28F4903FE8F4992341F0A0
:100FC000B7C09E3F09F48AC09F3F09F0B1C08BC0F3
:100FD000FB016181613059F4F8948091600088616F
:100FE0008093600089E0809360000000FECF623053
:100FF00009F050C197C0DB0111968C9189839F70D5
:101000009A8380910B0190910001813031F59330EA
:1010100069F09430B9F0913009F03CC1E981FA816E
:10102000E258FE4F80810E94600134C129813A81DB
:10103000C901880F991F820F931F82589E4F0E94EB
:10104000B40128C189819A81880F991F880F991F3F
:1010500082589E4F0E9495021DC19230B1F093308C
:1010600020F4913009F016C106C09330D1F09430CD
:1010700009F010C127C089819A8163E0880F991F08
:101080006A95E1F782589E4FB7C089819A8154E0F2
:10109000880F991F5A95E1F782589E4F0E94E303EB
:1010A000F9C029813A81C901880F991F820F931FC6
:1010B00023E0880F991F2A95E1F782589E4F0E94DE
:1010C0001D04E8C089819A8105E0880F991F0A955F
:1010D000E1F782589E4F0E946F04DCC0FB018181C2
:1010E0000E94DD06D7C0809101018823F1F00E94A3
:1010F000BD0C882321F08091A004882321F00E9458
:10110000BD0C882391F4D80111966C916093A004D2
:1011100080E090E00E94440D8091A004880F61E07F
:101120000E94670A0E940807B5C081E390E0B0C042
:101130009051F8018181682F70E07A836983E92FEB
:10114000F0E09230D0F4DF01AA0FBB1FFD01EE5F8B
:10115000FE4F808191816817790778F4AA5FBE4FAE
:101160008D919C91680F791FA3E0660F771FAA9558
:10117000E1F7CB018F589F4F8BC089E390E088C087
:10118000CB010E94B4015CC0CB010E949502F09299
:10119000000180C0DB0111968C9111978983129612
:1011A0008C9112978183E981FA81E258FE4F8C91EC
:1011B000808381E0809300011BC0FB0183818983D0
:1011C00084818A8389819A810E94E00483E00DC032
:1011D000DB0114968C911497898315968C918183E9
:1011E00089819A810E94F20484E08093000181E069
:1011F00080930B014FC0CB010E94BE034BC0FB018B
:101200008085898381858A8389819A810E941105DD
:1012100081E037C0CB010E94E30382E022C0DB0102
:1012200050968C915097898351968C918A838981AD
:101230009A810E943F0582E024C0CB010E941D04D8
:1012400083E00FC0FB01808D8983818D8A83898132
:101250009A810E94940583E014C0CB010E946F0420
:1012600084E08093000116C0DB0190968C919097EA
:10127000898391968C918A8389819A810E94100634
:1012800084E08093000110920B0104C081E490E09F
:101290000E9452070F900F90CF91DF911F910F91F5
:1012A000FF90089580E090E00E943C0D8093A004A0
:1012B0008FE384B9389A399A8FEF8AB93B9A439A67
:1012C00084B7877F84BF80916000886180936000CD
:1012D0001092600085E080939E0410929F0481E04C
:1012E000809300010E949D0987E790E042E050E072
:1012F00060E070E021E00E940D0A0E9408070E9451
:10130000490A80E991E00E94240A8091A004880F94
:1013100061E00E94670A8AE897E00E946F0A80E90C
:1013200091E00E94BD0610920101EEE7F1E01192FA
:1013300084E0EE39F807D9F7FFCFF8941092A404AF
:1013400081E085BDEEE6F0E0808181608083789465
:1013500008951F920F920FB60F9211242F933F936F
:101360004F935F936F937F938F939F93AF93BF93AD
:10137000EF93FF9380916E008E7F80936E0080913B
:10138000A404813099F48091A9049091AA04A091B9
:10139000AB04B091AC040197A109B1098093A904F1
:1013A0009093AA04A093AB04B093AC048091A904D9
:1013B0009091AA04A091AB04B091AC040097A10550
:1013C000B105A9F48091A5049091A604A091A70469
:1013D000B091A8048093A9049093AA04A093AB04AD
:1013E000B093AC04E091A204F091A304099580911C
:1013F0006E00816080936E00FF91EF91BF91AF917D
:101400009F918F917F916F915F914F913F912F911C
:101410000F900FBE0F901F9018959093A304809388
:10142000A2044093A5045093A6046093A70470936C
:10143000A8044093A9045093AA046093AB0470934A
:10144000AC042093A40408952091B9002E7F20932A
:10145000B9002091B9002D7F2093B9009C0140E094
:1014600050E060E27EE480E090E00E94FF0C2051BA
:10147000304040405040CA01B90122E030E040E035
:1014800050E00E94FF0C2A3008F42AE02093B800B4
:10149000089581E08093AD0410925301109252019F
:1014A000109255011092540184E690E00E94240AA3
:1014B000ECEBF0E080818460808310920C018081ED
:1014C000816080838081806480837894089590E037
:1014D000611191E08E7F982B9093BA0008959093BC
:1014E00053018093520108959093550180935401C4
:1014F0000895ECEBF0E080818F70806A808308951E
:10150000ECEBF0E080818F70806D80830895809196
:10151000BC0087FFFCCF08958093BB00ECEBF0E0AC
:1015200080818F70806880830895882329F080915E
:10153000BC008F70806C04C08091BC008F7080688C
:101540008093BC0008958091BB0008958091B900FC
:101550000895982F80910C018823E1F782E0809311
:101560000C019E7F90930D01AEE0B1E0FA0102C044
:1015700081918D938E2F841B8617D0F310922E01AC
:1015800060932F018091BC008F70806A8093BC00B3
:101590000895982F80910C018823E1F783E08093D0
:1015A0000C01916090930D011092500160935101D4
:1015B0008091BC008F70806A8093BC0080910C0188
:1015C0008823E1F7A0E3B1E0FA0102C08D91819395
:1015D0008E2F841B8617D0F30895982FFA018091DF
:1015E000BC008E7F8093BC008091BC008F70806AAD
:1015F0008093BC008091BC0087FFFCCF9E7F9093BE
:10160000BB008091BC008F7080688093BC0080918B
:10161000BC0087FFFCCF8091B900883189F091E050
:1016200012C080818093BB008091BC008F70806865
:101630008093BC008091BC0087FFFCCF3196615045
:10164000662379F790E08091BC008F70806D809365
:10165000BC008091BC0084FFFCCF8091BC00816005
:101660008093BC00892F08951F93CF93DF93982F09
:10167000162FEA018091BC008E7F8093BC00809180
:10168000BC008F70806A8093BC008091BC0087FF93
:10169000FCCF91609093BB008091BC008F708068FC
:1016A0008093BC008091BC0087FFFCCF8091B90083
:1016B000803469F091E018C081E00E94950A809121
:1016C000BC0087FFFCCF8091BB0089931150123082
:1016D00098F780E00E94950A8091BC0087FFFCCFBC
:1016E0008091BB00888390E08091BC008F70806DFA
:1016F0008093BC008091BC0081608093BC00892FE6
:10170000DF91CF911F9108951F920F920FB60F9204
:1017100011242F933F934F935F936F937F938F93F6
:101720009F93AF93BF93EF93FF938091B900887F0E
:10173000803609F49FC0813670F5883209F45FC0A5
:10174000893298F4803109F457C0813138F4882304
:1017500009F4F7C0883009F0FCC04EC0883109F4A4
:101760004EC0803209F0F5C0ECC0803409F477C077
:10177000813438F4803309F4E4C0883309F0E9C0D7
:101780005DC0803509F45FC0883509F44AC08834EB
:1017900009F0DFC0D6C0883909F484C08939B0F4B3
:1017A000883709F467C0893738F4883609F462C08D
:1017B000803709F0CEC05EC0883809F473C0803924
:1017C00009F460C0803809F0C4C05AC0803B09F4F5
:1017D00086C0813B38F4803A09F46AC0883A09F03F
:1017E000B8C07DC0803C09F4A7C0883C09F4A4C0FF
:1017F000883B09F0AEC084C080910D010FC090916C
:101800002E0180912F01981708F09BC0E92FF0E07E
:10181000E25FFE4F80819F5F90932E018093BB001B
:1018200084C0809150019091BB00E82FF0E0E05D12
:10183000FE4F90838F5F8093500183C08091BC00E6
:101840008F70806882C0809150019091BB00E82F1A
:10185000F0E0E05DFE4F90838F5F80935001209118
:10186000500130E08091510190E00197281739072D
:10187000DCF416C085E080930C011092500150C03A
:101880001092AD04809150019091BB00E82FF0E0E0
:10189000E05DFE4F90838F5F80935001803220F493
:1018A00081E003C01092AD0480E00E94950A51C00F
:1018B0008091BC008F70806C8093BC00E0915201DD
:1018C000F0915301309729F08091500160E371E06D
:1018D000099510920C0181E08093AD043AC084E038
:1018E00080930C01E0915401F0915501309731F053
:1018F00080E26EE071E0099580932F0110922E0135
:1019000090912E01E92FF0E0E25FFE4F80818093FD
:10191000BB009F5F90932E0180912F01981728F4B0
:101920008091BC008F70806C04C08091BC008F706F
:1019300080688093BC000DC08091BC008F70806C6B
:1019400004C08091BC008F70806D8093BC001092A9
:101950000C01FF91EF91BF91AF919F918F917F917A
:101960006F915F914F913F912F910F900FBE0F900C
:101970001F90189580910C0108958091AD040895F1
:10198000629FD001739FF001829FE00DF11D649F63
:10199000E00DF11D929FF00D839FF00D749FF00DEF
:1019A000659FF00D9927729FB00DE11DF91F639F90
:1019B000B00DE11DF91FBD01CF0111240895991B40
:1019C00079E004C0991F961708F0961B881F7A9536
:1019D000C9F780950895AA1BBB1B51E107C0AA1F38
:1019E000BB1FA617B70710F0A61BB70B881F991FC0
:1019F0005A95A9F780959095BC01CD01089597FB64
:101A0000092E05260ED057FD04D014D00AD0001C94
:101A100038F450954095309521953F4F4F4F5F4F8B
:101A20000895F6F790958095709561957F4F8F4F4B
:101A30009F4F0895A1E21A2EAA1BBB1BFD010DC0EA
:101A4000AA1FBB1FEE1FFF1FA217B307E407F5076E
:101A500020F0A21BB30BE40BF50B661F771F881F4A
:101A6000991F1A9469F760957095809590959B01E0
:101A7000AC01BD01CF010895F999FECF92BD81BDA2
:101A8000F89A992780B50895262FF999FECF1FBAA5
:101A900092BD81BD20BD0FB6F894FA9AF99A0FBE97
:081AA00001960895F894FFCFB0
:0A1AA8000101040008000000040022
:103800000C94341C0C94511C0C94511C0C94511CA1
:103810000C94511C0C94511C0C94511C0C94511C74
:103820000C94511C0C94511C0C94511C0C94511C64
:103830000C94511C0C94511C0C94511C0C94511C54
:103840000C94511C0C94511C0C94511C0C94511C44
:103850000C94511C0C94511C0C94511C0C94511C34
:103860000C94511C0C94511C11241FBECFEFD4E0BA
:10387000DEBFCDBF11E0A6E0B1E001C01D92A831CE
:10388000B107E1F711E0A0E0B1E0E6E8FFE302C034
:1038900005900D92A630B107D9F70E949B1D0C949C
:1038A000C11F0C94001C80911301873609F04BC096
:1038B00080911201853401F58091110180930E01F0
:1038C00020E015C0809108019091090181BD92BD51
:1038D00001969093090180930801F89A80B5E091D0
:1038E0000F01F0911001E20FF11D80832F5F809195
:1038F0001101281738F308958634A9F58091110134
:10390000880F80930E0140E013C0A0910F01B09189
:103910001001A20FB31FE0910801F0910901319647
:10392000F0930901E09308013197E491EC934F5F24
:10393000242F30E08091110190E0880F991F281703
:1039400039071CF3089580E090E0E0910F01F091B9
:103950001001E80FF91F8083019685389105A9F7BA
:1039600085E880930E010895882311F084EC01C04E
:1039700084E88093BC00089584ED8093BC0080911E
:10398000BC0084FDFCCF089584EC8093BC000895B6
:103990000F931F93CF93DF938C01AB01FC018081C8
:1039A00080931301853431F4E0910601F091070111
:1039B0000995BCC0853681F4E0E0F0E083E08093B7
:1039C0005700E89507B600FCFDCFE058FF4F98E39D
:1039D000E030F907A1F7AAC0873601F51092090176
:1039E0001092080180E88093110186E4809312010F
:1039F000653071050CF49AC0F801918180E0228154
:103A000030E0822B932B90930901809308018381EE
:103A10008093110184818093120188C0823409F05F
:103A200085C0F801918180E02281A22FB0E0A82B0F
:103A3000B92BB0930901A0930801838180931101F0
:103A4000248120931201253451F59B0124503040EC
:103A500090E08217930714F060931101C5E0D0E065
:103A600016C0F801EC0FFD1F80910801909109012B
:103A700060810E94B31FF999FECF80910801909157
:103A80000901019690930901809308012196809184
:103A9000110190E00596C817D90718F347C02634DE
:103AA00009F044C0682F70E0660F771FCB010496C1
:103AB000841795070CF03AC0CD018F779070860F70
:103AC000971F8138910508F031C0F8E3A030BF0797
:103AD00068F5E80140E050E011E010C0FA01EA0F9B
:103AE000FB1F3C8120E08B8190E0822B932B0C010B
:103AF00010935700E89511244E5F5F4F22964617AA
:103B0000570760F383E0FD0180935700E89507B6FF
:103B100000FCFDCF85E0FD0180935700E89507B6D6
:103B200000FCFDCF81E180935700E895DF91CF91B4
:103B30001F910F910895EF92FF920F931F9384B7F7
:103B4000877F84BF809160008861809360001092BD
:103B5000600081E18093B80080EE8093BA0084EC2D
:103B60008093BC0085E890E061E070E00E948B1ECD
:103B700080930F019093100185E890E061E070E080
:103B80000E948B1E80930A0190930B01A0E8EA2EFD
:103B9000A4E8FA2EAEE10A2F112D0FC0E114F104B2
:103BA0000105110529F4E0910601F091070109953D
:103BB0000894E108F108010911098091BC0087FF10
:103BC000EDCF04E814ECEE24E394F4EDFF2E8091A5
:103BD000BC0087FFFCCF8091B90090E0887F907097
:103BE0008039910509F44AC081399105ECF4803798
:103BF000910509F440C08137910554F48036910550
:103C0000D1F188369105B9F1892B09F47AC080C0C9
:103C10008038910599F18838910509F46FC088378B
:103C2000910509F075C027C0803B910509F443C098
:103C3000813B91055CF4803A910589F1883A9105C0
:103C4000D1F18839910509F063C058C0803C9105D5
:103C500009F45EC0813C91052CF4883B910509F084
:103C600057C03AC0883C910509F452C0883F91057D
:103C700009F04EC0ACCF10920D014AC090910D01D9
:103C80009538E0F58091BB00E0910A01F0910B01BD
:103C9000E90FF11D80839F5F90930D0139C0109350
:103CA000BC0060910D0180910A0190910B0170E0C0
:103CB0000E94C81C8CCF10920C0110920E010E9421
:103CC000531C80910E01882339F4E0920E01E0919B
:103CD0000F01F0911001108290910C01E0910F0101
:103CE000F0911001E90FF11D80818093BB009F5F6F
:103CF00090930C0180910E01981750F00093BC0036
:103D000066CFF092BC008091BC0084FDFCCF5FCFF9
:103D10001093BC005CCF0F931F93CF93DF93689FEA
:103D20008001699F100D789F100D1124C8010E9419
:103D3000A71EEC01009729F060E070E0A8010E9446
:103D4000AC1FCE01DF91CF911F910F910895CF93BA
:103D5000DF93BC018230910510F462E070E0A09125
:103D60001601B0911701ED01E0E0F0E040E050E015
:103D700021C0888199818617970769F48A819B8180
:103D8000309719F09383828304C090931701809336
:103D90001601FE0134C06817790738F44115510542
:103DA00019F08417950708F4AC01FE018A819B8104
:103DB0009C01E9012097E9F641155105A9F1CA01D5
:103DC000861B970B049708F4BA01E0E0F0E02AC0E4
:103DD0008D919C91119784179507F9F464177507D5
:103DE00081F412968D919C911397309719F09383DB
:103DF000828304C09093170180931601FD013296CF
:103E00004FC0CA01861B970BFD01E80FF91F619394
:103E1000719302978D939C9343C0FD01828193819E
:103E20009C01D9011097A1F6809114019091150180
:103E3000892B41F480910201909103019093150127
:103E400080931401409104015091050141155105E1
:103E500041F44DB75EB78091000190910101481B7C
:103E6000590B209114013091150124173507B0F436
:103E7000CA01821B930B8617970780F0AB014E5F38
:103E80005F4F8417950750F0420F531F5093150151
:103E900040931401F9016193719302C0E0E0F0E0F6
:103EA000CF01DF91CF910895CF93DF93009709F46D
:103EB00050C0EC0122971B821A82A0911601B0918A
:103EC0001701109709F140E050E0AC17BD0708F169
:103ED000BB83AA83FE0121913191E20FF31FAE173C
:103EE000BF0779F48D919C911197280F391F2E5F90
:103EF0003F4F3983288312968D919C9113979B8312
:103F00008A834115510571F4D0931701C0931601AE
:103F100020C012968D919C911397AD01009711F0DE
:103F2000DC01D3CFFA01D383C28321913191E20F17
:103F3000F31FCE17DF0769F488819981280F391F95
:103F40002E5F3F4FFA01318320838A819B819383C7
:103F50008283DF91CF910895DC0101C06D934150C0
:103F60005040E0F70895262FF999FECF1FBA92BD71
:103F700081BD20BD0FB6F894FA9AF99A0FBE01964A
:063F80000895F894FFCF44
:063F8600200018010000FC
:0400000300003800C1
:00000001FF
