:100000000C944C0A0C94720A0C94720A0C94720AA6
:100010000C94720A0C94720A0C94720A0C94720A70
:100020000C94720A0C94720A0C94720A0C94720A60
:100030000C94720A0C94212A0C94720A0C94720A81
:100040000C94720A0C94720A0C94720A0C94720A40
:100050000C94720A0C94720A0C94720A0C94720A30
:100060000C94720A0C94DC370C942C380C94720AA1
:100070000C94720A0C94720A0C94720A0C94720A10
:100080000C94720A0C94720A0C94720A0C94720A00
:100090000C94720A0C94720A0C94720A0C94720AF0
:1000A0000C94720A0C94720A0C94720A0C94720AE0
:1000B0000C94720A0C94720A0C94B7290C94A1380F
:1000C0000C94720A0C94720A0C94720A0C94720AC0
:1000D0000C94720A0C94924A0C94720A0C94720A50
:1000E0000C94720A0C94720A0C94720A0C94720AA0
:1000F0000C94720A0C94720A0C94720A0C94720A90
:100100000C94720A0C94720A0C94720A0C94720A7F
:100110000C94720A0C94720A0C94720A0C94720A6F
:100120000C94720A0C94720A0C94720A0C94720A5F
:100130000C94EC290C94720A0C94720A0C94720AB6
:100140000C94720A0C94720A0C94720A0C94720A3F
:100150000C94720A0C94720A0C94720A0C94720A2F
:100160000C94720A0C94720A0C94720A0C94720A1F
:100170000C94720A0C94720A0C94720A0C94720A0F
:100180000C94720A0C94720A0C94720A0C94720AFF
:100190000C94850A0C94720A0C94720A0C94720ADC
:1001A0000C94720A0C94720A0C94720A0C948229B0
:1001B0000C94E24A0C94720A0C94720A0C94720A1F
:1001C0000C94720A0C94720A0C94720A0C94720ABF
:1001D0000C94720A0C94720A0C94720A0C94720AAF
:1001E0000C94720A0C94720A0C94720A0C94720A9F
:1001F0000C94720ACD22D222D722DB22DF22E32204
:10020000EC22F022F42211231123112311231123B4
:100210001123F8220D23E248F64866496C49DF486D
:10022000DF48DF48DF48DF48DF48074A0C4A0E4A0C
:100230001C4A3B4A494E54332063617463686573BA
:10024000206120726973696E672065646765207438
:10025000726967676572210A004572726F72206663
:100260005F6F70656E20696E205344496E666F2E15
:100270006D61742E0A004572726F7220665F6C7336
:1002800065656B20696E2072656D61696E656420BD
:10029000646174612E0A004572726F7220665F6C31
:1002A0007365656B20696E205344496E666F2E6DD1
:1002B00061742E0A004572726F7220696E20665F4B
:1002C0006C7365656B20696E2066657463685F7525
:1002D00070646174655F66756E63590A0072657358
:1002E000203D202025750A004572726F7220696ECC
:1002F00020665F7265616420696E20696E206665A4
:100300007463685F7570646174655F66756E635968
:100310000A00726573203D202025750A0052696E1F
:1003200067206275666665722066756E6374696FB4
:100330006E5F592069732066756C6C0A0052696E95
:1003400067206275666665722066756E6374696F94
:100350006E5F5920697320656D7074790A0045726B
:10036000726F7220696E20665F6C7365656B2069C1
:100370006E2066657463685F7570646174655F663E
:10038000756E63580A00726573203D202025750A3A
:10039000004572726F7220696E20665F72656164DB
:1003A00020696E20696E2066657463685F7570648D
:1003B0006174655F66756E63580A00726573203DEF
:1003C000202025750A0052696E6720627566666591
:1003D000722066756E6374696F6E5F782069732032
:1003E00066756C6C0A0052696E6720627566666598
:1003F000722066756E6374696F6E5F782069732012
:10040000656D7074790A004572726F7220696E7042
:10041000757420666F722066756E6374696F6E20E6
:100420006368616E6E656C2E0A006E756D5F627535
:10043000666665725F6C6F61645F79203D2025752B
:100440000A006E756D5F6275666665725F6C6F61DE
:10045000645F79203D2025750A006C6173745F6CC0
:100460006F61645F79203D2025750A0066756E63B3
:1004700053697A655F79203D2025750A00457272BF
:100480006F7220665F6F70656E20696E2073657491
:100490005F76656C5F66756E6320592E0A00457243
:1004A000726F7220665F7265616420696E20736589
:1004B000745F76656C5F66756E6320592E0A005313
:1004C000657474696E672076656C6F6369747920F2
:1004D00066756E6374696F6E20257520666F722075
:1004E000590A006E756D5F6275666665725F6C6F46
:1004F00061645F78203D2025750A006E756D5F622E
:1005000075666665725F6C6F61645F78203D20255B
:10051000750A006C6173745F6C6F61645F78203D75
:100520002025750A0066756E6353697A655F7820C9
:100530003D2025750A004572726F7220665F6F70EC
:10054000656E20696E207365745F76656C5F667595
:100550006E6320582E0A004572726F7220665F72B9
:1005600065616420696E207365745F76656C5F6693
:10057000756E6320582E0A0053657474696E672087
:1005800076656C6F636974792066756E6374696FE4
:100590006E2020257520666F7220580A0045727201
:1005A0006F7220696E70757420666F722066756E4A
:1005B0006374696F6E206368616E6E656C2E0A00ED
:1005C0006E756D5F6275666665725F6C6F61645FA4
:1005D00079203D2025750A006E756D5F627566662F
:1005E00065725F6C6F61645F79203D2025750A003C
:1005F0006C6173745F6C6F61645F79203D20257559
:10060000200A0066756E6353697A655F79203D2024
:1006100025750A004572726F7220665F6F70656E95
:1006200020696E207365745F706F735F66756E63AB
:1006300020592E0A004572726F7220665F726561E2
:1006400064207365745F706F735F66756E632059A5
:100650002E0A0053657474696E6720706F73697435
:10066000696F6E2066756E6374696F6E20257520E4
:10067000666F7220590A006E756D5F6275666665F9
:10068000725F6C6F61645F78203D2025750A006E93
:10069000756D5F6275666665725F6C6F61645F78C9
:1006A000203D2025750A006C6173745F6C6F616476
:1006B0005F78203D2025750A0066756E6353697A60
:1006C000655F78203D2025750A004572726F7220A3
:1006D000665F6F70656E20696E207365745F706F02
:1006E000735F66756E6320582E0A004572726F72D2
:1006F00020665F72656164207365745F706F735FFD
:1007000066756E6320580A0053657474696E6720BD
:10071000706F736974696F6E2066756E6374696F4C
:100720006E20257520666F7220580A0057726F6E12
:10073000672066756E6374696F6E206368616E6EA4
:10074000656C206E756D6265722E0A005365747457
:10075000696E672064656661756C742066756E638A
:1007600074696F6E20666F7220592E0A005365748B
:1007700074696E672064656661756C742066756E59
:100780006374696F6E20666F7220582E0A002062B3
:10079000656E63685F74696D65203D20256C75200A
:1007A0006D732C206672616D655F72617465203DAA
:1007B0002025750A0043616E6E6F742066696E6451
:1007C0002074686520686172647761726520636F68
:1007D0006E6669672066696C65206F6E2074686557
:1007E00020534420636172642E0A0053756363656D
:1007F000737366756C6C79206C6F616420746865C6
:1008000020686172647761726520636F6E666967E4
:100810002066696C6520746F20454550524F4D0A23
:10082000004572726F72206F70656E696E6720701E
:1008300061747465726E2066696C650A0045727237
:100840006F722072656164696E6720696E207061E5
:10085000747465726E2066696C650A002020785F8A
:100860006E756D203D2025750A2020795F6E756DAF
:10087000203D2025750A20206E756D5F70616E65C4
:100880006C73203D2025750A202067735F76616CAC
:100890007565203D2025750A20726F775F636F6D47
:1008A0007072657373696F6E203D2025750A005361
:1008B000657474696E67207061747465726E20254A
:1008C000753A0A005375636365737366756C6C796A
:1008D000206C6F6164207061747465726E20257580
:1008E00020746F207468652070616E656C730A00F7
:1008F0004572726F72206F70656E696E67207061ED
:10090000747465726E2066696C650A004572726F58
:10091000722072656164696E6720696E207061740F
:100920007465726E2066696C650A004661696C6563
:100930006420746F206C6F61642074686973205048
:1009400061747465726E20746F2050616E656C7393
:100950000A0054686973207061747465726E207344
:10096000697A6520697320256C750A00506174747A
:1009700065726E2073697A65206973207570746F73
:100980002038303020627974652070657220706183
:100990006E656C2E0A00524553203D2025752C2093
:1009A000665F6E756D3D2025752C206F66667365DC
:1009B00074203D20256C750A004572726F722069A3
:1009C0006E20665F6C7365656B20696E206C6F616D
:1009D000645061747465726E3250616E656C73211F
:1009E0000A00524553203D2025752C20665F6E7508
:1009F0006D3D2025752C20636E743D2025750A0001
:100A00004572726F7220696E20665F726561642044
:100A1000696E206C6F61645061747465726E3250DF
:100A2000616E656C73210A00202062797465735FC2
:100A30007065725F70616E656C5F6672616D652076
:100A40003D2025750A202062797465735F70657298
:100A50005F70616E656C5F7061747465726E203D6D
:100A60002025750A002020785F6E756D203D2025B9
:100A7000750A2020795F6E756D203D2025750A204E
:100A8000206E756D5F70616E656C73203D202575FD
:100A90000A202067735F76616C7565203D2025759F
:100AA0000A20726F775F636F6D7072657373696F21
:100AB0006E203D2025750A007072656C6F616420A0
:100AC0007061747465726E2025753A0A0052455340
:100AD000203D2025752C20665F6E756D3D202575A7
:100AE0002C206F6666736574203D20256C750A00A6
:100AF0004572726F7220696E20665F6C7365656BFC
:100B000020696E2066657463685F646973706C61E8
:100B1000795F6672616D65210A00524553203D2060
:100B200025752C20665F6E756D3D2025752C206324
:100B30006E743D2025750A004572726F7220696ED1
:100B400020665F7265616420696E20666574636803
:100B50005F646973706C61795F6672616D65210AAB
:100B600000537563636573732073657420746865DF
:100B7000206E6577206C6173657220706174746596
:100B8000726E2E0A007365745F6761696E5F6269D9
:100B900061733A206761696E5F783D2025642C207F
:100BA00020626961735F783D2025642C206761694C
:100BB0006E5F793D2025642C20626961735F793D09
:100BC00025640A007365745F706F736974696F6E72
:100BD0003A20696E6465785F783D2025752C202069
:100BE000696E6465785F793D2025752C20616E649F
:100BF000206672616D655F6E756D3D2025750A001A
:100C000066756E6374696F6E2059207570646174C7
:100C100065206672657175656E6379203D20257566
:100C20002E0A0066756E6374696F6E2058207570A9
:100C300064617465206672657175656E6379203DC7
:100C40002025752E0A004144435F76616C7565204E
:100C50003D202025643A0A007265736F6C757469D3
:100C60006F6E5F79203D202025643A0A007265731B
:100C70006F6C7574696F6E5F78203D202025643A33
:100C80000A0044697361626C656420496E743320A4
:100C900065787465726E616C2074726967676572DD
:100CA000206D6F6465210A00456E61626C65642089
:100CB000496E74332065787465726E616C2074724D
:100CC0006967676572206D6F6465206973206F6E58
:100CD000210A00526573657420636F6E74726F6CC5
:100CE0006C657220746F20776F726B20696E207450
:100CF00068652050432064756D70696E67206D6F64
:100D00006465210A00526573657420636F6E7472A6
:100D10006F6C6C657220746F20776F726B20696ED8
:100D20002074686520636F6E74726F6C6C657220DE
:100D30006D6F6465210A007570646174653A2025E1
:100D400064202564202564202564202564202564F2
:100D50002025642025643A0A0043757272656E741A
:100D60002076657273696F6E206E756D6265722094
:100D700069732025732E0A0043757272656E7420A4
:100D8000776F726B696E67206D6F64652069732081
:100D90007468652050432064756D70696E67206DBE
:100DA0006F6465210A0043757272656E7420776FF7
:100DB000726B696E67206D6F64652069732074685B
:100DC0006520436F6E74726F6C6C6572206D6F641A
:100DD00065210A003F3F3F0A00204E4F54205245F4
:100DE000414459210A002057524954452050524F3E
:100DF000544543544544210A00204552524F522144
:100E00000A0020464154204F4B210A00496E697464
:100E100069616C697A696E67204641542044697340
:100E20006B2E2E2E003F3F3F0A00534448430A00DA
:100E3000424C4B0A005344430A005344320A0053C5
:100E4000440A004D4D430A00436172642074797076
:100E5000653A2000534420636172642069732069FD
:100E60006E697469616C697A65640A00496E6974B7
:100E700069616C697A6174696F6E206661696C651D
:100E8000642121210A005344206361726420697344
:100E90002057726974652050726F7465637465645D
:100EA000210A00496E736572742053442063617295
:100EB00064000A4D61696E20436F6E74726F6C6CD2
:100EC000657220576F726B730A0043616E6E6F74A8
:100ED0002066696E64207468652070616E656C20A0
:100EE00025642E0A00426164206578697420636D70
:100EF000642C20726573756C74203D2025750A0082
:100F0000646F6E2774206B6E6F7720686F77207424
:100F10006F206465616C2077697468207265637402
:100F20007970653D2564206174206C696E652025AB
:100F300064206F6620656570726F6D2E6865780A33
:100F4000000A00766572696679206D69736D617457
:100F5000636820666F7220706167652025640A00EF
:100F6000766572696679206D69736D617463682056
:100F7000666F7220706167652025640A006368658A
:100F8000636B73756D3D3078253032782C20636F3C
:100F90006D707574656420636865636B73756D3D12
:100FA0003078253032780A004552524F523A206349
:100FB0006865636B73756D206D69736D61746368CB
:100FC000206174206C696E65202564206F66206541
:100FD0006570726F6D2E6865780A000A76657269B1
:100FE0006679696E673A20004572726F7220665F9B
:100FF0006C7365656B20696E20656570726F6D2E10
:101000006865782E0A00646F6E2774206B6E6F77A8
:1010100020686F7720746F206465616C2077697435
:101020006820726563747970653D25642061742061
:101030006C696E65202564206F6620656570726F2F
:101040006D2E6865782E0A00636865636B73756D35
:101050003D3078253032782C20636F6D7075746563
:101060006420636865636B73756D3D30782530323D
:10107000780A004552524F523A20636865636B7399
:10108000756D206D69736D61746368206174206C87
:10109000696E65202564206F6620656570726F6DCE
:1010A0002E6865782E0A000A77726974696E673A4D
:1010B000202020004261642070616E656C207265A2
:1010C0007365742C20726573756C74203D202575D2
:1010D0000A00656570726F6D2070616E656C202509
:1010E000752E0A004572726F7220665F6F70656EB2
:1010F00020696E20656570726F6D2E6865782E0AA6
:101100000025530A004F4B004449534B5F45525250
:1011100000494E545F455252004E4F545F52454174
:101120004459004E4F5F46494C45004E4F5F504179
:10113000544800494E56414C49445F4E414D45008C
:1011400044454E49454400455849535400494E567C
:10115000414C49445F4F424A454354005752495419
:10116000455F50524F54454354454400494E564103
:101170004C49445F4452495645004E4F545F454EDA
:1011800041424C4544004E4F5F46494C455F5359E0
:101190005354454D004D4B46535F41424F525445C9
:1011A000440054494D454F5554000043616E6E6FE5
:1011B000742066696E64207468652070616E656C69
:1011C0002025642E0A0042616420657869742063DA
:1011D0006D642C20726573756C74203D2025750A32
:1011E00000646F6E2774206B6E6F7720686F7720B6
:1011F000746F206465616C20776974682072656320
:10120000747970653D2564206174206C696E652079
:101210002564206F662070616E656C2E6865780AA3
:10122000000A00766572696679206D69736D617474
:10123000636820666F7220706167652025640A000C
:10124000766572696679206D69736D617463682073
:10125000666F7220706167652025640A00636865A7
:10126000636B73756D3D3078253032782C20636F59
:101270006D707574656420636865636B73756D3D2F
:101280003078253032780A004552524F523A206366
:101290006865636B73756D206D69736D61746368E8
:1012A000206174206C696E65202564206F66207053
:1012B000616E656C2E6865780A000A7665726966EB
:1012C00079696E673A20004572726F7220665F6CB2
:1012D0007365656B20696E2070616E656C2E686544
:1012E000782E0A00646F6E2774206B6E6F7720680B
:1012F0006F7720746F206465616C20776974682053
:10130000726563747970653D2564206174206C6931
:101310006E65202564206F662070616E656C2E6896
:1013200065780A00636865636B73756D3D30782579
:101330003032782C20636F6D70757465642063683B
:1013400065636B73756D3D3078253032780A0045E2
:1013500052524F523A20636865636B73756D206D0E
:1013600069736D61746368206174206C696E6520B7
:101370002564206F662070616E656C2E6865782E1E
:101380000A000A77726974696E673A202020004269
:1013900061642070616E656C2072657365742C20C9
:1013A000726573756C74203D2025750A00666C614A
:1013B00073682070616E656C2025752E0A00457279
:1013C000726F7220665F6F70656E20696E2070614B
:1013D0006E656C2E6865782E0A0042616420666C2A
:1013E00061736820726561642C20726573756C741A
:1013F000203D2025750A00230042616420666C614F
:10140000736820726561642C20726573756C74203A
:101410003D2025750A0023004261642065657072D5
:101420006F6D2077726974652C20726573756C74AA
:10143000203D2025750A00230042616420666C610E
:10144000736820726561642C20726573756C7420FA
:101450003D2025750A00230042616420666C61739B
:101460006820726561642C20726573756C74203D10
:101470002025750A00230042616420666C61736850
:101480002077726974652C20726573756C74203DC9
:101490002025750A0023000011241FBECFEFDFE3D3
:1014A000DEBFCDBF00E00CBF18BE19BE1ABE1BBE0A
:1014B00013E2A0E0B0E2E2EDF6EA00E00BBF02C00A
:1014C00007900D92AA3FB107D9F71BBE1BE2AAEF06
:1014D000B3E201C01D92A830B107E1F70E94F926DE
:1014E0000C9467530C940000AC0120E030E0F9014B
:1014F000E056FA4DDA01A20FB31F8C9180832F5F63
:101500003F4F2E33310599F708951F920F920FB672
:101510000F9208B60F9209B60F920BB60F921124D4
:1015200018BE19BE1BBE0F932F933F934F935F932B
:101530006F937F938F939F93AF93BF93EF93FF939B
:10154000109202241092032410929C201092FA23ED
:1015500088EF9BE14EE350E060E070E021E001E0C5
:101560000E94223984E396E14EE350E060E070E0AF
:1015700022E000E00E94223981EC95E14EE350E048
:1015800060E070E023E00E9422394091A320509156
:10159000A42060E070E080EC93E124E001E00E9490
:1015A00022394091A5205091A62060E070E08DEB9B
:1015B00092E125E00E94223984E392E00E94884C67
:1015C000FF91EF91BF91AF919F918F917F916F911B
:1015D0005F914F913F912F910F910F900BBE0F9004
:1015E00009BE0F9008BE0F900FBE0F901F90189568
:1015F000813031F090910A24823009F063C032C00A
:1016000080910A24882321F48DE697E00E94884C7B
:1016100010920B2410920C2484E690E0A0E0B0E03D
:101620008093A9209093AA20A093AB20B093AC20E4
:10163000E7E2F7E28AE090E08193919327E2EF3EC0
:10164000F207D1F71092022481E08093A12081E07B
:1016500090E08093B1209093B22010920F241092CA
:1016600010240895992321F48CE497E00E94884C7B
:1016700010920D2410920E2484E690E0A0E0B0E0D9
:101680008093AD209093AE20A093AF20B093B02074
:10169000E7ECF4E28AE090E08193919325E2EF3861
:1016A000F207D1F71092032481E08093A22081E019
:1016B00090E08093B3209093B42010921124109264
:1016C00012240895992321F48CE297E00E94884C1B
:1016D0000895AC0120E030E0F901E056FA4DDA015E
:1016E000A20FB31F8C9186AF2F5F3F4F2F33310571
:1016F00099F780910A24882321F481E69BE00E94D7
:10170000884C0895A4E3B0E0E8E8FBE00C94074EB1
:101710008BE097E265EB70E241E00E94094188238B
:1017200009F0B5C08090152770911627682D80911B
:1017300017279091182722E330E040E050E00E9404
:10174000C94D79018A019924939422E3322E93E0C2
:10175000692E712C6C0E7D1E2E010894411C511CAB
:101760003AC0939CC0011124C2975C01CC24B7FC01
:10177000C094DC2C8BE097E2B601A5010E94A93C45
:10178000882301F58091112790911227A0911327AA
:10179000B09114278A159B05AC05BD0599F48BE023
:1017A00097E2B30142E350E092010E941B3F88237D
:1017B00089F489819A81C29769F4C30162E30E9426
:1017C000C03708C080910A24882321F487E992E079
:1017D0000E94884C9394892D90E0A0E0B0E0E81638
:1017E000F9060A071B0708F0BCCF82E3989EC001E8
:1017F0001124C2975C01CC24B7FCC094DC2C8BE094
:1018000097E2B601A5010E94A93C882399F5809131
:10181000112790911227A0911327B09114278A15B0
:101820009B05AC05BD0531F5C801B70122E330E0E9
:1018300040E050E00E94834DD82CD61A0D2D10E0C8
:1018400083E0E82EF12CEC0EFD1E8BE097E2B70151
:10185000A8019E012F5F3F4F0E941B3F882391F4F8
:1018600089819A818017910769F4C7016D2D0E94C3
:10187000C03708C080910A24882321F486E792E0CB
:101880000E94884C8BE097E20E94613B08C08091E7
:101890000A24882321F489E592E00E94884CE4968A
:1018A000E1E10C94234EA6E6B0E0E9E5FCE00C94FF
:1018B000114E982FD62E8091072487FF03C08DE10B
:1018C00093E0B6C0913031F41092072410920324B3
:1018D0001092052484E6D89EC001112480509E4FAA
:1018E0007C0100E010E08FE196E2B801A7010E94C0
:1018F000A93C282F882309F080C08091252690914B
:101900002626A0912726B09128268E159F05A00790
:10191000B10709F072C02D2D30E08091B320909175
:10192000B42001972817390739F400911124109138
:1019300012240115110511F404E610E08FE196E27E
:10194000BE016D5F7F4FA8019E012F5F3F4F0E9438
:101950001B3F282F882329F489819A8180179107BA
:10196000E9F080910A248823C9F400D00F92EDB7E2
:10197000FEB7319682E193E0ADB7BEB711968D9375
:101980009C931297228313820E94CA4C0F900F904F
:101990000F900F9088EE92E00E94884C69817A81C6
:1019A000DE01139640E050E024C0E0910524F0E011
:1019B000EE0FFF1FE953FB4D11963C91119720E06C
:1019C0008C918901080F111D0083118380910524DA
:1019D0008F5F809305248091052487FF02C01092B9
:1019E0000524809107248F5F809307244E5F5F4F0B
:1019F000129646175707C8F21DC080910A24882303
:101A0000C9F400D00F92EDB7FEB731968DED92E09C
:101A1000ADB7BEB711968D939C9312972283138214
:101A20000E94CA4C0F900F900F900F9085EB92E0A0
:101A30000E94884CCA59DF4FE7E00C942D4EA2E07B
:101A4000B2E0E5E2FDE00C94104E982F8091062460
:101A500087FF03C086EC93E0BFC0913031F4109251
:101A600002241092042410920624262F30E0809144
:101A7000B1209091B22001972817390739F4C0900E
:101A80000F24D0901024C114D10419F404E6C02E00
:101A9000D12C84E6689FC001112480509E4F7C01A8
:101AA00000E010E089E994E2B801A7010E94A93C96
:101AB000282F882309F075C080919F249091A0243D
:101AC000A091A124B091A2248E159F05A007B10773
:101AD00009F067C080E061E00E94002B89E994E290
:101AE000BE016D5F7F4FA6019E012F5F3F4F0E9499
:101AF0001B3F282F882329F489819A818C159D0505
:101B0000E9F080910A248823C9F400D00F92EDB740
:101B1000FEB731968BEB93E0ADB7BEB711968D93C0
:101B20009C931297228313820E94CA4C0F900F90AD
:101B30000F900F9081E993E00E94884C80E060E074
:101B40000E94002B69817A81DE01139640E050E00B
:101B500024C0E0910424F0E0EE0FFF1FE95DF84D92
:101B600011963C91119720E08C918901080F111D6D
:101B700000831183809104248F5F809304248091DB
:101B8000042487FF02C010920424809106248F5FF2
:101B9000809306244E5F5F4F129646175707C8F290
:101BA0001DC080910A248823C9F400D00F92EDB79C
:101BB000FEB7319686E893E0ADB7BEB711968D9328
:101BC0009C931297228313820E94CA4C0F900F900D
:101BD0000F900F908EE593E00E94884CCE5FDD4F12
:101BE000E8E00C942C4EAEE0B2E0E9EFFDE00C949E
:101BF000144E082F162F6A3080F400D000D0EDB7B5
:101C0000FEB73196CE010396ADB7BEB711968D9350
:101C10009C93129780E090E21FC0CE010396643639
:101C200070F400D000D0EDB7FEB73196ADB7BEB7B7
:101C300011968D939C9312978EE090E20DC000D088
:101C400000D0EDB7FEB73196ADB7BEB711968D9304
:101C50009C9312978BE190E2828393831483158285
:101C60000E946650EDB7FEB73696EDBFFEBF01305D
:101C700021F0023009F0E2C1F0C089E994E20E944B
:101C8000613B89E994E2BE016D5F7F4F41E00E94B4
:101C90000941882309F048C089E994E2BE01615FE7
:101CA0007F4F40E052E09E012F5F3F4F0E941B3F5D
:101CB000882399F589819A818050924071F58F85AA
:101CC0008093A92088898093AA2089898093AB205A
:101CD0008A898093AC2010930B2410920C240093DB
:101CE0009C201092FA2380910A24882329F500D0A1
:101CF0000F92EDB7FEB7319688E795E0ADB7BEB766
:101D000011968D939C931297128313820E94CA4C52
:101D10000F900F900F900F900FC080910A2488238E
:101D200059F487E595E006C080910A24882321F4C0
:101D300086E395E00E94884C80910A24882309F06C
:101D400085C000D000D085E295E0EDB7FEB7818375
:101D500092838091A9209091AA20A091AB20B0916C
:101D6000AC2083839483A583B6830E94CA4C609180
:101D7000A9207091AA208091AB209091AC2024E6FC
:101D800030E040E050E00E94C94D60930F24709312
:101D900010240F900F90EDB7FEB7319623E135E098
:101DA000ADB7BEB711962D933C93129762837383A0
:101DB0000E94CA4C0F900F900F900F9080910F24AB
:101DC000909110242091A9203091AA204091AB201D
:101DD0005091AC20892BE1F4CA01B90124E630E02E
:101DE00040E050E00E94C94D2093B1203093B220D2
:101DF00000D00F92EDB7FEB731968BEF94E0ADB700
:101E0000BEB711968D939C9312972283338318C08B
:101E1000CA01B90124E630E040E050E00E94C94D1B
:101E20002F5F3F4F2093B1203093B22000D00F920C
:101E300083EE94E0EDB7FEB78183928323833483EE
:101E40000E94CA4C0F900F900F900F901092A120FB
:101E500081E060E00E941F0DF9C08FE196E20E94D0
:101E6000613B8FE196E2BE016D5F7F4F41E00E94D2
:101E70000941882309F049C08FE196E2BE01615F04
:101E80007F4F40E052E09E012F5F3F4F0E941B3F7B
:101E90008823A1F589819A818050924079F58F85B8
:101EA0008093AD2088898093AE2089898093AF206C
:101EB0008A898093B02010930D2410920E2481E023
:101EC00080939C201092FA2380910A24882329F57C
:101ED00000D00F92EDB7FEB731968FEB94E0ADB71F
:101EE000BEB711968D939C931297128313820E9412
:101EF000CA4C0F900F900F900F900FC080910A2442
:101F0000882359F48EE994E006C080910A2488233E
:101F100021F48DE794E00E94884C80910A24882364
:101F200009F085C000D000D08CE694E0EDB7FEB794
:101F3000818392838091AD209091AE20A091AF20BB
:101F4000B091B02083839483A583B6830E94CA4C4A
:101F50006091AD207091AE208091AF209091B02023
:101F600024E630E040E050E00E94C94D6093112427
:101F7000709312240F900F90EDB7FEB731962AE5BB
:101F800034E0ADB7BEB711962D933C9312976283A0
:101F900073830E94CA4C0F900F900F900F90809106
:101FA0001124909112242091AD203091AE204091C7
:101FB000AF205091B020892BE1F4CA01B90124E689
:101FC00030E040E050E00E94C94D2093B3203093B0
:101FD000B42000D00F92EDB7FEB7319682E494E0C2
:101FE000ADB7BEB711968D939C931297228333831E
:101FF00018C0CA01B90124E630E040E050E00E9478
:10200000C94D2F5F3F4F2093B3203093B42000D0B1
:102010000F928AE294E0EDB7FEB781839283238327
:1020200034830E94CA4C0F900F900F900F90109223
:10203000A22081E060E00E94530C08C080910A2435
:10204000882321F487E094E00E94884CC25FDD4F32
:10205000E4E00C94304EAEE0B2E0E1E3F0E10C9449
:10206000144E082F162F6A3080F400D000D0EDB740
:10207000FEB73196CE010396ADB7BEB711968D93DC
:102080009C93129787E290E21FC0CE0103966436BC
:1020900070F400D000D0EDB7FEB73196ADB7BEB743
:1020A00011968D939C93129785E390E20DC000D01A
:1020B00000D0EDB7FEB73196ADB7BEB711968D9390
:1020C0009C93129782E490E2828393831483158217
:1020D0000E946650EDB7FEB73696EDBFFEBF0130E9
:1020E00021F0023009F0E2C1F0C089E994E20E94D7
:1020F000613B89E994E2BE016D5F7F4F41E00E9440
:102100000941882309F048C089E994E2BE01615F72
:102110007F4F40E052E09E012F5F3F4F0E941B3FE8
:10212000882399F589819A818050924071F58F8535
:102130008093A92088898093AA2089898093AB20E5
:102140008A898093AC2010930B2410920C24009366
:102150009C201092FA2380910A24882329F500D02C
:102160000F92EDB7FEB7319688E097E0ADB7BEB7F6
:1021700011968D939C931297128313820E94CA4CDE
:102180000F900F900F900F900FC080910A2488231A
:1021900059F48BEE96E006C080910A24882321F43E
:1021A0008AEC96E00E94884C80910A24882309F0EA
:1021B00085C000D000D089EB96E0EDB7FEB78183F3
:1021C00092838091A9209091AA20A091AB20B091F8
:1021D000AC2083839483A583B6830E94CA4C60910C
:1021E000A9207091AA208091AB209091AC2024E688
:1021F00030E040E050E00E94C94D60930F2470939E
:1022000010240F900F90EDB7FEB7319627EA36E015
:10221000ADB7BEB711962D933C931297628373832B
:102220000E94CA4C0F900F900F900F9080910F2436
:10223000909110242091A9203091AA204091AB20A8
:102240005091AC20892BE1F4CA01B90124E630E0B9
:1022500040E050E00E94C94D2093B1203093B2205D
:1022600000D00F92EDB7FEB731968FE896E0ADB78C
:10227000BEB711968D939C9312972283338318C017
:10228000CA01B90124E630E040E050E00E94C94DA7
:102290002F5F3F4F2093B1203093B22000D00F9298
:1022A00087E796E0EDB7FEB781839283238334837B
:1022B0000E94CA4C0F900F900F900F901092A12087
:1022C00081E060E00E941F0DF9C08FE196E20E945C
:1022D000613B8FE196E2BE016D5F7F4F41E00E945E
:1022E0000941882309F049C08FE196E2BE01615F90
:1022F0007F4F40E052E09E012F5F3F4F0E941B3F07
:102300008823A1F589819A818050924079F58F8543
:102310008093AD2088898093AE2089898093AF20F7
:102320008A898093B02010930D2410920E2481E0AE
:1023300080939C201092FA2380910A24882329F507
:1023400000D00F92EDB7FEB7319683E596E0ADB7BA
:10235000BEB711968D939C931297128313820E949D
:10236000CA4C0F900F900F900F900FC080910A24CD
:10237000882359F485E396E006C080910A248823D7
:1023800021F484E196E00E94884C80910A248823FD
:1023900009F085C000D000D083E096E0EDB7FEB72D
:1023A000818392838091AD209091AE20A091AF2047
:1023B000B091B02083839483A583B6830E94CA4CD6
:1023C0006091AD207091AE208091AF209091B020AF
:1023D00024E630E040E050E00E94C94D60931124B3
:1023E000709312240F900F90EDB7FEB7319620EF47
:1023F00035E0ADB7BEB711962D933C93129762832B
:1024000073830E94CA4C0F900F900F900F90809191
:102410001124909112242091AD203091AE20409152
:10242000AF205091B020892BE1F4CA01B90124E614
:1024300030E040E050E00E94C94D2093B32030933B
:10244000B42000D00F92EDB7FEB7319688ED95E03D
:10245000ADB7BEB711968D939C93129722833383A9
:1024600018C0CA01B90124E630E040E050E00E9403
:10247000C94D2F5F3F4F2093B3203093B42000D03D
:102480000F9280EC95E0EDB7FEB7818392832383B2
:1024900034830E94CA4C0F900F900F900F901092AF
:1024A000A22081E060E00E94530C08C080910A24C1
:1024B000882321F48DE995E00E94884CC25FDD4FAE
:1024C000E4E00C94304E1F93CF93DF93162FEA0174
:1024D000882349F580919E258823E1F781E995E2DB
:1024E00060E0AE01212F0E94FA398091992888235B
:1024F000E1F78CE898E260E0AE01212F0E94FA3902
:10250000809146268823E1F789E396E260E0AE01F8
:10251000212F0E94FA398091C2248823E1F785EBAC
:1025200094E260E022C0E82FF0E0DF01A75BB94D44
:10253000AC91E151F84D6081AA23D9F0A33051F05C
:10254000A43059F0A23019F4ACE8B8E208C0A1E90F
:10255000B5E205C0A9E3B6E202C0A5EBB4E21D9660
:102560008C911D978823D9F7CD01AE01212F0E94B0
:10257000FA39DF91CF911F910895A2E0B0E0E3EC2A
:10258000F2E10C94084E80910724882329F48DE30E
:1025900093E00E94884CF0C0809103248F5F809369
:1025A00003248091032487FF02C0109203248091AA
:1025B000072481508093072480910827843009F4F0
:1025C0004AC0853009F492C0833009F0A3C083E08B
:1025D0000E94322B40919F205091A020C090C42493
:1025E000D090C5242601662477247A0100E010E00B
:1025F00053014201880C991CAA1CBB1C481759079F
:1026000008F4CA019C0140E050E0C501B4010E94F9
:10261000834D6E0D7F1D801F911FEE0CFF1C001F50
:10262000111FA80197010E94EB4D215030404040FE
:102630005040241535054605570534F00894C10867
:10264000D108960140E050E057FF20C020E030E084
:1026500040E050E01BC0E0910324F0E0EE0FFF1FCC
:10266000E953FB4D0190F081E02D80918F259091F1
:102670009025E80FF91F2091C4243091C524F7FD5F
:102680000AC0CF01B9010E94A24D9C01209370287D
:102690003093712810C0882799278E1B9F0BB90192
:1026A0000E94A24D21503040A901481B590B409374
:1026B0007028509371282091702830917128409192
:1026C000CC265091CD268091252790912627BC01BC
:1026D000269FC001279F900D369F900D1124840FD7
:1026E000951F809300249093012414C0E09103244B
:1026F000F0E0EE0FFF1FE953FB4D80819181BC019B
:1027000025E0660F771F2A95E1F7680F791F81E0B2
:102710000E94A22B8091FE23882371F180910827CB
:10272000853051F180910124806F8983809100244C
:102730008A8380E062E0AE014F5F5F4F0E946312C8
:10274000609170287091712880E090E06F5F7F4FFA
:102750008F4F9F4F2FEF3FE740E050E00E94834DA7
:102760002091C4243091C52440E050E00E94C94D1E
:1027700081E0B9010E94A22B2296E0E10C94244E44
:10278000A2E0B0E0E6ECF3E10C94084E8091062460
:10279000882329F486EE93E00E94884C10C1809132
:1027A00002248F5F809302248091022487FF02C05D
:1027B00010920224809106248150809306248091F7
:1027C000CA26843009F463C0853009F4AAC0833076
:1027D00009F0BBC082E00E94322B40919D205091B5
:1027E0009E20C0902527D090262726016624772496
:1027F0007A0100E010E053014201880C991CAA1CE8
:10280000BB1C4817590708F4CA019C0140E050E07E
:10281000C501B4010E94834D6E0D7F1D801F911F65
:10282000EE0CFF1C001F111FA80197010E94EB4D29
:10283000215030404040504024153505460557058D
:102840004CF00894C108D108960140E050E008948B
:10285000C11CD11C57FF04C020E030E040E050E034
:102860002093CC263093CD268091702890917128AA
:102870002091CC263091CD26AC014C9DC0014D9DC0
:10288000900D5C9D900D1124820F931F45C0E09127
:102890000224F0E0EE0FFF1FE95DF84D0190F0819A
:1028A000E02D80911D2690911E26E80FF91F2091A2
:1028B000252730912627F7FD09C0CF01B9010E94D5
:1028C000A24D8093CC269093CD2610C088279927BF
:1028D0008E1B9F0BB9010E94A24D21503040B901BF
:1028E000681B790B6093CC267093CD2620917028BD
:1028F000309171284091CC265091CD26809125278A
:1029000090912627BC01269FC001279F900D369FDE
:10291000900D1124840F951F80930024909301241F
:1029200014C0E0910224F0E0EE0FFF1FE95DF84DC6
:1029300080819181BC01E5E0660F771FEA95E1F7A0
:10294000680F791F80E00E94A22B8091FE238823CC
:10295000B1F18091CA26853091F181E061E00E9459
:10296000002B80910124806F8983809100248A83C9
:1029700080E062E0AE014F5F5F4F0E9463126091A2
:10298000CC267091CD2680E090E06F5F7F4F8F4F17
:102990009F4F2FEF3FE740E050E00E94834D209192
:1029A00025273091262740E050E00E94C94D80E065
:1029B000B9010E94A22B81E060E00E94002B2296C8
:1029C000E0E10C94244EA2E0B0E0E9EEF4E10C94D6
:1029D000164E8091702890917128892B29F480914E
:1029E000C4249091C52404C08091702890917128CE
:1029F00001978093702890937128209170283091CE
:102A000071284091CC265091CD2680912527909118
:102A10002627BC01269FC001279F900D369F900D51
:102A20001124840F951F809300249093012480919A
:102A3000FE23813051F580910124806F898380913C
:102A400000248A8380E062E0AE014F5F5F4F0E9406
:102A50006312609170287091712880E090E06F5F40
:102A60007F4F8F4F9F4F2FEF3FE740E050E00E9496
:102A7000834D2091C4243091C52440E050E00E9451
:102A8000C94D81E0B9010E94A22B8091FB238823CC
:102A900029F48091FA238F5F8093FA232296E2E053
:102AA0000C94324EA2E0B0E0E8E5F5E10C94164E4D
:102AB0008091CC269091CD26892B29F480912527D1
:102AC0009091262704C08091CC269091CD26019725
:102AD0008093CC269093CD26209170283091712838
:102AE0004091CC265091CD26809125279091262784
:102AF000BC01269FC001279F900D369F900D112489
:102B0000840F951F80930024909301248091FE23CD
:102B1000813051F580910124806F89838091002458
:102B20008A8380E062E0AE014F5F5F4F0E946312D4
:102B30006091CC267091CD2680E090E06F5F7F4F52
:102B40008F4F9F4F2FEF3FE740E050E00E94834DB3
:102B5000209125273091262740E050E00E94C94D62
:102B600080E0B9010E94A22B8091FB23882329F0E9
:102B70008091FA238F5F8093FA232296E2E00C94EF
:102B8000324EA2E0B0E0E7ECF5E10C94164E8091F5
:102B900070289091712801968093702890937128E5
:102BA00020917028309171288091C4249091C5247F
:102BB0002817390720F01092702810927128209160
:102BC0007028309171284091CC265091CD2680916B
:102BD000252790912627BC01269FC001279F900D95
:102BE000369F900D1124840F951F8093002490939D
:102BF00001248091FE23813051F580910124806F62
:102C00008983809100248A8380E062E0AE014F5F77
:102C10005F4F0E946312609170287091712880E06C
:102C200090E06F5F7F4F8F4F9F4F2FEF3FE740E068
:102C300050E00E94834D2091C4243091C52440E08F
:102C400050E00E94C94D81E0B9010E94A22B809101
:102C5000FB23882329F48091FA238F5F8093FA2342
:102C60002296E2E00C94324EA2E0B0E0EAE3F6E114
:102C70000C94164E8091CC269091CD26019680938F
:102C8000CC269093CD268091CC269091CD26409154
:102C90002527509126278417950720F01092CC26DF
:102CA0001092CD2680917028909171282091CC2689
:102CB0003091CD26BC01649FC001659F900D749F2B
:102CC000900D1124820F931F809300249093012470
:102CD0008091FE23813051F580910124806F89839A
:102CE000809100248A8380E062E0AE014F5F5F4FF5
:102CF0000E9463126091CC267091CD2680E090E016
:102D00006F5F7F4F8F4F9F4F2FEF3FE740E050E0C7
:102D10000E94834D209125273091262740E050E0E6
:102D20000E94C94D80E0B9010E94A22B8091FB2333
:102D3000882329F08091FA238F5F8093FA232296CB
:102D4000E2E00C94324EA1E0B0E0E9EAF6E10C9446
:102D50000E4E5C01FC01E080F180C280D380848152
:102D60008093FF2395819093482686818093C62483
:102D7000882319F09093CB2609C0892F90E043E077
:102D8000880F991F4A95E1F78093CB261092FA237A
:102D900081E061E00E94002B91E007E010E00FC0AD
:102DA000A501400F511F892F6091CB2699830E9466
:102DB00063128091CB26080F111D99819F5F80912E
:102DC000FF23891768F77F2D60E06E0D711D80E08D
:102DD0000E94A22B7D2D60E06C0D711D81E00E9490
:102DE000A22B81E060E00E94002B2196EAE00C9487
:102DF0002A4ECF93DF93FC018081813009F049C0D6
:102E0000928180E02181DC01A20FB11DA0930927EE
:102E1000B0930A27948180E02381BC01620F711D69
:102E20006093B3247093B424968180E02581AC0133
:102E3000420F511D4093CE265093CF26908580E0BF
:102E40002781EC01C20FD11D9E01C093BE2AD093F1
:102E5000BF2A80910A24882311F5EDB7FEB73A976F
:102E6000EDBFFEBF319685E89BE0CDB7DEB7898325
:102E70009A83A283B38364837583468357832087B1
:102E800031870E94CA4CEDB7FEB73A96EDBFFEBF40
:102E900006C080E068E04DEE50E20E946312DF91D0
:102EA000CF910895FC018081803119F08131A9F41E
:102EB00007C08181738160E09281690F711D09C033
:102EC000738160E08281680F711D818170956195C9
:102ED0007F4F81500E94A22B089580E068E04DED65
:102EE00050E20E9463120895A2E0B0E0EAE7F7E141
:102EF0000C94134E8C01FC018081853209F4B5C01D
:102F0000863250F4853109F49AC0803209F4A0C0A9
:102F1000803109F01DC18BC0853309F4EEC08F3FAD
:102F200021F0803309F014C1BEC0F801F180809116
:102F30009E258823E1F781E995E26F2D4DEF50E260
:102F400022E00E94FA39809199288823E1F78CE8E1
:102F500098E26F2D4DEF50E222E00E94FA39809105
:102F600046268823E1F789E396E26F2D4DEF50E284
:102F700022E00E94FA398091C2248823E1F785EB90
:102F800094E26F2D4DEF50E222E00E94FA3980EF7B
:102F900095E520E233E0F9013197F1F70197D9F790
:102FA0008FEF8983F801928180919E258823E1F734
:102FB0009A8381E995E26F2DAE014F5F5F4F22E06A
:102FC0000E94FA39809199288823E1F78CE898E2E9
:102FD0006F2DAE014F5F5F4F22E00E94FA39809162
:102FE00046268823E1F789E396E26F2DAE014F5F15
:102FF0005F4F22E00E94FA398091C2248823E1F7D2
:1030000085EB94E26F2DAE014F5F5F4F22E00E948F
:10301000FA3984EF91E020E233E0F9013197F1F7DA
:103020000197D9F780E062E04DEF50E295C0F801DA
:1030300081818093CA268281809308278FC0F801FE
:103040006281662349F0F80181810E942B1086C0BD
:10305000F8016281662321F481810E94F80A7EC012
:10306000F80181810E94F30D79C0F801928180E01E
:1030700021818C01020F111D980140E050E062E1B6
:103080007AE780E090E00E94EB4D2093A3203093FC
:10309000A42080910A24882309F060C000D00F92F8
:1030A00083E29CE01DC0F801928180E021818C01C7
:1030B000020F111D980140E050E062E17AE780E0E4
:1030C00090E00E94EB4D2093A5203093A6208091A4
:1030D0000A24882309F042C000D00F9280E09CE0CF
:1030E000EDB7FEB781839283038314830E94CA4C99
:1030F0000F900F900F900F9031C0F801618170E038
:1031000080E090E02FEF3FE040E050E00E94834DF0
:103110002AE030E040E050E00E94C94D20939D201D
:1031200030939E20F801628170E080E090E02FEF04
:103130003FE040E050E00E94834D2AE030E040E074
:1031400050E00E94C94D20939F203093A02006C0DC
:1031500080E068E045ED50E20E9463122296E5E0CF
:103160000C942F4EA2E8B0E0E8EBF8E10C94104E7E
:10317000282F8A3080F400D000D0EDB7FEB731960A
:1031800083E194E2ADB7BEB711968D939C931297ED
:103190008EE490E21FC083E194E2243670F400D004
:1031A00000D0EDB7FEB73196ADB7BEB711968D938F
:1031B0009C9312978CE590E20DC000D000D0EDB743
:1031C000FEB73196ADB7BEB711968D939C9312970B
:1031D00089E690E282839383248315820E9466505D
:1031E000EDB7FEB73696EDBFFEBF8BE097E263E129
:1031F00074E241E00E9409418823C9F563E0C62ECC
:10320000D12CCC0EDD1E8BE097E2B60140E850E0F9
:103210009E012F5F3F4F0E941B3F882309F5898144
:103220009A8180389105E1F45AE4E52E56E2F52EB4
:1032300000E010E0F601E00FF11F6081D7016D930F
:103240007D010F5F1F4FC8018F5F9F4F0E94A152EA
:103250000038110579F781E090E060E00E94A1520A
:103260008BE097E20E94613B8BEE97E002C085EB1A
:1032700097E00E94884CCE57DF4FE8E00C942C4E2C
:10328000AAE2B2E0E6E4F9E10C94064E882E8DB78E
:103290009EB7C95DDD4F88839983C752D2408FB7EF
:1032A00099E0981580F000D000D0EDB7FEB73196C8
:1032B0008BE294E2ADB7BEB711968D939C931297B3
:1032C00085E790E220C08BE294E2F3E6F81570F017
:1032D00000D000D0EDB7FEB73196ADB7BEB71196AE
:1032E0008D939C93129783E890E20DC000D000D09C
:1032F000EDB7FEB73196ADB7BEB711968D939C93DF
:10330000129780E990E282839383848215820E94DF
:103310006650EDB7FEB73696EDBFFEBF82E798E286
:103320006BE274E241E00E940941882309F02AC25D
:1033300082E798E2BE01695D7F4F40E052E09E0166
:103340002F5F3F4F0E941B3F882309F014C28981E1
:103350009A818050924009F00EC28FA18093252758
:1033600088A58093262789A58093C4248AA5809365
:10337000C5248BA58093FF234CA54093482620911C
:10338000C4243091C5248091252790912627289F19
:103390002001299F500C389F500C1124842F8B50F2
:1033A000843050F4942F9A509093482681E0809373
:1033B000C6249093CB260BC01092C624842F90E095
:1033C000A3E0880F991FAA95E1F78093CB2610926E
:1033D00070281092712880917028909171288093A4
:1033E000CC269093CD26109200241092012481E0E7
:1033F00080939C201092FA238091CB2690E0849DAC
:103400008001859D100D949D100D112480910A243A
:10341000882309F054C000D00F92EDB7FEB7319663
:1034200088EB9AE0ADB7BEB711968D939C93129737
:10343000828213820E94CA4CEDB7FEB73897EDBF67
:10344000FEBF319685E69AE0ADB7BEB711968D9373
:103450009C931297809125279091262782839383AE
:103460008091C4249091C524848395838091FF2307
:103470008683178280914826808711868091C62492
:10348000828713860E94CA4CEDB7FEB73696EDBF11
:10349000FEBF319688E29AE0ADB7BEB711968D9324
:1034A0009C9312978091CB26828313820483158389
:1034B0000E94CA4CEDB7FEB73696EDBFFEBFF3E0F3
:1034C00001321F0708F02EC11B821C82F3E02F2E51
:1034D000312C2C0E3D1EE5E0AE2EB12CAC0EBD1EE7
:1034E0001AC18DB7C75DDD4F8883C952D2409EB7E0
:1034F000C65DDD4F9883CA52D2409091CB26809111
:10350000FF23989F60011124ADB7BEB7AC19BD0968
:10351000ADBFBEBF6DB67EB60894611C711C6D2D2B
:1035200066956F5F70E080E090E040E050E00E94C0
:10353000834D7B018C010894E11CF11C011D111DC0
:1035400079E0EE0CFF1C001F111F7A95D1F782E77E
:1035500098E2B801A7010E94A93C982E882309F09F
:1035600091C08091782890917928A0917A28B09183
:103570007B288E159F05A007B10709F083C082E75D
:1035800098E2B301A6019E012F5F3F4F0E941B3FAF
:10359000182F882309F04FC089819A818C159D05C9
:1035A00009F049C0E091CB26F0E095012E0F3F1FB6
:1035B000D1018C91D9018C9386E090E08C0F9D1FF6
:1035C000E80FF91FD10111968C91808311E0EE2450
:1035D000FF2425C08D9181938E2F8A198617D0F3F1
:1035E0008091C624882319F46E5F812F10C08091CA
:1035F0004826833039F0843041F0813059F4812FEE
:1036000065E005C0812F66E002C0812F67E0A5015B
:103610000E9463128091CB26E80EF11C1F5F8091FF
:10362000FF23811708F465C06091CB26D301AE0D4E
:10363000BF1DF501D1CF80910A24882309F059C01C
:1036400080E09AE00E94884CEDB7FEB73897EDBF56
:10365000FEBF319682EE99E0ADB7BEB711968D935D
:103660009C931297128313828B819C818483958310
:1036700089819A81868397830E94CA4CEDB7FEB7F1
:10368000389627C080910A24882399F589EB99E020
:103690000E94884C8DB79EB70A978DBF9EBFEDB72D
:1036A000FEB7319686E999E0ADB7BEB711968D9316
:1036B0009C931297928213828B819C818483958341
:1036C000E682F782008711870E94CA4CEDB7FEB7E9
:1036D0003A96EDBFFEBFC75DDD4F8881C952D2402B
:1036E000C65DDD4F9881CA52D2409C012DBF3EBFBE
:1036F0006EC0C75DDD4F2881C952D240C65DDD4F27
:103700003881CA52D240C9018DBF9EBF8B819C8136
:1037100001968B839C832B813C812415350508F40D
:10372000E0CE39C00F920F928CE699E0ADB7BEB7EC
:1037300011968D939C9312970E94CA4C0F920F92F0
:1037400082E599E0EDB7FEB781839283038314830A
:103750000E94CA4C0F900F908BE299E0ADB7BEB7B4
:1037600011968D939C9312970E94CA4C1092FE233F
:103770000F900F902CC080910A24882341F58CE093
:1037800099E006C080910A24882309F580EF98E02B
:103790000E94884C1CC082E798E20E94613B81E055
:1037A0008093FE2300D00F92EDB7FEB7319684ECE4
:1037B00098E0ADB7BEB711968D939C931297828215
:1037C00013820E94CA4C0F900F900F900F90C95D0A
:1037D000DD4FE881F981C752D240EDBFFEBFC65D23
:1037E000DD4FE2E10C94224E83E00E94212B0895EC
:1037F000EF92FF920F93CF93DF938091CA2681308F
:1038000001F1813030F0823009F44AC0EE24FF2407
:1038100088C0E09102242091092730910A27220FC5
:10382000331FF0E0EE0FFF1FE95DF84D80819181BD
:10383000AC01249FC001259F900D349F900D112451
:103840001CC080E00E94322B64E070E00E94B64D04
:10385000CB01880F991F880F991F6AE070E00E94C2
:10386000B64D8091092790910A279C01629FC00163
:10387000639F900D729F900D11246AE070E00E948A
:10388000B64DCB014091B3245091B4249A01220F3C
:10389000331F220F331F240F351F820F931F3CC08D
:1038A00080E00E94322B64E070E00E94B64DCB01B4
:1038B000E0910224F0E0EE0FFF1FE95DF84D01906A
:1038C000F081E02DEE0FFF1F4091B3245091B424FE
:1038D0009A01220F331F220F331F240F351FE20FCF
:1038E000F31F880F991F880F991F6AE070E00E94EC
:1038F000B64D8091092790910A27AC01649FC001C1
:10390000659F900D749F900D11246AE070E00E94F5
:10391000B64DCF01860F971F62E070E00E94B64D52
:103920007B0180910827813001F1813030F08230B5
:1039300009F44AC0C0E0D0E088C0E091032420919F
:10394000CE263091CF26220F331FF0E0EE0FFF1F5F
:10395000E953FB4D80819181AC01249FC001259FDB
:10396000900D349F900D11241CC081E00E94322BD9
:1039700064E070E00E94B64DCB01880F991F880F5C
:10398000991F6AE070E00E94B64D8091CE2690911A
:10399000CF269C01629FC001639F900D729F900D86
:1039A00011246AE070E00E94B64DCB014091BE2A1E
:1039B0005091BF2A9A01220F331F220F331F240F69
:1039C000351F820F931F3CC081E00E94322B64E0C0
:1039D00070E00E94B64DCB01E0910324F0E0EE0FC1
:1039E000FF1FE953FB4D0190F081E02DEE0FFF1F0B
:1039F0004091BE2A5091BF2A9A01220F331F220FF5
:103A0000331F240F351FE20FF31F880F991F880FF4
:103A1000991F6AE070E00E94B64D8091CE26909189
:103A2000CF26AC01649FC001659F900D749F900DDF
:103A300011246AE070E00E94B64DCF01860F971FF7
:103A400062E070E00E94B64DEB0180919C208130D5
:103A500059F11E141F0474F49701442737FD409553
:103A6000542F62E17AE780E090E00E94C94D84E340
:103A700096E113C0E114F104C9F0222733272E196F
:103A80003F09442737FD4095542F62E17AE780E0F3
:103A900090E00E94C94D82E595E1BA01A90122E0BA
:103AA00001E00E9448390EC0C0E0D0E082E595E117
:103AB0004EE350E060E070E022E000E00E94483910
:103AC000EE24FF241C161D0674F49E01442737FDC6
:103AD0004095542F62E17AE780E090E00E94C94D62
:103AE00081EC95E112C02097A9F0222733272C1BE7
:103AF0003D0B442737FD4095542F62E17AE780E083
:103B000090E00E94C94D83EE94E1BA01A90123E03F
:103B100001E008C083EE94E14EE350E060E070E025
:103B200023E000E00E9448391092FB23EC16FD06CA
:103B30001CF081E08093FB23DF91CF910F91FF90E8
:103B4000EF9008952F923F924F925F926F927F92E3
:103B50009F92AF92BF92CF92DF92EF92FF920F931C
:103B60001F93DF93CF93CDB7DEB72897CDBFDEBFCE
:103B70005C012B011A018DB79EB78F8398878FB791
:103B800081E061E00E94002B8091FA23823018F0DE
:103B900081E00E948E2A1092FA238091CB26909188
:103BA000FF23899F60011124C60191706D2D6695D8
:103BB000892B09F06F5FADB7BEB7AC19BD09ADBFBA
:103BC000BEBF6DB67EB60894611C711C70E080E0CB
:103BD00090E0950140E050E00E94834D7B018C0114
:103BE0000894E11CF11C011D111DE9E0EE0CFF1C05
:103BF000001F111FEA95D1F782E798E2B801A701EB
:103C00000E94A93C982E882309F0DEC18091782873
:103C100090917928A0917A28B0917B288E159F05E4
:103C2000A007B10709F0D0C182E798E2B301A6016D
:103C30009E012F5F3F4F0E941B3F182F882309F0E2
:103C40009EC189819A818C159D0509F098C1DD245A
:103C5000D394EE24FF2473E0A72EB12CAC0EBD1E2E
:103C600088C183010E0D1F1DC090CB2680919B281B
:103C7000813009F075C1B8E0CB16F1F4F8019081FC
:103C800081819817C9F4428183814817A9F434814E
:103C90008581381789F426818781281769F494175C
:103CA00059F4931749F4921739F48D2D61E0A80166
:103CB0000E94631251E001C050E08091CB26883110
:103CC00009F08CC0F301EE0DFF1DE081D8011196C3
:103CD0008C911197E81709F081C012963C911297C8
:103CE00013968C911397381709F078C014962C917D
:103CF000149715968C911597281709F06FC0169692
:103D00009C91169717968C911797981709F066C093
:103D1000E31709F063C0E21709F060C0E91709F082
:103D20005DC018969C91189719968C9119979817C1
:103D300009F054C01A964C911A971B968C911B97B8
:103D4000481709F04BC01C963C911C971D968C910E
:103D50001D97381709F042C01E962C911E971F968A
:103D60008C911F972817D1F59417C1F59317B1F5CA
:103D70009217A1F550969C91509751968C9151971E
:103D8000981761F552964C91529753968C91539790
:103D9000481721F554963C91549755968C91559718
:103DA0003817E1F456962C91569757968C91579761
:103DB0002817A1F4941791F4931781F4921771F4D2
:103DC000EB8318968C9118978C8350968C918D83E9
:103DD0008D2D63E0A5010E94631251E08091CB26F6
:103DE000803209F0BBC0F301EE0DFF1DE081D80168
:103DF00011968C911197E81709F0B0C012963C917A
:103E0000129713968C911397381709F0A7C0149640
:103E10002C91149715968C911597281709F09EC030
:103E200016969C91169717968C911797981709F0EC
:103E300095C0E31709F092C0E21709F08FC0E917A7
:103E400009F08CC018969C91189719968C91199727
:103E5000981709F083C01A964C911A971B968C916B
:103E60001B97481709F07AC01C963C911C971D9629
:103E70008C911D97381709F071C01E962C911E97D2
:103E80001F968C911F97281709F068C0941709F0A6
:103E900065C0931709F062C0921709F05FC0509691
:103EA0009C91509751968C915197981709F056C054
:103EB00052964C91529753968C915397481709F00C
:103EC0004DC054963C91549755968C915597381700
:103ED00009F044C056962C91569757968C91579757
:103EE0002817E1F59417D1F59317C1F59217B1F59D
:103EF00058969C91589759968C915997981771F5A7
:103F00005A964C915A975B968C915B97481731F56E
:103F10005C963C915C975D968C915D973817F1F4B7
:103F20005E962C915E975F968C915F972817B1F4FF
:103F30009417A1F4931791F4921781F4EB831896D8
:103F40008C9118978C8350968C9150978D835896AE
:103F50008C918E838D2D64E0A50106C0552331F42C
:103F60008D2D6091CB26A8010E946312EC0CF11CF0
:103F7000D3948091FF238D1508F073CE4CC08091AF
:103F80000A24882309F047C088E39BE00E94884CFC
:103F9000EDB7FEB73897EDBFFEBF31968AE19BE0E3
:103FA000ADB7BEB711968D939C931297128313826F
:103FB000A482B58289819A81868397830E94CA4CA4
:103FC000EDB7FEB7389625C080910A24882319F5ED
:103FD00080EF9AE00E94884C8DB79EB70A978DBFFC
:103FE0009EBFEDB7FEB731968DEC9AE0ADB7BEB788
:103FF00011968D939C93129792821382A482B5821C
:10400000E682F782008711870E94CA4CEDB7FEB79F
:104010003A96EDBFFEBF8091CA268530C9F0B20145
:1040200080E090E06F5F7F4F8F4F9F4F2FEF3FE714
:1040300040E050E00E94834D2091252730912627B3
:1040400040E050E00E94C94D80E0B9010E94A22BDF
:10405000809108278530C9F0B10180E090E06F5F62
:104060007F4F8F4F9F4F2FEF3FE740E050E00E9480
:10407000834D2091C4243091C52440E050E00E943B
:10408000C94D81E0B9010E94A22B8091FC238130AF
:1040900059F58091CC269091CD264091CC26509117
:1040A000CD2663E0969587956A95E1F790E0FC014F
:1040B000E056FA4D208130E053E0880F991F5A9561
:1040C000E1F7481B87E090E0841B910902C0359519
:1040D00027958A95E2F720FD03C080E060E002C0EA
:1040E00080E061E00E94002B81E060E00E94002BF4
:1040F0008F8198858DBF9EBF2896CDBFDEBFCF91A3
:10410000DF911F910F91FF90EF90DF90CF90BF90C4
:10411000AF909F907F906F905F904F903F902F90C7
:104120000895A4E0B0E0E7E9F0E20C940E4E81E0DF
:1041300080939C202091C4243091C5248091252710
:1041400090912627289F5001299FB00C389FB00CD2
:1041500011240E94584B19821A827E010894E11C96
:10416000F11CF3E0CF2ED12CCC0EDD1E1FC08091B0
:10417000FE23882361F46091CC267091CD26409176
:10418000702850917128C8010E94A21D0BC0F70130
:104190008181806F8B8380818C8380E062E0A601C7
:1041A0000E9463120F5F1F4F09831A8309811A81CE
:1041B0000A151B05E0F20E946D4B7B018C018DB747
:1041C0009EB708978DBF9EBFCDB6DEB60894C11CC2
:1041D000D11C8EE897E0EDB7FEB781839283F6019C
:1041E000E282F38204831583B50180E090E028EE3B
:1041F00033E040E050E00E94834DA80197010E9407
:10420000C94DF601268337830E94CA4C8DB79EB7ED
:1042100008968DBF9EBF2496EAE00C942A4EA2E039
:10422000B2E0E5E1F1E20C94154E182F8A3080F4EB
:1042300000D000D0EDB7FEB731968FE194E2ADB774
:10424000BEB711968D939C93129785E790E21FC09D
:104250008FE194E2143670F400D000D0EDB7FEB7D1
:104260003196ADB7BEB711968D939C93129783E8A4
:1042700090E20DC000D000D0EDB7FEB73196ADB7DB
:10428000BEB711968D939C93129780E990E282833A
:104290009383148315820E9466508DB79EB706964D
:1042A0008DBF9EBF82E798E20E94613B82E798E261
:1042B0006FE174E241E00E940941882309F0AFC038
:1042C00082E798E2BE016D5F7F4F40E052E09E01C1
:1042D0002F5F3F4F0E941B3F882309F099C08981BF
:1042E0009A818050924009F093C08B81809325275A
:1042F0008C81809326278D818093C4248E81809326
:10430000C5248F818093FF23988590934826892F19
:104310008B50843048F49A509093482681E08093E3
:10432000C6249093CB260BC01092C624892F90E010
:10433000A3E0880F991FAA95E1F78093CB261092EE
:104340007028109271288091702890917128809324
:10435000CC269093CD26109200241092012481E067
:1043600080939C201092FA2380910A24882309F0DC
:1043700040C000D00F92EDB7FEB731968FEA98E0BB
:10438000ADB7BEB711968D939C931297128313828B
:104390000E94CA4C8DB79EB708978DBF9EBFEDB7E0
:1043A000FEB731968CE598E0ADB7BEB711968D9308
:1043B0009C9312978091252790912627828393833F
:1043C0008091C4249091C524848395838091FF2398
:1043D0008683178280914826808711868091C62423
:1043E000828713860E94CA4C8DB79EB70C968DBFEC
:1043F0009EBF80910024909101246091CC26709101
:10440000CD2640917028509171280E94A21D0FC0A6
:1044100080910A24882359F48DE398E006C08091A6
:104420000A24882321F481E298E00E94884C1092AB
:10443000FE23CE5FDD4FE3E00C94314EA2E0B0E00E
:10444000E4E2F2E20C94164EFC018081803709F020
:104450008CC0928180E02181820F911D8093CC26B7
:104460009093CD26948180E02381820F911D8093CB
:104470007028909371288091CC269091CD268093BE
:104480001D2690931E26809170289091712880930C
:104490008F2590939025209170283091712840911C
:1044A000CC265091CD268091252790912627BC01BE
:1044B000269FC001279F900D369F900D1124840FD9
:1044C000951F80930024909301241092FA238091E9
:1044D0000A24882351F52091CC263091CD26409195
:1044E00070285091712860910024709101248DB73B
:1044F0009EB708978DBF9EBFEDB7FEB7319684EC8F
:104500009BE0ADB7BEB711968D939C931297228313
:10451000338344835583668377830E94CA4C6DB787
:104520007EB7685F7F4F6DBF7EBF8091FE2388237B
:1045300079F480910024909101246091CC267091AF
:10454000CD2640917028509171280E94A21D13C061
:1045500080910124806F8983809100248A8380E088
:1045600062E0AE014F5F5F4F04C080E068E045EE5F
:1045700050E20E9463122296E2E00C94324EFC015B
:104580002181808190E0FC013197E131F10508F053
:1045900048C0E650FF4F0C943D4E822F62E04DEF35
:1045A00050E243C0822F62E04FEF50E23EC0822FC4
:1045B0000E940F210895822F0E94242C0895822F9B
:1045C0000E94C82B0895822F90E0880F991F809336
:1045D000A7209093A8200895822F0E94A0320895CA
:1045E000822F0E94902F0895822F0E94B218089562
:1045F000822F81500E94322B00D00F9226E43CE0A3
:10460000EDB7FEB721833283838394830E94CA4C23
:104610000F900F900F900F900895822F0E944019D5
:10462000089580E068E04DEC50E20E946312089526
:104630006F927F929F92AF92BF92CF92DF92EF9252
:10464000FF920F931F93DF93CF930F920F92CDB7EB
:10465000DEB7FC01E081E33409F41BC2E43408F066
:104660005BC0E03209F4B6C0E13258F5E43109F438
:1046700099C2E53198F4E13109F486C2E23138F4A7
:10468000EE2309F4F2C1E03109F09DC379C2E231B1
:1046900009F481C2E33109F096C381C2E73109F41C
:1046A000ADC2E83138F4E53109F47FC2E63109F0F2
:1046B0008AC38CC2E83109F4A5C2E93109F083C389
:1046C000A4C2E63209F418C3E73298F4E33209F4DD
:1046D000F4C2E43238F4E13209F4DBC2E23209F028
:1046E00072C3E1C2E43209F4F7C2E53209F06BC3E8
:1046F00011C1E03409F4BEC1E13438F4E03309F407
:10470000BCC0E53309F05FC366C1E13409F4B7C149
:10471000E23409F058C3B8C1E43909F4F5C1E53908
:1047200058F5E03609F4D6C1E13698F4E63409F4D8
:10473000BFC1E73438F4E43409F4B0C1E53409F01A
:1047400042C3B1C1E73409F4B8C1E03509F03BC355
:10475000BEC1E13909F4C9C1E23938F4E03709F4DE
:10476000BCC1E03909F02FC3BBC1E23909F4C2C1B1
:10477000E33909F028C3C3C1EA3909F4E3C1EB39CD
:1047800098F4E73909F4CFC1E83938F4E53909F488
:10479000C0C1E63909F017C3C1C1E83909F4C8C17D
:1047A000E93909F010C3C9C1ED3909F4DAC1EE39AC
:1047B00038F4EB3909F4CBC1EC3909F004C3CCC1AE
:1047C000EF3909F4D8C1EF3908F4D0C1EF3F09F04F
:1047D000FAC278C1109202241092032410929C20F5
:1047E0001092FA2388EF9BE14EE350E060E070E026
:1047F00021E001E00E94223984E396E14EE350E09B
:1048000060E070E022E000E00E94223981EC95E156
:104810004EE350E060E070E023E00E942239809196
:10482000A1204091A3205091A420882331F060E082
:1048300070E080EC93E124E006C060E070E080EC82
:1048400093E124E001E00E9422398091A22040916E
:10485000A5205091A620882339F060E070E08DEB10
:1048600092E125E000E006C060E070E08DEB92E1AF
:1048700025E001E00E942239ACC281E080939C20B7
:1048800088EF9BE14EE350E060E070E021E000E063
:104890000E94223984E396E14EE350E060E070E04C
:1048A00022E00E94223981EC95E14EE350E060E085
:1048B00070E023E00E9422394091A3205091A4206F
:1048C00060E070E080EC93E124E00E9422394091A6
:1048D000A5205091A62060E070E08DEB92E125E0EC
:1048E0000E94223910920824109209248091A1205C
:1048F000882329F46091082481E00E941F0D809193
:10490000A220882309F065C26091082481E00E94FA
:10491000530C5FC2109202241092032410929C2028
:104920001092FA2388EF9BE14EE350E060E070E0E4
:1049300021E001E00E94223984E396E14EE350E059
:1049400060E070E022E000E00E94223981EC95E115
:104950004EE350E060E070E023E00E942239809155
:10496000A1204091A3205091A420882331F060E041
:1049700070E080EC93E124E006C060E070E080EC41
:1049800093E124E001E00E9422398091A22040912D
:10499000A5205091A620882339F060E070E08DEBCF
:1049A00092E125E000E006C060E070E08DEB92E16E
:1049B00025E001E00E9422396091A7207091A82093
:1049C00082E19AE70E94A24DAB0160E070E084EFC3
:1049D0009BE120E04ECF81E080939C2088EF9BE11B
:1049E0004EE350E060E070E021E000E00E942239F8
:1049F00084E396E14EE350E060E070E022E00E9444
:104A0000223981EC95E14EE350E060E070E023E074
:104A10000E9422394091A3205091A42060E070E0D0
:104A200080EC93E124E00E9422394091A52050912E
:104A3000A62060E070E08DEB92E125E00E94223933
:104A40002091A7203091A82040E050E062E17AE771
:104A500080E090E00E94EB4D84EF9BE1BA01A90158
:104A600020E00E94223982E092C080E068E047E3C3
:104A700054E2ADC180E068E141E051E2A8C180E0CC
:104A800068E149E151E2A3C180E068E141E351E21C
:104A90009EC180E068E149E451E299C180E068E1AB
:104AA00041E651E294C180E068E149E751E28FC1FB
:104AB00080E068E141E951E28AC180E068E149EAC9
:104AC00051E285C180E068E041EC51E280C10E9482
:104AD000A12A7FC10E940C2C7CC10E94912079C127
:104AE00080E060E249EC51E272C180E060E249EEB0
:104AF00051E26DC180E060E249E052E268C180E0CD
:104B000060E249E252E263C180E060E249E452E2DD
:104B10005EC180E060E249E652E259C180E060E2B5
:104B200049E852E254C180E060E249EA52E24FC1F2
:104B300080E060E249EC52E24AC180E060E249EE86
:104B400052E245C180E060E249E053E240C180E0CA
:104B500060E249E253E23BC180E060E249E453E2B3
:104B600036C180E060E249E653E231C180E060E2B4
:104B700049E853E22CC180E060E249EA53E227C1F0
:104B800081E08093FC2325C11092FC2380E060E04B
:104B90000E94002B1EC181E080939B281AC11092B5
:104BA0009B2817C10E94820B14C100D00F9289E587
:104BB0009DE0ADB7BEB711968D939C93129789EC8B
:104BC00093E213968D939C931497F6C09AE4E92E82
:104BD00096E2F92E11E00EEF6E010894C11CD11C73
:104BE0000983F70181917F018A83812F62E0A60109
:104BF0000E9463121F5F113899F7EBC081E0809328
:104C00000A24E7C010920A24E4C08DB79EB74297E9
:104C10008DBF9EBFEDB7FEB7319687E39DE0ADB780
:104C2000BEB711968D939C9312978091092790910E
:104C30000A27828393838091B3249091B424848340
:104C4000958380911D2690911E268683978380915F
:104C5000CA26808711868091CE269091CF268287A2
:104C600093878091BE2A9091BF2A848795878091EF
:104C70008F25909190258687978780910827808B34
:104C8000118A0E94CA4CEDB7FEB77296EDBFFEBF07
:104C9000A0C080E090E06FEF0E94A1520F920F92AF
:104CA00085E09DE012C080E090E060E00E94A152AB
:104CB0000F920F9283ED9CE016C088E0E0E2F7E0EF
:104CC00082870F920F9288EA9CE0ADB7BEB711962B
:104CD0008D939C9312970BC0E0E2F7E012860F923F
:104CE0000F9282E89CE0EDB7FEB7818392830E9429
:104CF000CA4C0F900F906DC09924EE24FF248701B9
:104D0000AA24BB24650180E4682E8CE9782E82E019
:104D10000E94322BAA2797FDA095BA2FE80EF91E04
:104D20000A1F1B1F83E00E94322BAA2797FDA09524
:104D3000BA2FA80EB91ECA1EDB1EC3010197F1F7D8
:104D40009394F4E69F1619F7C801B70124E630E002
:104D500040E050E00E94C94D20939D2030939E205A
:104D6000C601B50124E630E040E050E00E94C94DA4
:104D700020939F203093A02000D00F928DE69CE0DE
:104D8000ADB7BEB711968D939C93129780919D20DD
:104D900090919E2013968D939C9314970E94CA4CD9
:104DA00088E59CE0EDB7FEB78183928380919F20D8
:104DB0009091A020838394830E94CA4C0F900F90FF
:104DC0000F900F9006C080E068E045EC50E20E9432
:104DD00063120F900F90CF91DF911F910F91FF9071
:104DE000EF90DF90CF90BF90AF909F907F906F90AB
:104DF0000895A0E5B6E0EFEFF6E20C940E4E80E0E9
:104E000090E00E949152E82E81E995E26E2D0E9479
:104E1000C63A8CE898E26E2D0E94C63A89E396E283
:104E20006E2D0E94C63A85EB94E26E2D0E94C63A22
:104E300081E995E260E874E040E450E023E20E94FA
:104E400077398CE898E260E974E040E450E023E2CE
:104E50000E94773989E396E260EA74E040E450E02A
:104E600023E20E94773985EB94E260EB74E040E442
:104E700050E023E20E9477398E2D0E946E380E9406
:104E8000C43587E397E3809397249093982480E038
:104E900090E02AE030E0FC01E953FB4D20833183B0
:104EA000FC01E95DF84D208331830296883C910531
:104EB00091F7E0EAF5E220E030E04FEF23303105F2
:104EC00020F0C9010697039710F4408301C01082B7
:104ED0002F5F3F4F31962D37310581F710927028A3
:104EE0001092712880917028909171288093CC261F
:104EF0009093CD268091CC269091CD2680938F25BE
:104F00009093902580931D2690931E261092BE2A82
:104F10001092BF2A1092B3241092B4241092CE267D
:104F20001092CF261092092710920A271092082774
:104F30001092CA2681E0809348261092C6241092CF
:104F40009B2881E090E00E9491528F3FD9F4198212
:104F500024E014C0E82FF0E0E75BF94D982F937040
:104F60009083882319F0992309F420838981E82FFD
:104F7000F0E0E151F84D80838F5F8983898181382A
:104F800048F317C0198211C00F2D10E0C8018F5FC0
:104F90009F4F0E949152F801E75BF94D80830151C8
:104FA000184DF801F082F394F982F980F0E8FF15CA
:104FB00058F782EB9EE00E94884C81E061E00E94FD
:104FC0006B2A01E060E2C62E63E0D62E3AC080E094
:104FD0000E944748082F81FF0DC083EA9EE00E948F
:104FE000884C0E94633704C080E00E944748082F25
:104FF00001FDFACF02FF04C086E89EE00E94884CC3
:10500000198210C080E00E946B47082F80FF0DC0FE
:1050100089818F5F898384EF91E0F6013197F1F701
:105020000197D9F78981843068F300FF0AC08CE6C4
:105030009EE00E94884C80E00E944748082F81FF34
:10504000FACF00FDC4CF84E59EE00E94884C80E04A
:105050006AE0AE014F5F5F4F0E94B348892B59F55C
:1050600088E49EE00E94884C89818430A1F08530DC
:1050700028F4813051F08230D1F40AC0883089F0B0
:105080008C3091F0863099F409C083E49EE011C021
:105090008FE39EE00EC08AE39EE00BC085E39EE0B6
:1050A00008C080E39EE005C08AE29EE002C085E27F
:1050B0009EE00E94884C8CE09EE00E94884C80E03C
:1050C0006CE978E20E94283B813051F0813028F071
:1050D000823049F0833069F409C082E09EE00BC061
:1050E00089EF9DE008C086EE9DE005C089ED9DE05A
:1050F00002C084ED9DE00E94884C80E068E047E3B8
:1051000054E20E94631281E060E00E946B2A0E94D8
:10511000A12A8FEFE81609F0D2C086EA9DE00E942E
:10512000884C57EEA52E53E0B52E47ECD42E37EC25
:10513000C32E22E0E22EF12CEC0EFD1E02C00C2D3F
:1051400068010E940437892B09F453C0C7010E94EB
:105150006A378430910539F18530910548F4823001
:105160009105C9F083309105D0F40197E1F50FC0A6
:105170008930910501F18A30910518F4059799F568
:1051800016C08E339105D9F0CF9769F528C0C701B5
:105190000E9418232EC0C7010E94BF222AC0C70147
:1051A0000E94741726C0C7010E94521722C0C7016F
:1051B0000E941E221EC0C7010E94F9161AC020E0DC
:1051C00030E0F901E056FA4DD701A20FB31F8C91E0
:1051D00080832F5F3F4F2E33310599F70AC0C701F7
:1051E0000E94690B06C080E068E045EF50E20E9433
:1051F000631280919C20882309F0A3CF8091FE2325
:105200008823C9F480910024909101248A159B057C
:1052100091F0A0900024B0900124809100249091FE
:1052200001246091CC267091CD2640917028509138
:1052300071280E94A21D8091A1208823E1F4809111
:1052400006248A31C0F4109102241D15A9F0109192
:1052500002248091082490E06091B1207091B220E6
:1052600001960E94A24D809308246091082480E05A
:105270000E941F0D01C01D2D8091A220882309F0DE
:105280005ECF809107248A3108F059CF0091032422
:105290000C1509F455CF009103246091092480E096
:1052A0000E94530C8091092490E06091B32070918A
:1052B000B42001960E94A24D8093092441CF88E733
:1052C0009DE00E94884C8E010D5B1F4F0E940437A9
:1052D000892BE1F3C8010E946A378130910519F0EA
:1052E000C29749F404C0C8010E941823EFCFC80137
:1052F0000E94A316EBCF80E068E04DEF50E20E94E1
:105300006312E4CF1F920F920FB60F9208B60F925E
:1053100009B60F920BB60F92112418BE19BE1BBE10
:105320002F933F934F935F936F937F938F939F93AD
:10533000AF93BF93EF93FF9385EB94E20E94933A70
:10534000FF91EF91BF91AF919F918F917F916F915D
:105350005F914F913F912F910F900BBE0F9009BE1F
:105360000F9008BE0F900FBE0F901F9018951F92C0
:105370000F920FB60F9208B60F9209B60F920BB6A6
:105380000F92112418BE19BE1BBE2F933F934F934B
:105390005F936F937F938F939F93AF93BF93EF939D
:1053A000FF9389E396E20E94933AFF91EF91BF91B8
:1053B000AF919F918F917F916F915F914F913F91AD
:1053C0002F910F900BBE0F9009BE0F9008BE0F904B
:1053D0000FBE0F901F9018951F920F920FB60F924D
:1053E00008B60F9209B60F920BB60F92112418BE91
:1053F00019BE1BBE2F933F934F935F936F937F9381
:105400008F939F93AF93BF93EF93FF938CE898E2B2
:105410000E94933AFF91EF91BF91AF919F918F912D
:105420007F916F915F914F913F912F910F900BBEA4
:105430000F9009BE0F9008BE0F900FBE0F901F90E7
:1054400018951F920F920FB60F9208B60F9209B6D9
:105450000F920BB60F92112418BE19BE1BBE2F93CC
:105460003F934F935F936F937F938F939F93AF93EC
:10547000BF93EF93FF9381E995E20E94933AFF91E6
:10548000EF91BF91AF919F918F917F916F915F91BC
:105490004F913F912F910F900BBE0F9009BE0F902F
:1054A00008BE0F900FBE0F901F9018950F93DF93BB
:1054B000CF930F92CDB7DEB72FB72983F8941BBED9
:1054C000FC0108ED04BF608389818FBF0F90CF91ED
:1054D000DF910F910895282F30E0C9018C7F892B2F
:1054E000E1F4862F8E7FC9F42C5F3F4F613059F471
:1054F00081E090E002C0880F991F2A95E2F7E0E072
:10550000F7E08683089581E090E002C0880F991F3C
:105510002A95E2F7E0E0F7E085830895282F30E050
:10552000C9018C7F892B61F42C5F3F4F81E090E0B3
:1055300002C0880F991F2A95E2F7E0E0F7E0878321
:10554000089520E030E0A0E0B7E060E240E253E000
:1055500017966C9317978CEA9DE0FA013197F1F753
:105560000197D9F72F5F3F4F2A30310589F708950A
:10557000482F50E0CA018C7F892B79F56623B9F456
:105580004C5F5F4F81E090E09C01042E02C0220F2F
:10559000331F0A94E2F744505040E0E2F7E02683DC
:1055A00002C0880F991F4A95E2F781830895613000
:1055B000A1F481E090E09C01042E02C0220F331F71
:1055C0000A94E2F7E0E2F7E022834C5F5F4F02C00B
:1055D000880F991F4A95E2F785830895282F30E0B8
:1055E000C9018C7F892B11F080E0089580912807F4
:1055F00090E002C0959587952A95E2F7817008950D
:10560000282F30E0C9018C7F892BD1F4862F8E7F23
:10561000B9F4613059F481E090E002C0880F991F1D
:105620002A95E2F7E0E2F7E08583089581E090E0D3
:1056300002C0880F991F2A95E2F7E0E2F7E086831F
:105640000895282F30E0C9018C7F892B51F481E027
:1056500090E002C0880F991F2A95E2F7E0E2F7E098
:1056600087830895A2E0B0E0E8E3FBE20C94164ED5
:10567000282F30E0C901887F892B19F020E030E025
:105680005CC080E1E0E4F6E08683C9018770907039
:10569000880F991F880F991F8068E0ECF8E08383DA
:1056A0008091C20887FFFCCF80E1E0ECF8E08383C3
:1056B0008091C20887FFFCCFE0E4F6E080E18583BB
:1056C0008683E0ECF8E013828091C20887FFFCCF6C
:1056D000DE0111969091C308E0ECF8E0138280910E
:1056E000C20887FFFCCF8091C30811969C93119745
:1056F0008C9380E1E0E4F6E085832E7F89819A81B6
:10570000232B69F49C013F7094FF04C035952795C5
:10571000386F02C03595279529833A830CC094FFD2
:1057200004C09F709595879504C090619595879565
:105730009F7089839A8329813A81C9012296E2E088
:105740000C94324E982F8C7F11F580E860307807EA
:10575000F1F080E1E0E6F6E086839770E0ECF9E0B6
:1057600093838091C20987FFFCCFE0ECF9E073835B
:105770008091C20987FFFCCFE0ECF9E06383809160
:10578000C20987FFFCCF80E1E0E6F6E0858308955B
:10579000A0E0B0E0EEECFBE20C940A4EB82EC0E0C4
:1057A000D0E000E217E06624639482E0782EB4E053
:1057B0008B2EA8E09A2EF0E2EF2EF3E0FF2EC12C04
:1057C000E7E0DE2E70E2A72EF801678277828782FB
:1057D000978288EE93E0F7013197F1F70197D9F7B7
:1057E0008B2D0E94322BBC0128EE33E0F70131975C
:1057F000F1F721503040D1F781E00E94A22BC0FF89
:1058000002C0F601A7822196CC33D105E9F6CDB7C7
:10581000DEB7EEE00C94264E0F93DF93CF930F92FA
:10582000CDB7DEB78FB78983F8941BBE21E089E737
:1058300090E0FC0108ED04BF208389818FBF0F90A9
:10584000CF91DF910F910895A0E0B0E0EAE2FCE291
:105850000C940C4E982E00E040EAA42E4FE0B42E9B
:1058600030E8C32E3EE3D32EE12C27E0F22E90E267
:10587000892E1DC0143610F4BE0103C0B5016C1B87
:105880007D0B80E00E94A22B892D0E94322BBC014F
:1058900081E00E94A22BC6010197F1F71F5F649679
:1058A000183C41F7F70187820F5F0E3121F010E0BD
:1058B000C0E0D0E0DFCFCDB7DEB7ECE00C94284EEF
:1058C000BC0125E031E140E050E008C0F9012F5F64
:1058D0003F4FE491EE23D1F74F5F5F4F46175707D5
:1058E00021F0F9018491882389F700D00F9281E09B
:1058F00091E1EDB7FEB781839283238334830E94C5
:10590000CA4C0F900F900F900F900895A0E0B0E058
:10591000ECE8FCE20C940D4E5C016A017B01922ED6
:10592000E80187EF93E10E94884C87E68883BB27D4
:10593000AF2D9E2D8D2D8983CA829B8285E48C8319
:10594000C50160E7A80125E0092D0E949939D5011C
:105950001D968C911D978823D1F71E968C911E97CA
:105960008130B9F01E962C9100D00F92EDB7FEB7A2
:1059700031968AED93E1ADB7BEB711968D939C93A6
:105980001297228313820E94CA4C0F900F900F909F
:105990000F90DE0131E020E00DC0E501ED81FE81D8
:1059A000E20FF11D908115968C911597981330E0B8
:1059B0002F5F1196291588F3832F90E0CDB7DEB7BE
:1059C000EBE00C94294EA0E0B0E0E9EEFCE20C9490
:1059D0000D4E5C016A017B01922EE80186E194E1A3
:1059E0000E94884C87E68883BB27AF2D9E2D8D2D86
:1059F0008983CA829B8285E48C83C50160E7A80104
:105A000025E0092D0E949939D5011D968C911D978D
:105A10008823D1F71E968C911E978130B9F01E967F
:105A20002C9100D00F92EDB7FEB7319689EF93E13C
:105A3000ADB7BEB711968D939C93129722831382B4
:105A40000E94CA4C0F900F900F900F90DE0190E0D3
:105A50000AC0E501ED81FE81E90FF11D80811496F8
:105A60008C9314979F5F1196991598F3CDB7DEB775
:105A7000EBE00C94294EA0E0B0E0E1E4FDE20C94F0
:105A80000F4EEC016A017B01B22E87E394E10E9484
:105A9000884C82E4D8018C93BB27AF2D9E2D8D2D91
:105AA000F8018183C282B38285E48483F5E0BF0E6E
:105AB000CE0160E7A8012B2D00E00E9499398D8569
:105AC0008823E9F78E858130B1F02E8500D00F92C2
:105AD000EDB7FEB7319688E194E1ADB7BEB7119648
