:100000000C94220A0C94480A0C94480A0C94480A4E
:100010000C94480A0C94480A0C94480A0C94480A18
:100020000C94480A0C94480A0C94480A0C94480A08
:100030000C94480A0C943D290C94480A0C94480AE4
:100040000C94480A0C94480A0C94480A0C94480AE8
:100050000C94480A0C94480A0C94480A0C94480AD8
:100060000C94480A0C94F8360C9448370C94480ABF
:100070000C94480A0C94480A0C94480A0C94480AB8
:100080000C94480A0C94480A0C94480A0C94480AA8
:100090000C94480A0C94480A0C94480A0C94480A98
:1000A0000C94480A0C94480A0C94480A0C94480A88
:1000B0000C94480A0C94480A0C94D3280C94BD372D
:1000C0000C94480A0C94480A0C94480A0C94480A68
:1000D0000C94480A0C94AE490C94480A0C94480AB3
:1000E0000C94480A0C94480A0C94480A0C94480A48
:1000F0000C94480A0C94480A0C94480A0C94480A38
:100100000C94480A0C94480A0C94480A0C94480A27
:100110000C94480A0C94480A0C94480A0C94480A17
:100120000C94480A0C94480A0C94480A0C94480A07
:100130000C9408290C94480A0C94480A0C94480A18
:100140000C94480A0C94480A0C94480A0C94480AE7
:100150000C94480A0C94480A0C94480A0C94480AD7
:100160000C94480A0C94480A0C94480A0C94480AC7
:100170000C94480A0C94480A0C94480A0C94480AB7
:100180000C94480A0C94480A0C94480A0C94480AA7
:100190000C945B0A0C94480A0C94480A0C94480A84
:1001A0000C94480A0C94480A0C94480A0C949E2813
:1001B0000C94FE490C94480A0C94480A0C94480A82
:1001C0000C94480A0C94480A0C94480A0C94480A67
:1001D0000C94480A0C94480A0C94480A0C94480A57
:1001E0000C94480A0C94480A0C94480A0C94480A47
:1001F0000C94480AE921EE21F321F721FB21FF218C
:1002000008220C2210222D222D222D222D222D22D9
:100210002D2214222922FE47124882488848FB4793
:10022000FB47FB47FB47FB47FB47234928492A4934
:1002300038495749494E5433206361746368657384
:10024000206120726973696E672065646765207438
:10025000726967676572210A004572726F72206663
:100260005F6F70656E20696E205344496E666F2E15
:100270006D61742E0A004572726F7220665F6C7336
:1002800065656B20696E2072656D61696E656420BD
:10029000646174612E0A004572726F7220665F6C31
:1002A0007365656B20696E205344496E666F2E6DD1
:1002B00061742E0A004572726F7220696E20665F4B
:1002C0006C7365656B20696E207570646174655F21
:1002D00066756E63436E745F79206C6F6164206E27
:1002E000657874206275666665720A0072657320AF
:1002F0003D202025750A004572726F7220696E20BC
:10030000665F7265616420696E20696E2075706435
:100310006174655F66756E63436E745F790A00721F
:100320006573203D202025750A0052696E672062A2
:1003300075666665722066756E6374696F6E5F5967
:100340002069732066756C6C0A0052696E672062C2
:1003500075666665722066756E6374696F6E5F5947
:1003600020697320656D7074790A004572726F722E
:1003700020696E20665F6C7365656B20696E206610
:10038000657463685F7570646174655F66756E63DC
:10039000580A00726573203D202025750A004572B9
:1003A000726F7220696E20665F7265616420696E8B
:1003B00020696E2066657463685F7570646174653A
:1003C0005F66756E63580A00726573203D202025B4
:1003D000750A0052696E67206275666665722066EE
:1003E000756E6374696F6E5F782069732066756CD3
:1003F0006C0A0052696E67206275666665722066D7
:10040000756E6374696F6E5F7820697320656D70B7
:1004100074790A004572726F7220696E707574206B
:10042000666F722066756E6374696F6E20636861B3
:100430006E6E656C2E0A006E756D5F627566666520
:10044000725F6C6F61645F79203D2025750A006CD6
:100450006173745F6C6F61645F79203D2025750A5C
:100460000066756E6353697A655F79203D20257556
:100470000A004572726F7220665F6F70656E206948
:100480006E207365745F76656C5F66756E63205968
:100490002E0A004572726F7220665F726561642079
:1004A000696E207365745F76656C5F66756E632038
:1004B000592E0A0053657474696E672076656C6FF7
:1004C000636974792066756E6374696F6E20257533
:1004D00020666F7220590A006E756D5F62756666E0
:1004E00065725F6C6F61645F78203D2025750A003E
:1004F0006C6173745F6C6F61645F78203D2025755B
:100500000A0066756E6353697A655F78203D202521
:10051000750A004572726F7220665F6F70656E209B
:10052000696E207365745F76656C5F66756E6320B7
:10053000582E0A004572726F7220665F72656164A0
:1005400020696E207365745F76656C5F66756E6397
:1005500020582E0A0053657474696E672076656CA6
:100560006F636974792066756E6374696F6E20209D
:10057000257520666F7220580A004572726F7220CE
:10058000696E70757420666F722066756E6374692B
:100590006F6E206368616E6E656C2E0A006E756DFD
:1005A0005F6275666665725F6C6F61645F79203D3E
:1005B0002025750A006C6173745F6C6F61645F79EC
:1005C000203D202575200A0066756E6353697A65A3
:1005D0005F79203D2025750A004572726F72206692
:1005E0005F6F70656E20696E207365745F706F73E6
:1005F0005F66756E6320592E0A004572726F722015
:10060000665F72656164207365745F706F735F66A7
:10061000756E6320592E0A0053657474696E6720E5
:10062000706F736974696F6E2066756E6374696F3D
:100630006E20257520666F7220590A006E756D5FF9
:100640006275666665725F6C6F61645F78203D20DD
:1006500025750A006C6173745F6C6F61645F78204C
:100660003D2025750A0066756E6353697A655F786B
:10067000203D2025750A004572726F7220665F6FFB
:1006800070656E20696E207365745F706F735F664E
:10069000756E6320582E0A004572726F7220665F75
:1006A00072656164207365745F706F735F66756EE9
:1006B0006320580A0053657474696E6720706F7305
:1006C0006974696F6E2066756E6374696F6E20253C
:1006D0007520666F7220580A0057726F6E67206629
:1006E000756E6374696F6E206368616E6E656C20F1
:1006F0006E756D6265722E0A0053657474696E675B
:100700002064656661756C742066756E6374696FCC
:100710006E20666F7220592E0A0053657474696EDC
:10072000672064656661756C742066756E637469B4
:100730006F6E20666F7220582E0A002062656E630D
:10074000685F74696D65203D20256C75206D732C84
:10075000206672616D655F72617465203D2025754C
:100760000A0043616E6E6F742066696E642074685F
:100770006520686172647761726520636F6E666977
:10078000672066696C65206F6E207468652053442D
:1007900020636172642E0A00537563636573736628
:1007A000756C6C79206C6F61642074686520686179
:1007B00072647761726520636F6E6669672066692F
:1007C0006C6520746F20454550524F4D0A004572AC
:1007D000726F72206F70656E696E672070617474DD
:1007E00065726E2066696C650A004572726F7220D0
:1007F00072656164696E6720696E207061747465EA
:10080000726E2066696C650A002020785F6E756DD7
:10081000203D2025750A2020795F6E756D203D20D2
:1008200025750A20206E756D5F70616E656C732092
:100830003D2025750A202067735F76616C75652001
:100840003D2025750A20726F775F636F6D7072654A
:100850007373696F6E203D2025750A0053657474AB
:10086000696E67207061747465726E2025753A0A2E
:10087000005375636365737366756C6C79206C6F78
:100880006164207061747465726E20257520746FC8
:10089000207468652070616E656C730A0045727221
:1008A0006F72206F70656E696E6720706174746519
:1008B000726E2066696C650A004572726F722072F2
:1008C000656164696E6720696E2070617474657219
:1008D0006E2066696C650A004661696C6564207407
:1008E0006F206C6F61642074686973205061747448
:1008F00065726E20746F2050616E656C730A0054CF
:10090000686973207061747465726E2073697A65AA
:1009100020697320256C750A005061747465726ECD
:100920002073697A65206973207570746F20383080
:10093000302062797465207065722070616E656C1C
:100940002E0A00524553203D2025752C20665F6EEF
:10095000756D3D2025752C206F6666736574203D8E
:1009600020256C750A004572726F7220696E2066D0
:100970005F6C7365656B20696E206C6F616450619C
:10098000747465726E3250616E656C73210A005228
:100990004553203D2025752C20665F6E756D3D20EA
:1009A00025752C20636E743D2025750A00457272F2
:1009B0006F7220696E20665F7265616420696E20C7
:1009C0006C6F61645061747465726E3250616E65F3
:1009D0006C73210A00202062797465735F70657200
:1009E0005F70616E656C5F6672616D65203D20258C
:1009F000750A202062797465735F7065725F70613B
:100A00006E656C5F7061747465726E203D20257533
:100A10000A002020785F6E756D203D2025750A2024
:100A200020795F6E756D203D2025750A20206E753A
:100A30006D5F70616E656C73203D2025750A202006
:100A400067735F76616C7565203D2025750A20729D
:100A50006F775F636F6D7072657373696F6E203D42
:100A60002025750A007072656C6F61642070617476
:100A70007465726E2025753A0A00524553203D2058
:100A800025752C20665F6E756D3D2025752C206FB9
:100A90006666736574203D20256C750A0045727288
:100AA0006F7220696E20665F6C7365656B20696E7E
:100AB0002066657463685F646973706C61795F66F2
:100AC00072616D65210A00524553203D2025752C29
:100AD00020665F6E756D3D2025752C20636E743D1C
:100AE0002025750A004572726F7220696E20665F5C
:100AF0007265616420696E2066657463685F64690D
:100B000073706C61795F6672616D65210A0053755F
:100B100063636573732073657420746865206E6504
:100B200077206C61736572207061747465726E2ECB
:100B30000A007365745F6761696E5F626961733A29
:100B4000206761696E5F783D2025642C20206269F2
:100B500061735F783D2025642C206761696E5F7941
:100B60003D2025642C20626961735F793D25640A0C
:100B7000007365745F706F736974696F6E3A206992
:100B80006E6465785F783D2025752C2020696E6441
:100B900065785F793D2025752C20616E6420667232
:100BA000616D655F6E756D3D2025750A0066756E19
:100BB0006374696F6E205920757064617465206676
:100BC00072657175656E6379203D2025752E0A006A
:100BD00066756E6374696F6E2058207570646174F9
:100BE00065206672657175656E6379203D20257597
:100BF0002E0A004144435F76616C7565203D2020DC
:100C000025643A0A007265736F6C7574696F6E5F64
:100C100079203D202025643A0A007265736F6C7557
:100C200074696F6E5F78203D202025643A0A004485
:100C3000697361626C656420496E743320657874F1
:100C400065726E616C2074726967676572206D6F82
:100C50006465210A00456E61626C656420496E74AA
:100C6000332065787465726E616C20747269676791
:100C70006572206D6F6465206973206F6E210A00B4
:100C8000526573657420636F6E74726F6C6C6572FD
:100C900020746F20776F726B20696E2074686520F6
:100CA00050432064756D70696E67206D6F646521B7
:100CB0000A00526573657420636F6E74726F6C6C9A
:100CC000657220746F20776F726B20696E20746874
:100CD0006520636F6E74726F6C6C6572206D6F64EB
:100CE00065210A007570646174653A2025642025C9
:100CF0006420256420256420256420256420256443
:100D00002025643A0A0043757272656E7420766518
:100D10007273696F6E206E756D62657220697320E3
:100D200025732E0A0043757272656E7420776F7298
:100D30006B696E67206D6F646520697320746865E8
:100D40002050432064756D70696E67206D6F646517
:100D5000210A0043757272656E7420776F726B6939
:100D60006E67206D6F646520697320746865204329
:100D70006F6E74726F6C6C6572206D6F6465210AA2
:100D8000003F3F3F0A00204E4F54205245414459F6
:100D9000210A002057524954452050524F54454390
:100DA000544544210A00204552524F52210A002046
:100DB000464154204F4B210A00496E697469616CA9
:100DC000697A696E6720464154204469736B2E2E00
:100DD0002E003F3F3F0A00534448430A00424C4B19
:100DE0000A005344430A005344320A0053440A00A1
:100DF0004D4D430A004361726420747970653A2056
:100E0000005344206361726420697320696E6974C1
:100E100069616C697A65640A00496E697469616C1C
:100E2000697A6174696F6E206661696C65642121FD
:100E3000210A005344206361726420697320577251
:100E40006974652050726F746563746564210A006B
:100E5000496E736572742053442063617264000AA2
:100E60004D61696E20436F6E74726F6C6C65722099
:100E7000576F726B730A0043616E6E6F7420666900
:100E80006E64207468652070616E656C2025642E28
:100E90000A00426164206578697420636D642C20C7
:100EA000726573756C74203D2025750A00646F6E41
:100EB0002774206B6E6F7720686F7720746F2064C3
:100EC00065616C20776974682072656374797065F8
:100ED0003D2564206174206C696E65202564206F57
:100EE0006620656570726F6D2E6865780A000A006D
:100EF000766572696679206D69736D6174636820C7
:100F0000666F7220706167652025640A00766572DD
:100F1000696679206D69736D6174636820666F72AC
:100F200020706167652025640A00636865636B73E0
:100F3000756D3D3078253032782C20636F6D70757B
:100F400074656420636865636B73756D3D307825E7
:100F50003032780A004552524F523A206368656336
:100F60006B73756D206D69736D6174636820617456
:100F7000206C696E65202564206F6620656570723F
:100F80006F6D2E6865780A000A7665726966796900
:100F90006E673A20004572726F7220665F6C7365EF
:100FA000656B20696E20656570726F6D2E6865785F
:100FB0002E0A00646F6E2774206B6E6F7720686F47
:100FC0007720746F206465616C2077697468207283
:100FD0006563747970653D2564206174206C696E69
:100FE00065202564206F6620656570726F6D2E68C0
:100FF00065782E0A00636865636B73756D3D3078A4
:10100000253032782C20636F6D70757465642063B1
:101010006865636B73756D3D3078253032780A00F2
:101020004552524F523A20636865636B73756D2069
:101030006D69736D61746368206174206C696E659D
:10104000202564206F6620656570726F6D2E68655F
:10105000782E0A000A77726974696E673A20202038
:10106000004261642070616E656C20726573657406
:101070002C20726573756C74203D2025750A0065FF
:101080006570726F6D2070616E656C2025752E0A1B
:10109000004572726F7220665F6F70656E20696EB8
:1010A00020656570726F6D2E6865782E0A00255375
:1010B0000A004F4B004449534B5F45525200494E82
:1010C000545F455252004E4F545F524541445900BF
:1010D0004E4F5F46494C45004E4F5F5041544800CB
:1010E000494E56414C49445F4E414D450044454EA2
:1010F00049454400455849535400494E56414C49CE
:10110000445F4F424A4543540057524954455F504B
:10111000524F54454354454400494E56414C49446E
:101120005F4452495645004E4F545F454E41424C34
:101130004544004E4F5F46494C455F535953544513
:101140004D004D4B46535F41424F5254454400546D
:10115000494D454F5554000043616E6E6F742066D3
:10116000696E64207468652070616E656C2025640A
:101170002E0A00426164206578697420636D642CD6
:1011800020726573756C74203D2025750A00646FAC
:101190006E2774206B6E6F7720686F7720746F20D6
:1011A0006465616C20776974682072656374797016
:1011B000653D2564206174206C696E65202564207E
:1011C0006F662070616E656C2E6865780A000A0093
:1011D000766572696679206D69736D6174636820E4
:1011E000666F7220706167652025640A00766572FB
:1011F000696679206D69736D6174636820666F72CA
:1012000020706167652025640A00636865636B73FD
:10121000756D3D3078253032782C20636F6D707598
:1012200074656420636865636B73756D3D30782504
:101230003032780A004552524F523A206368656353
:101240006B73756D206D69736D6174636820617473
:10125000206C696E65202564206F662070616E6564
:101260006C2E6865780A000A766572696679696E1F
:10127000673A20004572726F7220665F6C73656515
:101280006B20696E2070616E656C2E6865782E0A21
:1012900000646F6E2774206B6E6F7720686F772005
:1012A000746F206465616C2077697468207265636F
:1012B000747970653D2564206174206C696E6520C9
:1012C0002564206F662070616E656C2E6865780AF3
:1012D00000636865636B73756D3D307825303278D7
:1012E0002C20636F6D707574656420636865636B33
:1012F00073756D3D3078253032780A004552524F73
:10130000523A20636865636B73756D206D69736D08
:1013100061746368206174206C696E6520256420A7
:101320006F662070616E656C2E6865782E0A000A03
:1013300077726974696E673A2020200042616420E8
:1013400070616E656C2072657365742C20726573B4
:10135000756C74203D2025750A00666C61736820E9
:1013600070616E656C2025752E0A004572726F7271
:1013700020665F6F70656E20696E2070616E656CAF
:101380002E6865782E0A0042616420666C6173687D
:1013900020726561642C20726573756C74203D2029
:1013A00025750A00230042616420666C6173682021
:1013B000726561642C20726573756C74203D202504
:1013C000750A00230042616420656570726F6D20AC
:1013D00077726974652C20726573756C74203D207A
:1013E00025750A00230042616420666C61736820E1
:1013F000726561642C20726573756C74203D2025C4
:10140000750A00230042616420666C617368207273
:101410006561642C20726573756C74203D202575A0
:101420000A00230042616420666C61736820777251
:101430006974652C20726573756C74203D20257568
:101440000A00230011241FBECFEFDFE3DEBFCDBFB4
:1014500000E00CBF18BE19BE1ABE1BBE13E2A0E00E
:10146000B0E2EAE0F5EA00E00BBF02C007900D929F
:10147000AC3FB107D9F71BBE1BE2ACEFB3E201C032
:101480001D92A930B107E1F70E9415260C948352F2
:101490000C940000AC0120E030E0F901EF55FA4D6A
:1014A000DA01A20FB31F8C9180832F5F3F4F2E3341
:1014B000310599F708951F920F920FB60F9208B653
:1014C0000F9209B60F920BB60F92112418BE19BED7
:1014D0001BBE0F932F933F934F935F936F937F9315
:1014E0008F939F93AF93BF93EF93FF931092042436
:1014F0001092052410929C201092FC238CE19BE119
:101500004EE450E060E070E021E001E00E943E38EF
:1015100088E595E14EE450E060E070E022E000E014
:101520000E943E3885EE94E14EE450E060E070E0C9
:1015300023E00E943E388091A1204091A320509149
:10154000A420882331F060E070E083EE92E124E093
:1015500006C060E070E083EE92E124E001E00E94CA
:101560003E388091A2204091A5205091A62088234A
:1015700039F060E070E08FED91E125E000E006C019
:1015800060E070E08FED91E125E001E00E943E38DF
:1015900084E392E00E94A44BFF91EF91BF91AF9141
:1015A0009F918F917F916F915F914F913F912F917B
:1015B0000F910F900BBE0F9009BE0F9008BE0F90B9
:1015C0000FBE0F901F901895813021F0823009F0E6
:1015D00065C032C08091B120882321F48AE197E070
:1015E0000E94A44B10920C2410920D2484E690E0EB
:1015F000A0E0B0E08093A9209093AA20A093AB2014
:10160000B093AC20E8E2F7E28AE090E08193919316
:1016100027E2E03FF207D1F71092042481E08093A3
:10162000A12081E090E08093B2209093B3201092AB
:1016300010241092112408958091B120882321F460
:1016400089EF96E00E94A44B10920E2410920F2472
:1016500084E690E0A0E0B0E08093AD209093AE20CF
:10166000A093AF20B093B020E8ECF4E28AE090E0E1
:101670008193919325E2E039F207D1F71092052486
:1016800081E08093A22081E090E08093B420909349
:10169000B5201092122410921324089589ED96E03B
:1016A0000E94A44B0895AC0120E030E0F901EF5511
:1016B000FA4DDA01A20FB31F8C9186AF2F5F3F4F17
:1016C0002F33310599F78091B120882321F48EE0E2
:1016D0009BE00E94A44B0895A4E3B0E0E2E7FBE0A6
:1016E0000C94234D8CE097E266EB70E241E00E949F
:1016F0002540882309F0ADC08090162770911727E8
:10170000682D809118279091192722E330E040E05E
:1017100050E00E94E54C79018A019924939422E3D8
:10172000322E93E0692E712C6C0E7D1E2E010894D2
:10173000411C511C36C0939CC0011124C2975C010E
:10174000CC24B7FCC094DC2C8CE097E2B601A50158
:101750000E94C53B882301F58091122790911327A1
:10176000A0911427B09115278A159B05AC05BD05DE
:1017700099F48CE097E2B30142E350E092010E94B9
:10178000373E882369F489819A81C29749F4C3015D
:1017900062E30E94DC3604C087E992E00E94A44B19
:1017A0009394892D90E0A0E0B0E0E816F9060A07CE
:1017B0001B0708F0C0CF82E3989EC0011124C29796
:1017C0005C01CC24B7FCC094DC2C8CE097E2B60121
:1017D000A5010E94C53B882399F58091122790911D
:1017E0001327A0911427B09115278A159B05AC05E6
:1017F000BD0531F5C801B70122E330E040E050E01B
:101800000E949F4CD82CD61A0D2D10E083E0E82EB4
:10181000F12CEC0EFD1E8CE097E2B701A8019E01B1
:101820002F5F3F4F0E94373E882371F489819A8150
:101830008017910749F4C7016D2D0E94DC3604C062
:1018400086E792E00E94A44B8CE097E20E947D3AEA
:1018500004C089E592E00E94A44BE496E1E10C9477
:101860003F4DA6E6B0E0E7E3FCE00C942D4D982F49
:10187000D62E80910924843618F08AE293E0AEC017
:10188000913031F41092092410920524109207240B
:1018900084E6D89EC001112480509E4F7C0100E058
:1018A00010E080E296E2B801A7010E94C53B282F14
:1018B000882309F07CC08091262690912726A0914C
:1018C0002826B09129268E159F05A007B10709F09B
:1018D0006EC02D2D30E08091B4209091B5200197FD
:1018E0002817390739F40091122410911324011597
:1018F000110511F404E610E080E296E2BE016D5F8E
:101900007F4FA8019E012F5F3F4F0E94373E282F37
:10191000882329F489819A8180179107C9F000D022
:101920000F92EDB7FEB731968FE193E0ADB7BEB73A
:1019300011968D939C931297228313820E94E64BFB
:101940000F900F900F900F9087EF92E00E94A44BA2
:1019500069817A81DE01139640E050E024C0E09175
:101960000724F0E0EE0FFF1FE853FB4D11963C916A
:10197000119720E08C918901080F111D00831183BC
:10198000809107248F5F80930724809107248436F9
:1019900010F010920724809109248F5F809309240E
:1019A0004E5F5F4F129646175707C8F219C000D016
:1019B0000F92EDB7FEB731968CEE92E0ADB7BEB7A1
:1019C00011968D939C931297228313820E94E64B6B
:1019D0000F900F900F900F9085EB92E00E94A44B18
:1019E000CA59DF4FE7E00C94494DA6E6B0E0EBEFB3
:1019F000FCE00C942C4D982F80910824843618F02C
:101A000083ED93E0B3C0913031F41092042410922E
:101A1000062410920824262F30E08091B220909165
:101A2000B32001972817390739F4C0901024D090BB
:101A30001124C114D10419F404E6C02ED12C84E67B
:101A4000689FC001112480509E4F7C0100E010E08F
:101A50008AE994E2B801A7010E94C53B282F882398
:101A600009F06DC08091A0249091A124A091A2249E
:101A7000B091A3248E159F05A007B10709F05FC0A0
:101A80008AE994E2BE016D5F7F4FA6019E012F5F40
:101A90003F4F0E94373E282F882329F489819A815D
:101AA0008C159D05E9F08091B1208823C9F400D000
:101AB0000F92EDB7FEB7319688EC93E0ADB7BEB7A5
:101AC00011968D939C931297228313820E94E64B6A
:101AD0000F900F900F900F908EE993E00E94A44B0F
:101AE00069817A81DE01139640E050E024C0E091E4
:101AF0000624F0E0EE0FFF1FE85DF84D11963C91D3
:101B0000119720E08C918901080F111D008311832A
:101B1000809106248F5F809306248091062484366A
:101B200010F010920624809108248F5F809308247F
:101B30004E5F5F4F129646175707C8F219C000D084
:101B40000F92EDB7FEB7319683E993E0ADB7BEB71C
:101B500011968D939C931297228313820E94E64BD9
:101B60000F900F900F900F908BE693E00E94A44B84
:101B7000CA59DF4FE8E00C94484DAEE0B2E0E3EC28
:101B8000FDE00C942E4D082F162F6A3080F400D003
:101B900000D0EDB7FEB73196CE010396ADB7BEB714
:101BA00011968D939C93129780E090E21FC0CE0116
:101BB0000396643670F400D000D0EDB7FEB73196CE
:101BC000ADB7BEB711968D939C9312978EE090E2BD
:101BD0000DC000D000D0EDB7FEB73196ADB7BEB79F
:101BE00011968D939C9312978BE190E2828393835D
:101BF000148315820E94824FEDB7FEB73696EDBF73
:101C0000FEBF013021F0023009F090C1C7C08AE95F
:101C100094E20E947D3A8AE994E2BE016D5F7F4FB3
:101C200041E00E942540882309F044C08AE994E2FB
:101C3000BE01615F7F4F40E052E09E012F5F3F4F4A
:101C40000E94373E882399F589819A81805092407D
:101C500071F58F858093A92088898093AA2089892E
:101C60008093AB208A898093AC2010930C2410922F
:101C70000D2400939C201092FC238091B120882396
:101C8000E9F400D00F92EDB7FEB7319685E595E007
:101C9000ADB7BEB711968D939C93129712831382A2
:101CA0000E94E64B0F900F900F900F9007C084E3B7
:101CB00095E002C083E195E00E94A44BE090A9204A
:101CC000F090AA200091AB201091AC20C801B70180
:101CD00024E630E040E050E00E94E54C60931024A0
:101CE00070931124672B49F4C801B70124E630E052
:101CF00040E050E00E94E54C0AC0C801B70124E66C
:101D000030E040E050E00E94E54C2F5F3F4F2093D1
:101D1000B2203093B3208091B1208823C1F500D048
:101D200000D082E095E0EDB7FEB781839283ADB736
:101D3000BEB71396ED92FD920D931C9316970E94D9
:101D4000E64B0F900F9080EF94E0EDB7FEB78183E4
:101D500092838091102490911124838394830E9414
:101D6000E64B88ED94E0ADB7BEB711968D939C938A
:101D700012978091B2209091B32013968D939C93EB
:101D800014970E94E64B0F900F900F900F901092B7
:101D9000A12081E060E00E94F50CCCC080E296E2D8
:101DA0000E947D3A80E296E2BE016D5F7F4F41E086
:101DB0000E942540882309F045C080E296E2BE01DA
:101DC000615F7F4F40E052E09E012F5F3F4F0E94D6
:101DD000373E8823A1F589819A818050924079F518
:101DE0008F858093AD2088898093AE2089898093E8
:101DF000AF208A898093B02010930E2410920F2474
:101E000081E080939C201092FC238091B120882354
:101E1000E9F400D00F92EDB7FEB7319684EB94E071
:101E2000ADB7BEB711968D939C9312971283138210
:101E30000E94E64B0F900F900F900F9007C083E920
:101E400094E002C082E794E00E94A44BE090AD20B1
:101E5000F090AE200091AF201091B020C801B701E2
:101E600024E630E040E050E00E94E54C609312240C
:101E700070931324672B49F4C801B70124E630E0BE
:101E800040E050E00E94E54C0AC0C801B70124E6DA
:101E900030E040E050E00E94E54C2F5F3F4F209340
:101EA000B4203093B5208091B1208823C1F500D0B3
:101EB00000D081E694E0EDB7FEB781839283ADB7A1
:101EC000BEB71396ED92FD920D931C9316970E9448
:101ED000E64B0F900F908FE494E0EDB7FEB781834F
:101EE00092838091122490911324838394830E947F
:101EF000E64B87E394E0ADB7BEB711968D939C9304
:101F000012978091B4209091B52013968D939C9355
:101F100014970E94E64B0F900F900F900F90109225
:101F2000A22081E060E00E94310C04C084E194E0D2
:101F30000E94A44BC25FDD4FE6E00C944A4DAEE038
:101F4000B2E0E5EAFFE00C942E4D082F162F6A3020
:101F500080F400D000D0EDB7FEB73196CE010396E5
:101F6000ADB7BEB711968D939C93129787E290E21E
:101F70001FC0CE010396643670F400D000D0EDB7D8
:101F8000FEB73196ADB7BEB711968D939C9312975D
:101F900085E390E20DC000D000D0EDB7FEB73196DA
:101FA000ADB7BEB711968D939C93129782E490E2E1
:101FB00082839383148315820E94824FEDB7FEB70C
:101FC0003696EDBFFEBF013021F0023009F094C11A
:101FD000C7C08AE994E20E947D3A8AE994E2BE0190
:101FE0006D5F7F4F41E00E942540882309F044C087
:101FF0008AE994E2BE01615F7F4F40E052E09E01BA
:102000002F5F3F4F0E94373E882399F589819A813F
:102010008050924071F58F858093A92088898093A4
:10202000AA2089898093AB208A898093AC20109361
:102030000C2410920D2400939C201092FC2380917C
:10204000B1208823E9F400D00F92EDB7FEB73196A6
:1020500085EB96E0ADB7BEB711968D939C93129722
:10206000128313820E94E64B0F900F900F900F90F7
:1020700007C088E996E002C087E796E00E94A44B7B
:10208000E090A920F090AA200091AB201091AC2004
:10209000C801B70124E630E040E050E00E94E54C82
:1020A0006093102470931124672B49F4C801B70181
:1020B00024E630E040E050E00E94E54C0AC0C80150
:1020C000B70124E630E040E050E00E94E54C2F5F8D
:1020D0003F4F2093B2203093B3208091B1208823CA
:1020E000C1F500D000D086E696E0EDB7FEB781835B
:1020F0009283ADB7BEB71396ED92FD920D931C93EC
:1021000016970E94E64B0F900F9084E596E0EDB78E
:10211000FEB7818392838091102490911124838350
:1021200094830E94E64B8CE396E0ADB7BEB7119660
:102130008D939C9312978091B2209091B320139627
:102140008D939C9314970E94E64B0F900F900F90E5
:102150000F901092A12081E060E00E94F50CD0C0A9
:1021600080E296E20E947D3A80E296E2BE016D5FD7
:102170007F4F41E00E942540882309F045C080E25E
:1021800096E2BE01615F7F4F40E052E09E012F5F0B
:102190003F4F0E94373E8823A1F589819A81805064
:1021A000924079F58F858093AD2088898093AE2009
:1021B00089898093AF208A898093B02010930E2460
:1021C00010920F2481E080939C201092FC23809138
:1021D000B120882309F500D00F92EDB7FEB73196F4
:1021E00088E196E0ADB7BEB711968D939C93129798
:1021F000128313820E94E64B0F900F900F900F9066
:102200000BC08AEF95E006C08091B120882321F4AD
:1022100089ED95E00E94A44BE090AD20F090AE20B7
:102220000091AF201091B020C801B70124E630E042
:1022300040E050E00E94E54C609312247093132418
:10224000672B49F4C801B70124E630E040E050E0D4
:102250000E94E54C0AC0C801B70124E630E040E026
:1022600050E00E94E54C2F5F3F4F2093B420309305
:10227000B5208091B1208823C1F500D000D088EC32
:1022800095E0EDB7FEB781839283ADB7BEB71396E5
:10229000ED92FD920D931C9316970E94E64B0F90C2
:1022A0000F9085EB95E0EDB7FEB781839283809127
:1022B000122490911324838394830E94E64B8DE92A
:1022C00095E0ADB7BEB711968D939C931297809110
:1022D000B4209091B52013968D939C9314970E94EF
:1022E000E64B0F900F900F900F901092A22081E07C
:1022F00060E00E94310C04C08AE795E00E94A44B84
:10230000C25FDD4FE6E00C944A4D1F93CF93DF93FD
:10231000162FEA01882349F580919F258823E1F74C
:1023200082E995E260E0AE01212F0E94163980918A
:102330009A288823E1F78DE898E260E0AE01212F2A
:102340000E941639809147268823E1F78AE396E2B6
:1023500060E0AE01212F0E9416398091C3248823AA
:10236000E1F786EB94E260E022C0E82FF0E0DF01C5
:10237000A65BB94DAC91E051F84D6081AA23D9F02C
:10238000A33051F0A43059F0A23019F4ADE8B8E20E
:1023900008C0A2E9B5E205C0AAE3B6E202C0A6EB16
:1023A000B4E21D968C911D978823D9F7CD01AE011B
:1023B000212F0E941639DF91CF911F910895A2E03D
:1023C000B0E0E5EEF1E10C94244D809109248823DE
:1023D00029F48AE493E00E94A44BF1C08091052483
:1023E0008F5F8093052480910524843610F010922D
:1023F0000524809109248150809309248091092724
:10240000843009F44AC0853009F492C0833009F061
:10241000A3C083E00E944E2A40919F205091A020AB
:10242000C090C524D090C6242601662477247A0162
:1024300000E010E053014201880C991CAA1CBB1C4F
:102440004817590708F4CA019C0140E050E0C50153
:10245000B4010E949F4C6E0D7F1D801F911FEE0CDA
:10246000FF1C001F111FA80197010E94074D21505A
:10247000304040405040241535054605570534F09E
:102480000894C108D108960140E050E057FF20C0F1
:1024900020E030E040E050E01BC0E0910524F0E097
:1024A000EE0FFF1FE853FB4D0190F081E02D80916E
:1024B000902590919125E80FF91F2091C524309126
:1024C000C624F7FD0AC0CF01B9010E94BE4C9C0191
:1024D000209371283093722810C0882799278E1B6B
:1024E0009F0BB9010E94BE4C21503040A901481BEE
:1024F000590B409371285093722820917128309184
:1025000072284091CD265091CE2680912627909119
:102510002727BC01269FC001279F900D369F900D55
:102520001124840F951F809302249093032414C0D8
:10253000E0910524F0E0EE0FFF1FE853FB4D808192
:102540009181BC0125E0660F771F2A95E1F7680F9E
:10255000791F81E00E94BE2A80910024882379F1AE
:10256000809109278350823050F580910324806F39
:102570008983809102248A8380E062E0AE014F5F0C
:102580005F4F0E948511609171287091722880E0E0
:1025900090E06F5F7F4F8F4F9F4F2FEF3FE740E0FF
:1025A00050E00E949F4C2091C5243091C62440E009
:1025B00050E00E94E54C81E0B9010E94BE2A2296BB
:1025C000E0E10C94404DA2E0B0E0E9EEF2E10C94C1
:1025D000244D80910824882329F483EF93E00E94FE
:1025E000A44B11C1809104248F5F809304248091B7
:1025F0000424843610F01092042480910824815021
:10260000809308248091CB26843009F463C0853000
:1026100009F4AAC0833009F0BBC082E00E944E2AB0
:1026200040919D2050919E20C0902627D090272732
:102630002601662477247A0100E010E0530142016C
:10264000880C991CAA1CBB1C4817590708F4CA011E
:102650009C0140E050E0C501B4010E949F4C6E0D0A
:102660007F1D801F911FEE0CFF1C001F111FA80172
:1026700097010E94074D21503040404050402415A2
:102680003505460557054CF00894C108D108960158
:1026900040E050E00894C11CD11C57FF04C020E06A
:1026A00030E040E050E02093CD263093CE2680915C
:1026B0007128909172282091CD263091CE26AC01C0
:1026C0004C9DC0014D9D900D5C9D900D1124820F7D
:1026D000931F45C0E0910424F0E0EE0FFF1FE85D7A
:1026E000F84D0190F081E02D80911E2690911F26DB
:1026F000E80FF91F2091262730912727F7FD09C001
:10270000CF01B9010E94BE4C8093CD269093CE2676
:1027100010C0882799278E1B9F0BB9010E94BE4CC1
:1027200021503040B901681B790B6093CD2670931E
:10273000CE2620917128309172284091CD2650915B
:10274000CE268091262790912727BC01269FC00185
:10275000279F900D369F900D1124840F951F809315
:1027600002249093032414C0E0910424F0E0EE0FBF
:10277000FF1FE85DF84D80819181BC01E5E0660FA7
:10278000771FEA95E1F7680F791F80E00E94BE2A63
:10279000809100248823B9F18091CB268350823028
:1027A00090F581E061E00E941C2A80910324806FF3
:1027B0008983809102248A8380E062E0AE014F5FCA
:1027C0005F4F0E9485116091CD267091CE2680E0EA
:1027D00090E06F5F7F4F8F4F9F4F2FEF3FE740E0BD
:1027E00050E00E949F4C209126273091272740E0FF
:1027F00050E00E94E54C80E0B9010E94BE2A81E0D1
:1028000060E00E941C2A2296E0E10C94404DA2E078
:10281000B0E0EDE0F4E10C94324D8091712890919C
:102820007228892B29F48091C5249091C62404C074
:1028300080917128909172280197809371289093CC
:10284000722820917128309172284091CD265091A4
:10285000CE268091262790912727BC01269FC00174
:10286000279F900D369F900D1124840F951F809304
:1028700002249093032480910024813051F58091AB
:102880000324806F8983809102248A8380E062E040
:10289000AE014F5F5F4F0E9485116091712870916A
:1028A000722880E090E06F5F7F4F8F4F9F4F2FEF38
:1028B0003FE740E050E00E949F4C2091C5243091BA
:1028C000C62440E050E00E94E54C81E0B9010E943E
:1028D000BE2A8091FD23882329F48091FC238F5FF9
:1028E0008093FC232296E2E00C944E4DA2E0B0E0EF
:1028F000ECE7F4E10C94324D8091CD269091CE26F8
:10290000892B29F4809126279091272704C0809154
:10291000CD269091CE2601978093CD269093CE26FA
:1029200020917128309172284091CD265091CE2669
:102930008091262790912727BC01269FC001279FC1
:10294000900D369F900D1124840F951F80930224C3
:102950009093032480910024813051F580910324C9
:10296000806F8983809102248A8380E062E0AE01D7
:102970004F5F5F4F0E9485116091CD267091CE26EA
:1029800080E090E06F5F7F4F8F4F9F4F2FEF3FE7CB
:1029900040E050E00E949F4C20912627309127274D
:1029A00040E050E00E94E54C80E0B9010E94BE2A60
:1029B0008091FD23882329F08091FC238F5F8093F1
:1029C000FC232296E2E00C944E4DA2E0B0E0EBEE48
:1029D000F4E10C94324D8091712890917228019607
:1029E00080937128909372282091712830917228D9
:1029F0008091C5249091C6242817390720F01092A1
:102A0000712810927228209171283091722840917B
:102A1000CD265091CE268091262790912727BC0164
:102A2000269FC001279F900D369F900D1124840F83
:102A3000951F809302249093032480910024813079
:102A400051F580910324806F8983809102248A83C9
:102A500080E062E0AE014F5F5F4F0E9485116091A0
:102A600071287091722880E090E06F5F7F4F8F4FE8
:102A70009F4F2FEF3FE740E050E00E949F4C209196
:102A8000C5243091C62440E050E00E94E54C81E02E
:102A9000B9010E94BE2A8091FD23882329F48091E8
:102AA000FC238F5F8093FC232296E2E00C944E4D32
:102AB000A2E0B0E0EEE5F5E10C94324D8091CD2638
:102AC0009091CE2601968093CD269093CE2680912C
:102AD000CD269091CE264091262750912727841706
:102AE000950720F01092CD261092CE268091712865
:102AF000909172282091CD263091CE26BC01649F02
:102B0000C001659F900D749F900D1124820F931F3B
:102B1000809302249093032480910024813051F506
:102B200080910324806F8983809102248A8380E0CE
:102B300062E0AE014F5F5F4F0E9485116091CD262C
:102B40007091CE2680E090E06F5F7F4F8F4F9F4F58
:102B50002FEF3FE740E050E00E949F4C2091262756
:102B60003091272740E050E00E94E54C80E0B90119
:102B70000E94BE2A8091FD23882329F08091FC23A6
:102B80008F5F8093FC232296E2E00C944E4DA1E0EF
:102B9000B0E0EDECF5E10C942A4D5C01FC01E08025
:102BA000F180C280D38084818093012495819093A9
:102BB000492686818093C724882319F09093CC26D8
:102BC00009C0892F90E043E0880F991F4A95E1F7EB
:102BD0008093CC261092FC2381E061E00E941C2AA5
:102BE00091E007E010E00FC0A501400F511F892FB1
:102BF0006091CC2699830E9485118091CC26080F84
:102C0000111D99819F5F80910124891768F77F2D9D
:102C100060E06E0D711D80E00E94BE2A7D2D60E097
:102C20006C0D711D81E00E94BE2A81E060E00E946F
:102C30001C2A2196EAE00C94464DCF93DF93FC01C9
:102C40008081813009F049C0928180E02181DC01DE
:102C5000A20FB11DA0930A27B0930B27948180E0A7
:102C60002381BC01620F711D6093B4247093B5245D
:102C7000968180E02581AC01420F511D4093CF2603
:102C80005093D026908580E02781EC01C20FD11DA2
:102C90009E01C093BF2AD093C02A8091B12088237F
:102CA00011F5EDB7FEB73A97EDBFFEBF319682E35F
:102CB0009BE0CDB7DEB789839A83A283B383648315
:102CC000758346835783208731870E94E64BEDB793
:102CD000FEB73A96EDBFFEBF06C080E068E04EEE5C
:102CE00050E20E948511DF91CF910895FC0180810F
:102CF000803119F08131A9F407C08181738160E0CE
:102D00009281690F711D09C0738160E08281680F33
:102D1000711D8181709561957F4F81500E94BE2AFF
:102D2000089580E068E04EED50E20E94851108951C
:102D3000A2E0B0E0EEE9F6E10C942F4D8C01FC012D
:102D40008081853209F4B5C0863250F4853109F4AA
:102D50009AC0803209F4A0C0803109F01DC18BC037
:102D6000853309F4EEC08F3F21F0803309F014C1A0
:102D7000BEC0F801F18080919F258823E1F782E9A8
:102D800095E26F2D4EEF50E222E00E9416398091BD
:102D90009A288823E1F78DE898E26F2D4EEF50E2F4
:102DA00022E00E941639809147268823E1F78AE3C2
:102DB00096E26F2D4EEF50E222E00E94163980918C
:102DC000C3248823E1F786EB94E26F2D4EEF50E2A7
:102DD00022E00E94163980EF95E520E233E0F90108
:102DE0003197F1F70197D9F78FEF8983F801928135
:102DF00080919F258823E1F79A8382E995E26F2DE0
:102E0000AE014F5F5F4F22E00E94163980919A28F1
:102E10008823E1F78DE898E26F2DAE014F5F5F4F99
:102E200022E00E941639809147268823E1F78AE341
:102E300096E26F2DAE014F5F5F4F22E00E94163980
:102E40008091C3248823E1F786EB94E26F2DAE01D5
:102E50004F5F5F4F22E00E94163984EF91E020E23D
:102E600033E0F9013197F1F70197D9F780E062E09B
:102E70004EEF50E295C0F80181818093CB2682818C
:102E8000809309278FC0F8016281662349F0F80119
:102E900081810E949F0F86C0F8016281662321F420
:102EA00081810E94E40A7EC0F80181810E94BD0DEB
:102EB00079C0F801928180E021818C01020F111DFF
:102EC000980140E050E062E17AE780E090E00E9403
:102ED000074D2093A3203093A4208091B120882314
:102EE00009F060C000D00F9280ED9BE01DC0F8019A
:102EF000928180E021818C01020F111D980140E038
:102F000050E062E17AE780E090E00E94074D209374
:102F1000A5203093A6208091B120882309F042C0DB
:102F200000D00F928DEA9BE0EDB7FEB781839283CC
:102F3000038314830E94E64B0F900F900F900F9025
:102F400031C0F801618170E080E090E02FEF3FE058
:102F500040E050E00E949F4C2AE030E040E050E02A
:102F60000E94E54C20939D2030939E20F8016281C1
:102F700070E080E090E02FEF3FE040E050E00E9402
:102F80009F4C2AE030E040E050E00E94E54C209366
:102F90009F203093A02006C080E068E046ED50E21C
:102FA0000E9485112296E5E00C944B4DA2E8B0E01A
:102FB000ECEDF7E10C942C4D282F8A3080F400D0F2
:102FC00000D0EDB7FEB7319684E194E2ADB7BEB75D
:102FD00011968D939C9312978EE490E21FC084E12A
:102FE00094E2243670F400D000D0EDB7FEB73196ED
:102FF000ADB7BEB711968D939C9312978CE590E276
:103000000DC000D000D0EDB7FEB73196ADB7BEB75A
:1030100011968D939C93129789E690E28283938315
:10302000248315820E94824FEDB7FEB73696EDBF1E
:10303000FEBF8CE097E264E174E241E00E9425402B
:103040008823C9F563E0C62ED12CCC0EDD1E8CE0A2
:1030500097E2B60140E850E09E012F5F3F4F0E948B
:10306000373E882309F589819A8180389105E1F4FA
:103070005BE4E52E56E2F52E00E010E0F601E00FED
:10308000F11F6081D7016D937D010F5F1F4FC80154
:103090008F5F9F4F0E94BD510038110579F781E085
:1030A00090E060E00E94BD518CE097E20E947D3A82
:1030B00088E997E002C082E697E00E94A44BCE57D1
:1030C000DF4FE8E00C94484DAAE2B2E0EAE6F8E10E
:1030D0000C94224D882E8DB79EB7C95DDD4F888335
:1030E0009983C752D2408FB799E0981580F000D0ED
:1030F00000D0EDB7FEB731968CE294E2ADB7BEB723
:1031000011968D939C93129785E790E220C08CE2F4
:1031100094E2F3E6F81570F000D000D0EDB7FEB7FA
:103120003196ADB7BEB711968D939C93129783E8F5
:1031300090E20DC000D000D0EDB7FEB73196ADB72C
:10314000BEB711968D939C93129780E990E282838B
:103150009383848215820E94824FEDB7FEB7369624
:10316000EDBFFEBF83E798E26CE274E241E00E94AB
:103170002540882309F02AC283E798E2BE01695DF1
:103180007F4F40E052E09E012F5F3F4F0E94373E4D
:10319000882309F014C289819A818050924009F0F5
:1031A0000EC28FA18093262788A58093272789A503
:1031B0008093C5248AA58093C6248BA5809301247F
:1031C0004CA5409349262091C5243091C624809176
:1031D000262790912727289F2001299F500C389F50
:1031E000500C1124842F8B50843050F4942F9A501B
:1031F0009093492681E08093C7249093CC260BC0FE
:103200001092C724842F90E0A3E0880F991FAA95FD
:10321000E1F78093CC261092712810927228809149
:103220007128909172288093CD269093CE2610928B
:1032300002241092032481E080939C201092FC23AE
:103240008091CC2690E0849D8001859D100D949DF9
:10325000100D11248091B120882309F054C000D0B2
:103260000F92EDB7FEB7319685E69AE0ADB7BEB7DF
:1032700011968D939C931297828213820E94E64B43
:10328000EDB7FEB73897EDBFFEBF319682E19AE009
:10329000ADB7BEB711968D939C9312978091262758
:1032A00090912727828393838091C5249091C6248F
:1032B0008483958380910124868317828091492697
:1032C000808711868091C724828713860E94E64BEF
:1032D000EDB7FEB73696EDBFFEBF319685ED99E0AE
:1032E000ADB7BEB711968D939C9312978091CC2663
:1032F00082831382048315830E94E64BEDB7FEB7E9
:103300003696EDBFFEBFF3E001321F0708F02EC175
:103310001B821C82F3E02F2E312C2C0E3D1EE5E08B
:10332000AE2EB12CAC0EBD1E1AC18DB7C75DDD4FE0
:103330008883C952D2409EB7C65DDD4F9883CA527A
:10334000D2409091CC2680910124989F6001112455
:10335000ADB7BEB7AC19BD09ADBFBEBF6DB67EB6C9
:103360000894611C711C6D2D66956F5F70E080E0A4
:1033700090E040E050E00E949F4C7B018C0108945B
:10338000E11CF11C011D111D79E0EE0CFF1C001F5A
:10339000111F7A95D1F783E798E2B801A7010E943F
:1033A000C53B982E882309F091C08091792890918F
:1033B0007A28A0917B28B0917C288E159F05A007C4
:1033C000B10709F083C083E798E2B301A6019E012B
:1033D0002F5F3F4F0E94373E182F882309F04FC0C0
:1033E00089819A818C159D0509F049C0E091CC2610
:1033F000F0E095012E0F3F1FD1018C91D9018C93E4
:1034000086E090E08C0F9D1FE80FF91FD101119607
:103410008C91808311E0EE24FF2425C08D9181934F
:103420008E2F8A198617D0F38091C724882319F428
:103430006E5F812F10C080914926833039F084302F
:1034400041F0813059F4812F65E005C0812F66E09D
:1034500002C0812F67E0A5010E9485118091CC26D2
:10346000E80EF11C1F5F80910124811708F465C0EC
:103470006091CC26D301AE0DBF1DF501D1CF809157
:10348000B120882309F059C08DEA99E00E94A44B2D
:10349000EDB7FEB73897EDBFFEBF31968FE899E0E4
:1034A000ADB7BEB711968D939C931297128313827A
:1034B0008B819C818483958389819A81868397837C
:1034C0000E94E64BEDB7FEB7389627C08091B12039
:1034D000882399F586E699E00E94A44B8DB79EB7A4
:1034E0000A978DBF9EBFEDB7FEB7319683E499E092
:1034F000ADB7BEB711968D939C93129792821382AB
:103500008B819C8184839583E682F7820087118773
:103510000E94E64BEDB7FEB73A96EDBFFEBFC75D22
:10352000DD4F8881C952D240C65DDD4F9881CA52B5
:10353000D2409C012DBF3EBF6EC0C75DDD4F2881CC
:10354000C952D240C65DDD4F3881CA52D240C9014E
:103550008DBF9EBF8B819C8101968B839C832B8129
:103560003C812415350508F4E0CE39C00F920F9246
:1035700089E199E0ADB7BEB711968D939C931297F0
:103580000E94E64B0F920F928FEF98E0EDB7FEB7D7
:1035900081839283038314830E94E64B0F900F90E4
:1035A00088ED98E0ADB7BEB711968D939C931297B6
:1035B0000E94E64B109200240F900F902CC0809137
:1035C000B120882341F589EB98E006C08091B120B5
:1035D000882309F58DE998E00E94A44B1CC083E77D
:1035E00098E20E947D3A81E08093002400D00F92FF
:1035F000EDB7FEB7319681E798E0ADB7BEB711964B
:103600008D939C931297828213820E94E64B0F90B7
:103610000F900F900F90C95DDD4FE881F981C7527F
:10362000D240EDBFFEBFC65DDD4FE2E10C943E4DE2
:1036300083E00E943D2A0895EF92FF920F93CF936B
:10364000DF938091CB26813001F1813030F08230E0
:1036500009F44AC0EE24FF2488C0E091042420919C
:103660000A2730910B27220F331FF0E0EE0FFF1FC8
:10367000E85DF84D80819181AC01249FC001259FB8
:10368000900D349F900D11241CC080E00E944E2AA2
:1036900064E070E00E94D24CCB01880F991F880F24
:1036A000991F6AE070E00E94D24C80910A279091A5
:1036B0000B279C01629FC001639F900D729F900D2C
:1036C00011246AE070E00E94D24CCB014091B424F6
:1036D0005091B5249A01220F331F220F331F240F5C
:1036E000351F820F931F3CC080E00E944E2A64E089
:1036F00070E00E94D24CCB01E0910424F0E0EE0F88
:10370000FF1FE85DF84D0190F081E02DEE0FFF1FE7
:103710004091B4245091B5249A01220F331F220FF7
:10372000331F240F351FE20FF31F880F991F880FD7
:10373000991F6AE070E00E94D24C80910A27909114
:103740000B27AC01649FC001659F900D749F900D85
:1037500011246AE070E00E94D24CCF01860F971FBF
:1037600062E070E00E94D24C7B0180910927813099
:1037700001F1813030F0823009F44AC0C0E0D0E07D
:1037800088C0E09105242091CF263091D026220FC9
:10379000331FF0E0EE0FFF1FE853FB4D8081918156
:1037A000AC01249FC001259F900D349F900D1124E2
:1037B0001CC081E00E944E2A64E070E00E94D24C5E
:1037C000CB01880F991F880F991F6AE070E00E9453
:1037D000D24C8091CF269091D0269C01629FC0014F
:1037E000639F900D729F900D11246AE070E00E941B
:1037F000D24CCB014091BF2A5091C02A9A01220F8E
:10380000331F220F331F240F351F820F931F3CC01D
:1038100081E00E944E2A64E070E00E94D24CCB010D
:10382000E0910524F0E0EE0FFF1FE853FB4D0190FF
:10383000F081E02DEE0FFF1F4091BF2A5091C02A6A
:103840009A01220F331F220F331F240F351FE20F5F
:10385000F31F880F991F880F991F6AE070E00E947C
:10386000D24C8091CF269091D026AC01649FC001AC
:10387000659F900D749F900D11246AE070E00E9486
:10388000D24CCF01860F971F62E070E00E94D24CAD
:10389000EB0180919C20813059F11E141F0474F4B7
:1038A0009701442737FD4095542F62E17AE780E085
:1038B00090E00E94E54C88E595E113C0E114F10425
:1038C000C9F0222733272E193F09442737FD409599
:1038D000542F62E17AE780E090E00E94E54C86E7B1
:1038E00094E1BA01A90122E001E00E9464380EC00F
:1038F000C0E0D0E086E794E14EE450E060E070E0A4
:1039000022E000E00E946438EE24FF241C161D060D
:1039100074F49E01442737FD4095542F62E17AE705
:1039200080E090E00E94E54C85EE94E112C0209783
:10393000A9F0222733272C1B3D0B442737FD409548
:10394000542F62E17AE780E090E00E94E54C87E046
:1039500094E1BA01A90123E001E008C087E094E105
:103960004EE450E060E070E023E000E00E94643844
:103970001092FD23EC16FD061CF081E08093FD23E0
:10398000DF91CF910F91FF90EF9008952F923F928A
:103990004F925F926F927F929F92AF92BF92CF921F
:1039A000DF92EF92FF920F931F93DF93CF93CDB7E8
:1039B000DEB72897CDBFDEBF5C012B011A018DB7A2
:1039C0009EB78F8398878FB781E061E00E941C2AA1
:1039D0008091FC23823018F081E00E94AA29109285
:1039E000FC238091CC2690910124899F60011124B1
:1039F000C60191706D2D6695892B09F06F5FADB78B
:103A0000BEB7AC19BD09ADBFBEBF6DB67EB60894DA
:103A1000611C711C70E080E090E0950140E050E096
:103A20000E949F4C7B018C010894E11CF11C011D3C
:103A3000111DE9E0EE0CFF1C001F111FEA95D1F7E4
:103A400083E798E2B801A7010E94C53B982E88231E
:103A500009F0DEC18091792890917A28A0917B2885
:103A6000B0917C288E159F05A007B10709F0D0C141
:103A700083E798E2B301A6019E012F5F3F4F0E94AA
:103A8000373E182F882309F09EC189819A818C15B1
:103A90009D0509F098C1DD24D394EE24FF2473E042
:103AA000A72EB12CAC0EBD1E88C183010E0D1F1DAB
:103AB000C090CC2680919C28813009F075C1B8E077
:103AC000CB16F1F4F801908181819817C9F44281F5
:103AD00083814817A9F434818581381789F42681B8
:103AE0008781281769F4941759F4931749F49217AA
:103AF00039F48D2D61E0A8010E94851151E001C0CB
:103B000050E08091CC26883109F08CC0F301EE0D95
:103B1000FF1DE081D80111968C911197E81709F0EB
:103B200081C012963C91129713968C911397381777
:103B300009F078C014962C91149715968C911597CE
:103B4000281709F06FC016969C91169717968C91BE
:103B50001797981709F066C0E31709F063C0E217DA
:103B600009F060C0E91709F05DC018969C9118979C
:103B700019968C911997981709F054C01A964C9180
:103B80001A971B968C911B97481709F04BC01C96EF
:103B90003C911C971D968C911D97381709F042C0D7
:103BA0001E962C911E971F968C911F972817D1F562
:103BB0009417C1F59317B1F59217A1F550969C9102
:103BC000509751968C915197981761F552964C9158
:103BD000529753968C915397481721F554963C91E0
:103BE000549755968C9155973817E1F456962C9129
:103BF000569757968C9157972817A1F4941791F4DC
:103C0000931781F4921771F4EB8318968C9118979F
:103C10008C8350968C918D838D2D63E0A5010E943D
:103C2000851151E08091CC26803209F0BBC0F301B0
:103C3000EE0DFF1DE081D80111968C911197E817C8
:103C400009F0B0C012963C91129713968C9113977D
:103C5000381709F0A7C014962C91149715968C91DB
:103C60001597281709F09EC016969C9116971796DF
:103C70008C911797981709F095C0E31709F092C037
:103C8000E21709F08FC0E91709F08CC018969C91D3
:103C9000189719968C911997981709F083C01A965E
:103CA0004C911A971B968C911B97481709F07AC074
:103CB0001C963C911C971D968C911D97381709F006
:103CC00071C01E962C911E971F968C911F972817D6
:103CD00009F068C0941709F065C0931709F062C035
:103CE000921709F05FC050969C91509751968C9115
:103CF0005197981709F056C052964C915297539687
:103D00008C915397481709F04DC054963C915497A5
:103D100055968C915597381709F044C056962C91BA
:103D2000569757968C9157972817E1F59417D1F528
:103D30009317C1F59217B1F558969C9158975996DB
:103D40008C915997981771F55A964C915A975B96A2
:103D50008C915B97481731F55C963C915C975D962A
:103D60008C915D973817F1F45E962C915E975F9673
:103D70008C915F972817B1F49417A1F4931791F4DD
:103D8000921781F4EB8318968C9118978C83509638
:103D90008C9150978D8358968C918E838D2D64E0F5
:103DA000A50106C0552331F48D2D6091CC26A801C4
:103DB0000E948511EC0CF11CD394809101248D1587
:103DC00008F073CE4CC08091B120882309F047C021
:103DD00085EE9AE00E94A44BEDB7FEB73897EDBF91
:103DE000FEBF319687EC9AE0ADB7BEB711968D93C2
:103DF0009C93129712831382A482B58289819A813F
:103E0000868397830E94E64BEDB7FEB7389625C0B0
:103E10008091B120882319F58DE99AE00E94A44B86
:103E20008DB79EB70A978DBF9EBFEDB7FEB731968F
:103E30008AE79AE0ADB7BEB711968D939C9312971F
:103E400092821382A482B582E682F782008711876C
:103E50000E94E64BEDB7FEB73A96EDBFFEBF8091EC
:103E6000CB268530C9F0B20180E090E06F5F7F4FD4
:103E70008F4F9F4F2FEF3FE740E050E00E949F4C55
:103E8000209126273091272740E050E00E94E54C02
:103E900080E0B9010E94BE2A809109278530C9F0CF
:103EA000B10180E090E06F5F7F4F8F4F9F4F2FEF0A
:103EB0003FE740E050E00E949F4C2091C5243091A4
:103EC000C62440E050E00E94E54C81E0B9010E9428
:103ED000BE2A8091FE23813059F58091CD269091A4
:103EE000CE264091CD265091CE2663E096958795BB
:103EF0006A95E1F790E0FC01EF55FA4D208130E042
:103F000053E0880F991F5A95E1F7481B87E090E02E
:103F1000841B910902C0359527958A95E2F720FD0B
:103F200003C080E060E002C080E061E00E941C2AE3
:103F300081E060E00E941C2A8F8198858DBF9EBF22
:103F40002896CDBFDEBFCF91DF911F910F91FF90DB
:103F5000EF90DF90CF90BF90AF909F907F906F9049
:103F60005F904F903F902F900895A4E0B0E0EBEB6E
:103F7000FFE10C942A4D81E080939C202091C52480
:103F80003091C6248091262790912727289F5001A1
:103F9000299FB00C389FB00C11240E94744A1982DA
:103FA0001A827E010894E11CF11CF3E0CF2ED12C83
:103FB000CC0EDD1E1FC080910024882361F4609127
:103FC000CD267091CE264091712850917228C8015B
:103FD0000E94C61C0BC0F7018181806F8B8380819A
:103FE0008C8380E062E0A6010E9485110F5F1F4F65
:103FF00009831A8309811A810A151B05E0F20E94C0
:10400000894A7B018C018DB79EB708978DBF9EBFF3
:10401000CDB6DEB60894C11CD11C8BE397E0EDB79A
:10402000FEB781839283F601E282F38204831583D3
:10403000B50180E090E028EE33E040E050E00E94DF
:104040009F4CA80197010E94E54CF6012683378317
:104050000E94E64B8DB79EB708968DBF9EBF2496F3
:10406000EAE00C94464DA2E0B2E0E9E3F0E20C9401
:10407000314D182F8A3080F400D000D0EDB7FEB754
:10408000319680E294E2ADB7BEB711968D939C93C2
:10409000129785E790E21FC080E294E2143670F434
:1040A00000D000D0EDB7FEB73196ADB7BEB71196D0
:1040B0008D939C93129783E890E20DC000D000D0BE
:1040C000EDB7FEB73196ADB7BEB711968D939C9301
:1040D000129780E990E282839383148315820E9471
:1040E000824F8DB79EB706968DBF9EBF83E798E23D
:1040F0000E947D3A83E798E260E274E241E00E9428
:104100002540882309F0ABC083E798E2BE016D5FCC
:104110007F4F40E052E09E012F5F3F4F0E94373EAD
:10412000882309F099C089819A818050924009F0D2
:1041300093C08B81809326278C81809327278D8144
:104140008093C5248E818093C6248F81809301241F
:10415000988590934926892F8B50843048F49A5043
:104160009093492681E08093C7249093CC260BC07E
:104170001092C724892F90E0A3E0880F991FAA9579
:10418000E1F78093CC2610927128109272288091CA
:104190007128909172288093CD269093CE2610920C
:1041A00002241092032481E080939C201092FC232F
:1041B0008091B120882309F040C000D00F92EDB764
:1041C000FEB731968CE598E0ADB7BEB711968D93EA
:1041D0009C931297128313820E94E64B8DB79EB771
:1041E00008978DBF9EBFEDB7FEB7319689E098E086
:1041F000ADB7BEB711968D939C93129780912627E9
:1042000090912727828393838091C5249091C6241F
:104210008483958380910124868317828091492627
:10422000808711868091C724828713860E94E64B7F
:104230008DB79EB70C968DBF9EBF80910224909142
:1042400003246091CD267091CE2640917128509123
:1042500072280E94C61C07C08AEE97E002C08EEC4E
:1042600097E00E94A44B10920024CE5FDD4FE3E064
:104270000C944D4DA2E0B0E0E0E4F1E20C94324D3C
:10428000FC018081803709F08CC0928180E021811F
:10429000820F911D8093CD269093CE26948180E04D
:1042A0002381820F911D80937128909372288091B1
:1042B000CD269091CE2680931E2690931F26809126
:1042C0007128909172288093902590939125209148
:1042D0007128309172284091CD265091CE26809140
:1042E000262790912727BC01269FC001279F900D6C
:1042F000369F900D1124840F951F80930224909374
:1043000003241092FC238091B120882351F5209141
:10431000CD263091CE26409171285091722860911F
:104320000224709103248DB79EB708978DBF9EBF5E
:10433000EDB7FEB7319681E79BE0ADB7BEB71196FA
:104340008D939C9312972283338344835583668392
:1043500077830E94E64B6DB77EB7685F7F4F6DBF76
:104360007EBF80910024882379F48091022490916B
:1043700003246091CD267091CE26409171285091F2
:1043800072280E94C61C13C080910324806F898309
:10439000809102248A8380E062E0AE014F5F5F4F2C
:1043A00004C080E068E046EE50E20E94851122964B
:1043B000E2E00C944E4DFC012181808190E0FC01F3
:1043C0003197E131F10508F048C0E650FF4F0C94F9
:1043D000594D822F62E04EEF50E243C0822F62E0DF
:1043E00040E051E23EC0822F0E9433200895822F88
:1043F0000E94402B0895822F0E94E42A0895822F64
:1044000090E0880F991F8093A7209093A82008958B
:10441000822F0E94BC310895822F0E94AC2E0895F5
:10442000822F0E94D6170895822F81500E944E2A13
:1044300000D00F9223EF3BE0EDB7FEB7218332832C
:10444000838394830E94E64B0F900F900F900F9000
:104450000895822F0E946418089580E068E04EEC71
:1044600050E20E94851108956F927F929F92AF92C1
:10447000BF92CF92DF92EF92FF920F931F93DF9341
:10448000CF930F920F92CDB7DEB7FC01E081E334FA
:1044900009F41BC2E43408F05BC0E03209F4B6C092
:1044A000E13258F5E43109F499C2E53198F4E1318B
:1044B00009F486C2E23138F4EE2309F4F2C1E031A6
:1044C00009F09DC379C2E23109F481C2E33109F0F8
:1044D00096C381C2E73109F4ADC2E83138F4E53161
:1044E00009F47FC2E63109F08AC38CC2E83109F4CD
:1044F000A5C2E93109F083C3A4C2E63209F418C3A6
:10450000E73298F4E33209F4F4C2E43238F4E132E9
:1045100009F4DBC2E23209F072C3E1C2E43209F409
:10452000F7C2E53209F06BC311C1E03409F4BEC132
:10453000E13438F4E03309F4BCC0E53309F05FC37B
:1045400066C1E13409F4B7C1E23409F058C3B8C117
:10455000E43909F4F5C1E53958F5E03609F4D6C176
:10456000E13698F4E63409F4BFC1E73438F4E434B2
:1045700009F4B0C1E53409F042C3B1C1E73409F42C
:10458000B8C1E03509F03BC3BEC1E13909F4C9C186
:10459000E23938F4E03709F4BCC1E03909F02FC33F
:1045A000BBC1E23909F4C2C1E33909F028C3C3C170
:1045B000EA3909F4E3C1EB3998F4E73909F4CFC1DA
:1045C000E83938F4E53909F4C0C1E63909F017C310
:1045D000C1C1E83909F4C8C1E93909F010C3C9C13A
:1045E000ED3909F4DAC1EE3938F4EB3909F4CBC10D
:1045F000EC3909F004C3CCC1EF3909F4D8C1EF3963
:1046000008F4D0C1EF3F09F0FAC278C11092042437
:104610001092052410929C201092FC238CE19BE1C7
:104620004EE450E060E070E021E001E00E943E389E
:1046300088E595E14EE450E060E070E022E000E0C3
:104640000E943E3885EE94E14EE450E060E070E078
:1046500023E00E943E388091A1204091A3205091F8
:10466000A420882331F060E070E083EE92E124E042
:1046700006C060E070E083EE92E124E001E00E9479
:104680003E388091A2204091A5205091A6208823F9
:1046900039F060E070E08FED91E125E000E006C0C8
:1046A00060E070E08FED91E125E001E00E943E388E
:1046B000ACC281E080939C208CE19BE14EE450E011
:1046C00060E070E021E000E00E943E3888E595E17E
:1046D0004EE450E060E070E022E00E943E3885EE5B
:1046E00094E14EE450E060E070E023E00E943E3848
:1046F0004091A3205091A42060E070E083EE92E10D
:1047000024E00E943E384091A5205091A62060E010
:1047100070E08FED91E125E00E943E3810920A246E
:1047200010920B248091A120882329F460910A24FF
:1047300081E00E94F50C8091A220882309F065C2D7
:1047400060910A2481E00E94310C5FC2109204241F
:104750001092052410929C201092FC238CE19BE186
:104760004EE450E060E070E021E001E00E943E385D
:1047700088E595E14EE450E060E070E022E000E082
:104780000E943E3885EE94E14EE450E060E070E037
:1047900023E00E943E388091A1204091A3205091B7
:1047A000A420882331F060E070E083EE92E124E001
:1047B00006C060E070E083EE92E124E001E00E9438
:1047C0003E388091A2204091A5205091A6208823B8
:1047D00039F060E070E08FED91E125E000E006C087
:1047E00060E070E08FED91E125E001E00E943E384D
:1047F0006091A7207091A82082E19AE70E94BE4CA8
:10480000AB0160E070E088E19BE120E04ECF81E009
:1048100080939C208CE19BE14EE450E060E070E0EE
:1048200021E000E00E943E3888E595E14EE450E04A
:1048300060E070E022E00E943E3885EE94E14EE4B4
:1048400050E060E070E023E00E943E384091A320F9
:104850005091A42060E070E083EE92E124E00E9499
:104860003E384091A5205091A62060E070E08FED89
:1048700091E125E00E943E382091A7203091A820A8
:1048800040E050E062E17AE780E090E00E94074D6E
:1048900088E19BE1BA01A90120E00E943E3882E054
:1048A00092C080E068E048E354E2ADC180E068E196
:1048B00042E051E2A8C180E068E14AE151E2A3C1CF
:1048C00080E068E142E351E29EC180E068E14AE4B1
:1048D00051E299C180E068E142E651E294C180E092
:1048E00068E14AE751E28FC180E068E142E951E2C4
:1048F0008AC180E068E14AEA51E285C180E068E06F
:1049000042EC51E280C10E94BD297FC10E94282B48
:104910007CC10E94B51F79C180E060E24AEC51E29F
:1049200072C180E060E24AEE51E26DC180E060E277
:104930004AE052E268C180E060E24AE252E263C1CA
:1049400080E060E24AE452E25EC180E060E24AE672
:1049500052E259C180E060E24AE852E254C180E08C
:1049600060E24AEA52E24FC180E060E24AEC52E281
:104970004AC180E060E24AEE52E245C180E060E276
:104980004AE053E240C180E060E24AE253E23BC1C8
:1049900080E060E24AE453E236C180E060E24AE649
:1049A00053E231C180E060E24AE853E22CC180E08A
:1049B00060E24AEA53E227C181E08093FE2325C1E9
:1049C0001092FE2380E060E00E941C2A1EC181E05C
:1049D00080939C281AC110929C2817C10E946C0BCE
:1049E00014C100D00F9286E09DE0ADB7BEB711961E
:1049F0008D939C9312978AEC93E213968D939C93DC
:104A00001497F6C09BE4E92E96E2F92E11E00EEF22
:104A10006E010894C11CD11C0983F70181917F01AB
:104A20008A83812F62E0A6010E9485111F5F1138E1
:104A300099F7EBC081E08093B120E7C01092B120DC
:104A4000E4C08DB79EB742978DBF9EBFEDB7FEB74E
:104A5000319684EE9CE0ADB7BEB711968D939C93D2
:104A6000129780910A2790910B27828393838091DC
:104A7000B4249091B5248483958380911E269091CF
:104A80001F26868397838091CB268087118680910D
:104A9000CF269091D026828793878091BF2A9091CC
:104AA000C02A84879587809190259091912586874B
:104AB000978780910927808B118A0E94E64BEDB77A
:104AC000FEB77296EDBFFEBFA0C080E090E06FEF32
:104AD0000E94BD510F920F9282EB9CE012C080E0C9
:104AE00090E060E00E94BD510F920F9280E89CE040
:104AF00016C088E0E0E2F7E082870F920F9285E52A
:104B00009CE0ADB7BEB711968D939C9312970BC0E6
:104B1000E0E2F7E012860F920F928FE29CE0EDB791
:104B2000FEB7818392830E94E64B0F900F906DC079
:104B30009924EE24FF248701AA24BB24650180E484
:104B4000682E8CE9782E82E00E944E2AAA2797FDD3
:104B5000A095BA2FE80EF91E0A1F1B1F83E00E94C2
:104B60004E2AAA2797FDA095BA2FA80EB91ECA1ED5
:104B7000DB1EC3010197F1F79394F4E69F1619F732
:104B8000C801B70124E630E040E050E00E94E54C67
:104B900020939D2030939E20C601B50124E630E08D
:104BA00040E050E00E94E54C20939F203093A020ED
:104BB00000D00F928AE19CE0ADB7BEB711968D93FD
:104BC0009C93129780919D2090919E2013968D9397
:104BD0009C9314970E94E64B85E09CE0EDB7FEB7EE
:104BE0008183928380919F209091A02083839483DE
:104BF0000E94E64B0F900F900F900F9006C080E040
:104C000068E046EC50E20E9485110F900F90CF9122
:104C1000DF911F910F91FF90EF90DF90CF90BF90A9
:104C2000AF909F907F906F900895A0E5B6E0EBE184
:104C3000F6E20C942A4D80E090E00E94AD51E82EFF
:104C400082E995E26E2D0E94E2398DE898E26E2DA0
:104C50000E94E2398AE396E26E2D0E94E23986EBE9
:104C600094E26E2D0E94E23982E995E260E874E0F8
:104C700040E450E023E20E9493388DE898E260E936
:104C800074E040E450E023E20E9493388AE396E225
:104C900060EA74E040E450E023E20E94933886EB3F
:104CA00094E260EB74E040E450E023E20E94933829
:104CB0008E2D0E948A370E94E03483E596E380932C
:104CC00098249093992480E090E02AE030E0FC0161
:104CD000E853FB4D20833183FC01E85DF84D2083D0
:104CE00031830296883C910591F7E1EAF5E220E0F4
:104CF00030E04FEF2330310520F0C90106970397CC
:104D000010F4408301C010822F5F3F4F31962D3742
:104D1000310581F7109271281092722880917128C4
:104D2000909172288093CD269093CE268091CD26A7
:104D30009091CE26809390259093912580931E2666
:104D400090931F261092BF2A1092C02A1092B4246A
:104D50001092B5241092CF261092D02610920A27D6
:104D600010920B27109209271092CB2681E0809396
:104D700049261092C72410929C2881E090E00E945E
:104D8000AD518F3FD9F4198224E014C0E82FF0E030
:104D9000E65BF94D982F93709083882319F099233F
:104DA00009F420838981E82FF0E0E051F84D8083F9
:104DB0008F5F89838981813848F317C0198211C0B8
:104DC0000F2D10E0C8018F5F9F4F0E94AD51F80179
:104DD000E65BF94D80830051184DF801F082F394A1
:104DE000F982F980F0E8FF1558F78FE59EE00E9400
:104DF000A44B81E061E00E94872901E060E2C62EB9
:104E000063E0D62E3AC080E00E946347082F81FFFE
:104E10000DC080E59EE00E94A44B0E947F3604C036
:104E200080E00E946347082F01FDFACF02FF04C013
:104E300083E39EE00E94A44B198210C080E00E9490
:104E40008746082F80FF0DC089818F5F898384EF9B
:104E500091E0F6013197F1F70197D9F78981843014
:104E600068F300FF0AC089E19EE00E94A44B80E045
:104E70000E946347082F81FFFACF00FDC4CF81E075
:104E80009EE00E94A44B80E06AE0AE014F5F5F4F5E
:104E90000E94CF47892B59F585EF9DE00E94A44BD6
:104EA00089818430A1F0853028F4813051F082303E
:104EB000D1F40AC0883089F08C3091F0863099F4B2
:104EC00009C080EF9DE011C08CEE9DE00EC087EE22
:104ED0009DE00BC082EE9DE008C08DED9DE005C019
:104EE00087ED9DE002C082ED9DE00E94A44B89EB1E
:104EF0009DE00E94A44B80E06DE978E20E94443A74
:104F0000813051F0813028F0823049F0833069F4EB
:104F100009C08FEA9DE00BC086EA9DE008C083E9E6
:104F20009DE005C086E89DE002C081E89DE00E940A
:104F3000A44B80E068E048E354E20E94851181E0E0
:104F400060E00E9487290E94BD298FEFE81609F0D2
:104F5000D2C083E59DE00E94A44B57EEA52E53E0FE
:104F6000B52E47ECD42E37ECC32E22E0E22EF12CE6
:104F7000EC0EFD1E02C00C2D68010E942036892B0C
:104F800009F453C0C7010E9486368430910539F177
:104F90008530910548F482309105C9F08330910540
:104FA000D0F40197E1F50FC08930910501F18A3005
:104FB000910518F4059799F516C08E339105D9F02F
:104FC000CF9769F528C0C7010E9434222EC0C701BF
:104FD0000E94DB212AC0C7010E94981626C0C70183
:104FE0000E94761622C0C7010E943A211EC0C70146
:104FF0000E941D161AC020E030E0F901EF55FA4D6D
:10500000D701A20FB31F8C9180832F5F3F4F2E33A8
:10501000310599F70AC0C7010E94530B06C080E012
:1050200068E046EF50E20E94851180919C20882321
:1050300009F0A3CF809100248823C9F48091022431
:10504000909103248A159B0591F0A0900224B090C2
:10505000032480910224909103246091CD267091C5
:10506000CE2640917128509172280E94C61C8091D2
:10507000A1208823E1F4809108248A31C0F41091A2
:1050800004241D15A9F01091042480910A2490E0B5
:105090006091B2207091B32001960E94BE4C809323
:1050A0000A2460910A2480E00E94F50C01C01D2DA5
:1050B0008091A220882309F05ECF809109248A3153
:1050C00008F059CF009105240C1509F455CF009133
:1050D000052480910B2490E06091B4207091B5205C
:1050E00001960E94BE4C80930B2460910B2480E0BB
:1050F0000E94310C41CF85E29DE00E94A44B8E01BD
:105100000D5B1F4F0E942036892BE1F3C8010E94DE
:1051100086368130910519F0C29749F404C0C80160
:105120000E943422EFCFC8010E94C715EBCF80E068
:1051300068E04EEF50E20E948511E4CF1F920F927B
:105140000FB60F9208B60F9209B60F920BB60F92D8
:10515000112418BE19BE1BBE2F933F934F935F932C
:105160006F937F938F939F93AF93BF93EF93FF932F
:1051700086EB94E20E94AF39FF91EF91BF91AF911E
:105180009F918F917F916F915F914F913F912F915F
:105190000F900BBE0F9009BE0F9008BE0F900FBE70
:1051A0000F901F9018951F920F920FB60F9208B68E
:1051B0000F9209B60F920BB60F92112418BE19BEAA
:1051C0001BBE2F933F934F935F936F937F938F9368
:1051D0009F93AF93BF93EF93FF938AE396E20E946E
:1051E000AF39FF91EF91BF91AF919F918F917F91D7
:1051F0006F915F914F913F912F910F900BBE0F9048
:1052000009BE0F9008BE0F900FBE0F901F9018950B
:105210001F920F920FB60F9208B60F9209B60F9217
:105220000BB60F92112418BE19BE1BBE2F933F93CD
:105230004F935F936F937F938F939F93AF93BF939E
:10524000EF93FF938DE898E20E94AF39FF91EF91C1
:10525000BF91AF919F918F917F916F915F914F918E
:105260003F912F910F900BBE0F9009BE0F9008BE7B
:105270000F900FBE0F901F9018951F920F920FB6B0
:105280000F9208B60F9209B60F920BB60F92112427
:1052900018BE19BE1BBE2F933F934F935F936F931E
:1052A0007F938F939F93AF93BF93EF93FF9382E985
:1052B00095E20E94AF39FF91EF91BF91AF919F911D
:1052C0008F917F916F915F914F913F912F910F90AF
:1052D0000BBE0F9009BE0F9008BE0F900FBE0F902F
:1052E0001F9018950F93DF93CF930F92CDB7DEB732
:1052F0002FB72983F8941BBEFC0108ED04BF60831F
:1053000089818FBF0F90CF91DF910F910895282F42
:1053100030E0C9018C7F892BE1F4862F8E7FC9F4A0
:105320002C5F3F4F613059F481E090E002C0880F5C
:10533000991F2A95E2F7E0E0F7E08683089581E07F
:1053400090E002C0880F991F2A95E2F7E0E0F7E0AD
:1053500085830895282F30E0C9018C7F892B61F463
:105360002C5F3F4F81E090E002C0880F991F2A9583
:10537000E2F7E0E0F7E08783089520E030E0A0E086
:10538000B7E060E240E253E017966C9317978CEA1F
:105390009DE0FA013197F1F70197D9F72F5F3F4F61
:1053A0002A30310589F70895482F50E0CA018C7FD3
:1053B000892B79F56623B9F44C5F5F4F81E090E06B
:1053C0009C01042E02C0220F331F0A94E2F74450BE
:1053D0005040E0E2F7E0268302C0880F991F4A950B
:1053E000E2F7818308956130A1F481E090E09C01AF
:1053F000042E02C0220F331F0A94E2F7E0E2F7E026
:1054000022834C5F5F4F02C0880F991F4A95E2F7D5
:1054100085830895282F30E0C9018C7F892B11F0F6
:1054200080E008958091280790E002C095958795C7
:105430002A95E2F781700895282F30E0C9018C7F0A
:10544000892BD1F4862F8E7FB9F4613059F481E035
:1054500090E002C0880F991F2A95E2F7E0E2F7E09A
:105460008583089581E090E002C0880F991F2A95F6
:10547000E2F7E0E2F7E086830895282F30E0C901E3
:105480008C7F892B51F481E090E002C0880F991F36
:105490002A95E2F7E0E2F7E087830895A2E0B0E022
:1054A000E4E5FAE20C94324D282F30E0C901887F00
:1054B000892B19F020E030E05CC080E1E0E4F6E008
:1054C0008683C90187709070880F991F880F991F74
:1054D0008068E0ECF8E083838091C20887FFFCCF0E
:1054E00080E1E0ECF8E083838091C20887FFFCCF85
:1054F000E0E4F6E080E185838683E0ECF8E0138267
:105500008091C20887FFFCCFDE0111969091C308FD
:10551000E0ECF8E013828091C20887FFFCCF809115
:10552000C30811969C9311978C9380E1E0E4F6E018
:1055300085832E7F89819A81232B69F49C013F709A
:1055400094FF04C035952795386F02C0359527958F
:1055500029833A830CC094FF04C09F70959587956A
:1055600004C09061959587959F7089839A8329815E
:105570003A81C9012296E2E00C944E4D982F8C7F1F
:1055800011F580E860307807F1F080E1E0E6F6E0C0
:1055900086839770E0ECF9E093838091C20987FFDE
:1055A000FCCFE0ECF9E073838091C20987FFFCCF68
:1055B000E0ECF9E063838091C20987FFFCCF80E1D2
:1055C000E0E6F6E085830895A0E0B0E0EAEEFAE2D6
:1055D0000C94264DB82EC0E0D0E000E217E066241F
:1055E000639482E0782EB4E08B2EA8E09A2EF0E24D
:1055F000EF2EF3E0FF2EC12CE7E0DE2E70E2A72EA7
:10560000F801678277828782978288EE93E0F701BC
:105610003197F1F70197D9F78B2D0E944E2ABC01E3
:1056200028EE33E0F7013197F1F721503040D1F700
:1056300081E00E94BE2AC0FF02C0F601A782219627
:10564000CC33D105E9F6CDB7DEB7EEE00C94424D90
:105650000F93DF93CF930F92CDB7DEB78FB78983C8
:10566000F8941BBE21E089E790E0FC0108ED04BF3F
:10567000208389818FBF0F90CF91DF910F91089583
:10568000A0E0B0E0E6E4FBE20C94284D982E00E0A8
:1056900040EAA42E4FE0B42E30E8C32E3EE3D32ED2
:1056A000E12C27E0F22E90E2892E1DC0143610F472
:1056B000BE0103C0B5016C1B7D0B80E00E94BE2AB9
:1056C000892D0E944E2ABC0181E00E94BE2AC6019B
:1056D0000197F1F71F5F6496183C41F7F701878245
:1056E0000F5F0E3121F010E0C0E0D0E0DFCFCDB78A
:1056F000DEB7ECE00C94444DBC0122EB30E140E01D
:1057000050E008C0F9012F5F3F4FE491EE23D1F73D
:105710004F5F5F4F4617570721F0F90184918823A7
:1057200089F700D00F928EEA90E1EDB7FEB7818342
:105730009283238334830E94E64B0F900F900F9047
:105740000F900895A0E0B0E0E8EAFBE20C94294D48
:105750005C016A017B01922EE80184EA93E10E94D8
:10576000A44B87E68883BB27AF2D9E2D8D2D898383
:10577000CA829B8285E48C83C50160E7A80125E08D
:10578000092D0E94B538D5011D968C911D9788234F
:10579000D1F71E968C911E978130B9F01E962C91F0
:1057A00000D00F92EDB7FEB7319687E893E1ADB721
:1057B000BEB711968D939C931297228313820E94F9
:1057C000E64B0F900F900F900F90DE0131E020E03C
:1057D0000DC0E501ED81FE81E20FF11D908115966E
:1057E0008C911597981330E02F5F1196291588F347
:1057F000832F90E0CDB7DEB7EBE00C94454DA0E0F1
:10580000B0E0E5E0FCE20C94294D5C016A017B010B
:10581000922EE80183EC93E10E94A44B87E68883F3
:10582000BB27AF2D9E2D8D2D8983CA829B8285E457
:105830008C83C50160E7A80125E0092D0E94B538D9
:10584000D5011D968C911D978823D1F71E968C91BA
:105850001E978130B9F01E962C9100D00F92EDB7B3
:10586000FEB7319686EA93E1ADB7BEB711968D9338
:105870009C931297228313820E94E64B0F900F9005
:105880000F900F90DE0190E00AC0E501ED81FE81EE
:10589000E90FF11D808114968C9314979F5F1196E8
:1058A000991598F3CDB7DEB7EBE00C94454DA0E029
:1058B000B0E0EDE5FCE20C942B4DEC016A017B01BC
:1058C000B22E84EE93E10E94A44B82E4D8018C9323
:1058D000BB27AF2D9E2D8D2DF8018183C282B3820F
:1058E00085E48483F5E0BF0ECE0160E7A8012B2D8F
:1058F00000E00E94B5388D858823E9F78E858130D8
:10590000B1F02E8500D00F92EDB7FEB7319685EC41
:1059100093E1ADB7BEB711968D939C9312972283F6
:1059200013820E94E64B0F900F900F900F90CDB70F
:10593000DEB7E9E00C94474DA0E0B0E0E2EAFCE21B
:105940000C94294D5C016A017B01922EE80183E0F1
:1059500094E10E94A44B87E68883BB27AF2D9E2D40
:105960008D2D8983CA82892D86958B8386E48C83CD
:10597000C50160E7A80125E0092D0E94B538D501D1
:105980001D968C911D978823D1F71E968C911E979A
:105990008130B9F01E962C9100D00F92EDB7FEB772
:1059A000319686EE93E1ADB7BEB711968D939C9379
:1059B0001297228313820E94E64B0F900F900F9054
:1059C0000F90DE0131E020E00DC0E501ED81FE81A8
:1059D000E20FF11D908115968C911597981330E088
:1059E0002F5F1196291588F3832F90E0CDB7DEB78E
:1059F000EBE00C94454DA0E0B0E0E1E0FDE20C945A
:105A0000294D5C016A017B01922EE80182E294E15A
:105A10000E94A44B87E68883BB27AF2D9E2D8D2D3A
:105A20008983CA82892D86958B8386E48C83C50100
:105A300060E7A80125E0092D0E94B538D5011D9623
:105A40008C911D978823D1F71E968C911E978130DB
:105A5000B9F01E962C9100D00F92EDB7FEB731969B
:105A600085E094E1ADB7BEB711968D939C931297E4
:105A7000228313820E94E64B0F900F900F900F909D
:105A8000DE0190E00AC0E501ED81FE81E90FF11D24
:105A9000808114968C9314979F5F1196991598F3B3
:105AA000CDB7DEB7EBE00C94454DA0E0B0E0EBE500
:105AB000FDE20C942B4DEC016A017B01B22E82E4D5
:105AC00094E10E94A44B82E4D8018C93BB27AF2DB4
:105AD0009E2D8D2DF8018183C2828B2D8695838327
