:100000000C9425080C944B080C944B080C944B084A
:100010000C944B080C944B080C944B080C944B0814
:100020000C944B080C944B080C944B080C944B0804
:100030000C944B080C94D3210C944B080C944B0853
:100040000C944B080C944B080C944B080C944B08E4
:100050000C944B080C944B080C944B080C944B08D4
:100060000C944B080C94532F0C94A32F0C944B0816
:100070000C944B080C944B080C944B080C944B08B4
:100080000C944B080C944B080C944B080C944B08A4
:100090000C944B080C944B080C944B080C944B0894
:1000A0000C944B080C944B080C944B080C944B0884
:1000B0000C944B080C944B080C9469210C94183048
:1000C0000C944B080C944B080C944B080C944B0864
:1000D0000C944B080C9413550C944B080C944B083F
:1000E0000C944B080C944B080C944B080C944B0844
:1000F0000C944B080C944B080C944B080C944B0834
:100100000C944B080C944B080C944B080C944B0823
:100110000C944B080C944B080C944B080C944B0813
:100120000C944B080C944B080C944B080C944B0803
:100130000C949E210C944B080C944B080C944B0887
:100140000C944B080C944B080C944B080C944B08E3
:100150000C944B080C944B080C944B080C944B08D3
:100160000C944B080C944B080C944B080C944B08C3
:100170000C944B080C944B080C944B080C944B08B3
:100180000C944B080C944B080C944B080C944B08A3
:100190000C9442090C944B080C944B080C944B089B
:1001A0000C944B080C944B080C944B080C94342181
:1001B0000C9449560C944B080C944B080C944B0827
:1001C0000C944B080C944B080C944B080C944B0863
:1001D0000C944B080C944B080C944B080C944B0853
:1001E0000C944B080C944B080C944B080C944B0843
:1001F0000C944B081F1B241B291B2D1B311B351B6B
:100200003E1B421B461B621B621B621B621B621B66
:10021000621B4A1B5F1B77538353E453EA537453A7
:100220007453745374537453745385548A548C5454
:100230009A54B954494E54332063617463686573AA
:10024000206120726973696E672065646765207438
:10025000726967676572210A004572726F72206663
:100260005F6F70656E20696E205344496E666F2E15
:100270006D61742E0A004572726F7220665F6C7336
:1002800065656B20696E2072656D61696E656420BD
:10029000646174612E0A004572726F7220665F6C31
:1002A0007365656B20696E205344496E666F2E6DD1
:1002B00061742E0A004572726F7220696E20665F4B
:1002C0006C7365656B20696E207570646174655F21
:1002D00066756E63436E745F79206C6F6164206E27
:1002E000657874206275666665720A0072657320AF
:1002F0003D202025750A004572726F7220696E20BC
:10030000665F7265616420696E20757064617465F2
:100310005F66756E63436E745F790A007265732061
:100320003D202025750A004572726F7220696E208B
:10033000665F6C7365656B20696E207570646174AF
:10034000655F66756E63436E745F780A00726573ED
:10035000203D202025750A004572726F7220696E5B
:1003600020665F7265616420696E20696E20757019
:10037000646174655F66756E63436E745F780A00CE
:10038000726573203D202025750A004572726F72D8
:1003900020696E70757420666F722066756E637466
:1003A000696F6E206368616E6E656C2E0A0045721F
:1003B000726F7220665F6F70656E20696E20736564
:1003C000745F76656C5F66756E6320592E0A004512
:1003D00072726F7220665F7265616420696E20734D
:1003E00065745F76656C5F66756E6320592E0A00D2
:1003F00053657474696E672076656C6F6369747990
:100400002066756E6374696F6E20257520666F7245
:1004100020590A004572726F7220665F6F70656EB8
:1004200020696E207365745F76656C5F66756E63B8
:1004300020582E0A004572726F7220665F726561E5
:100440006420696E207365745F76656C5F66756E97
:100450006320582E0A0053657474696E67207665B0
:100460006C6F636974792066756E6374696F6E2052
:1004700020257520666F7220580A004572726F72CF
:1004800020696E70757420666F722066756E637475
:10049000696F6E206368616E6E656C2E0A0045722E
:1004A000726F7220665F6F70656E20696E20736573
:1004B000745F706F735F66756E6320592E0A004516
:1004C00072726F7220665F72656164207365745F1B
:1004D000706F735F66756E6320592E0A00536574E2
:1004E00074696E6720706F736974696F6E206675CA
:1004F0006E6374696F6E20257520666F7220590ACD
:10050000004572726F7220665F6F70656E20696E53
:10051000207365745F706F735F66756E6320582E0D
:100520000A004572726F7220665F726561642073A3
:1005300065745F706F735F66756E6320580A005351
:10054000657474696E6720706F736974696F6E206B
:1005500066756E6374696F6E20257520666F7220F4
:10056000580A0057726F6E672066756E6374696F04
:100570006E206368616E6E656C206E756D6265726B
:100580002E0A0053657474696E6720646566617530
:100590006C742066756E6374696F6E20666F72206E
:1005A000592E0A0053657474696E6720646566612C
:1005B000756C742066756E6374696F6E20666F72F9
:1005C00020582E0A002062656E63685F74696D654D
:1005D000203D20256C75206D732C206672616D6541
:1005E0005F72617465203D2025750A0043616E6E5F
:1005F0006F742066696E6420746865206861726437
:100600007761726520636F6E6669672066696C65E5
:10061000206F6E2074686520534420636172642EDD
:100620000A005375636365737366756C6C79206C2F
:100630006F616420746865206861726477617265B7
:1006400020636F6E6669672066696C6520746F2031
:10065000454550524F4D0A004572726F72206F70BF
:10066000656E696E67207061747465726E2066696C
:100670006C650A004572726F722072656164696E02
:100680006720696E207061747465726E2066696C93
:10069000650A002020785F6E756D203D2025750A63
:1006A0002020795F6E756D203D2025750A20206E13
:1006B000756D5F70616E656C73203D2025750A2035
:1006C0002067735F76616C7565203D2025750A2073
:1006D000726F775F636F6D7072657373696F6E2091
:1006E0003D2025750A0053657474696E672070613A
:1006F000747465726E2025753A0A00524553203D88
:100700002025752C20665F6E756D3D2025752C208B
:100710006F6666736574203D20256C750A0045720E
:10072000726F7220696E20665F6C7365656B2069FD
:100730006E2066657463685F646973706C61795F6D
:100740006672616D65210A00524553203D20257572
:100750002C20665F6E756D3D2025752C20636E74B0
:100760003D2025750A004572726F7220696E206601
:100770005F7265616420696E2066657463685F649A
:100780006973706C61795F6672616D65210A0053EF
:100790007563636573732073657420746865206E78
:1007A0006577206C61736572207061747465726E18
:1007B0002E0A007365745F6761696E5F62696173B9
:1007C0003A206761696E5F783D2025642C202062A5
:1007D0006961735F783D2025642C206761696E5FD5
:1007E000793D2025642C20626961735F793D256421
:1007F0000A007365745F706F736974696F6E3A2075
:10080000696E6465785F783D2025752C2020696EBF
:100810006465785F793D2025752C20616E642066C3
:1008200072616D655F6E756D3D2025750A00667598
:100830006E6374696F6E20592075706461746520F1
:100840006672657175656E6379203D2025752E0A87
:100850000066756E6374696F6E20582075706461F0
:100860007465206672657175656E6379203D20251B
:10087000752E0A004144435F76616C7565203D200A
:100880002025643A0A00526573657420636F6E74A4
:10089000726F6C6C657220746F20776F726B206959
:1008A0006E207468652050432064756D70696E67B2
:1008B000206D6F6465210A00526573657420636F53
:1008C0006E74726F6C6C657220746F20776F726BD0
:1008D00020696E2074686520636F6E74726F6C6C33
:1008E0006572206D6F6465210A00757064617465BE
:1008F0003A20256420256420256420256420256471
:100900002025642025642025643A0A00437572720C
:10091000656E742076657273696F6E206E756D6298
:1009200065722069732025732E0A00437572726503
:100930006E7420776F726B696E67206D6F646520CF
:100940006973207468652050432064756D70696E0A
:1009500067206D6F6465210A0043757272656E745D
:1009600020776F726B696E67206D6F6465206973A5
:100970002074686520436F6E74726F6C6C657220B2
:100980006D6F6465210A003F3F3F0A00204E4F54BF
:10099000205245414459210A0020575249544520CC
:1009A00050524F544543544544210A002045525269
:1009B0004F52210A0020464154204F4B210A004942
:1009C0006E697469616C697A696E6720464154206A
:1009D0004469736B2E2E2E003F3F3F0A005344485C
:1009E000430A00424C4B0A005344430A005344322A
:1009F0000A0053440A004D4D430A004361726420CB
:100A0000747970653A2000534420636172642069F0
:100A10007320696E697469616C697A65640A00495A
:100A20006E697469616C697A6174696F6E20666160
:100A3000696C65642121210A00534420636172645A
:100A40002069732057726974652050726F746563F2
:100A5000746564210A00496E7365727420534420E2
:100A600063617264000A4D61696E20436F6E747237
:100A70006F6C6C657220576F726B730A0043616E06
:100A80006E6F742066696E64207468652070616E94
:100A9000656C2025642E0A004261642065786974C3
:100AA00020636D642C20726573756C74203D202565
:100AB000750A00646F6E2774206B6E6F7720686F05
:100AC0007720746F206465616C2077697468207288
:100AD0006563747970653D2564206174206C696E6E
:100AE00065202564206F6620656570726F6D2E68C5
:100AF00065780A000A00766572696679206D697307
:100B00006D6174636820666F72207061676520256F
:100B1000640A00766572696679206D69736D617427
:100B2000636820666F7220706167652025640A0023
:100B3000636865636B73756D3D3078253032782C52
:100B400020636F6D707574656420636865636B7393
:100B5000756D3D3078253032780A004552524F523B
:100B60003A20636865636B73756D206D69736D61A1
:100B7000746368206174206C696E65202564206F41
:100B80006620656570726F6D2E6865780A000A765A
:100B90006572696679696E673A20004572726F7294
:100BA00020665F6C7365656B20696E206565707289
:100BB0006F6D2E6865782E0A00646F6E2774206B47
:100BC0006E6F7720686F7720746F206465616C208A
:100BD0007769746820726563747970653D25642057
:100BE0006174206C696E65202564206F66206565E0
:100BF00070726F6D2E6865782E0A00636865636B8E
:100C000073756D3D3078253032782C20636F6D70B0
:100C10007574656420636865636B73756D3D3078CA
:100C2000253032780A004552524F523A20636865A7
:100C3000636B73756D206D69736D6174636820619A
:100C400074206C696E65202564206F662065657070
:100C5000726F6D2E6865782E0A000A777269746962
:100C60006E673A202020004261642070616E656CDE
:100C70002072657365742C20726573756C74203DE9
:100C80002025750A00656570726F6D2070616E6554
:100C90006C2025752E0A004572726F7220665F6F98
:100CA00070656E20696E20656570726F6D2E686567
:100CB000782E0A0025530A004F4B004449534B5FDE
:100CC00045525200494E545F455252004E4F545FB8
:100CD0005245414459004E4F5F46494C45004E4FE6
:100CE0005F5041544800494E56414C49445F4E4183
:100CF0004D450044454E494544004558495354002C
:100D0000494E56414C49445F4F424A45435400576F
:100D1000524954455F50524F54454354454400494D
:100D20004E56414C49445F4452495645004E4F543B
:100D30005F454E41424C4544004E4F5F46494C454D
:100D40005F53595354454D004D4B46535F41424FFD
:100D5000525445440054494D454F55540000436199
:100D60006E6E6F742066696E6420746865207061B1
:100D70006E656C2025642E0A0042616420657869E6
:100D80007420636D642C20726573756C74203D2033
:100D900025750A00646F6E2774206B6E6F7720686C
:100DA0006F7720746F206465616C207769746820A8
:100DB000726563747970653D2564206174206C6987
:100DC0006E65202564206F662070616E656C2E68EC
:100DD00065780A000A00766572696679206D697324
:100DE0006D6174636820666F72207061676520258D
:100DF000640A00766572696679206D69736D617445
:100E0000636820666F7220706167652025640A0040
:100E1000636865636B73756D3D3078253032782C6F
:100E200020636F6D707574656420636865636B73B0
:100E3000756D3D3078253032780A004552524F5258
:100E40003A20636865636B73756D206D69736D61BE
:100E5000746368206174206C696E65202564206F5E
:100E6000662070616E656C2E6865780A000A76658A
:100E700072696679696E673A20004572726F7220F6
:100E8000665F6C7365656B20696E2070616E656C62
:100E90002E6865782E0A00646F6E2774206B6E6F63
:100EA0007720686F7720746F206465616C207769A4
:100EB000746820726563747970653D25642061747F
:100EC000206C696E65202564206F662070616E65F8
:100ED0006C2E6865780A00636865636B73756D3D99
:100EE0003078253032782C20636F6D7075746564AE
:100EF00020636865636B73756D3D3078253032789B
:100F00000A004552524F523A20636865636B73750D
:100F10006D206D69736D61746368206174206C6904
:100F20006E65202564206F662070616E656C2E688A
:100F300065782E0A000A77726974696E673A202014
:100F400020004261642070616E656C20726573657B
:100F5000742C20726573756C74203D2025750A0011
:100F6000666C6173682070616E656C2025752E0A51
:100F7000004572726F7220665F6F70656E20696ED9
:100F80002070616E656C2E6865782E0A004261647F
:100F900020666C61736820726561642C20726573D1
:100FA000756C74203D2025750A0023004261642081
:100FB000666C61736820726561642C20726573755C
:100FC0006C74203D2025750A002300426164206571
:100FD0006570726F6D2077726974652C207265730D
:100FE000756C74203D2025750A0023004261642041
:100FF000666C61736820726561642C20726573751C
:101000006C74203D2025750A00230042616420662F
:101010006C61736820726561642C20726573756CF5
:1010200074203D2025750A00230042616420666C0F
:101030006173682077726974652C20726573756CB2
:1010400074203D2025750A00230011241FBECFEF18
:10105000DFE3DEBFCDBF00E00CBF18BE19BE1ABE75
:101060001BBE14E2A0E0B0E2E0EAFDEB00E00BBF43
:1010700002C007900D92A43EB107D9F71BBE1CE237
:10108000A4EEB4E201C01D92AD31B107E1F70E94B8
:10109000AD1E0C94CE5E0C940000AC0120E030E05C
:1010A000F901E757F94DDA01A20FB31F8C91808344
:1010B0002F5F3F4F2E33310599F708958091BB275D
:1010C0009091BC2701968093BB279093BC27809179
:1010D000BB279091BC274091252850912628841742
:1010E000950720F01092BB271092BC2780917029A1
:1010F000909171292091BB273091BC27BC01649F3E
:10110000C001659F900D749F900D1124820F931F55
:101110008093E9249093EA248091E524882329F0A0
:101120008091E4248F5F8093E42408958091702956
:101130009091712901968093702990937129209143
:101140007029309171298091A9259091AA2528179D
:10115000390720F01092702910927129209170297E
:10116000309171294091BB275091BC27809125284F
:1011700090912628BC01269FC001279F900D369F85
:10118000900D1124840F951F8093E9249093EA24F5
:101190008091E524882329F48091E4248F5F809353
:1011A000E42408958091BB279091BC27892B29F4D2
:1011B000809125289091262804C08091BB2790918A
:1011C000BC2701978093BB279093BC27209170295F
:1011D000309171294091BB275091BC2780912528DF
:1011E00090912628BC01269FC001279F900D369F15
:1011F000900D1124840F951F8093E9249093EA2485
:101200008091E524882329F08091E4248F5F8093E6
:10121000E42408958091702990917129892B29F4F3
:101220008091A9259091AA2504C080917029909160
:1012300071290197809370299093712920917029C9
:10124000309171294091BB275091BC27809125286E
:1012500090912628BC01269FC001279F900D369FA4
:10126000900D1124840F951F8093E9249093EA2414
:101270008091E524882329F48091E4248F5F809372
:10128000E42408951F920F920FB60F9208B60F92A2
:1012900009B60F920BB60F92112418BE19BE1BBED1
:1012A0000F932F933F934F935F936F937F938F93FE
:1012B0009F93AF93BF93EF93FF931092EF241092FD
:1012C000F0241092F1241092F2241092F324109240
:1012D000F4241092F5241092F6241092EB2410922C
:1012E000EC241092ED241092EE2410929C20109287
:1012F000E42486ED91E14EE450E060E070E021E00E
:1013000001E00E9499308EE598E04EE450E060E004
:1013100070E022E000E00E94993086E998E04EE417
:1013200050E060E070E023E00E9499304091A220FC
:101330005091A32060E070E08CE29DE024E001E0A9
:101340000E9499304091A4205091A52060E070E067
:1013500082EE9CE025E00E94993084E392E00E94B6
:10136000EF57FF91EF91BF91AF919F918F917F9137
:101370006F915F914F913F912F910F910F900BBE05
:101380000F9009BE0F9008BE0F900FBE0F901F90D8
:101390001895813031F09091B020823009F063C00F
:1013A00032C08091B020882321F484EA95E00E9425
:1013B000EF571092F7241092F82484E690E0A0E012
:1013C000B0E08093A8209093A920A093AA20B09386
:1013D000AB20E7E2F8E28AE090E08193919328E283
:1013E000EF3EF207D1F71092EB241092EC2410920A
:1013F000EF241092F0241092F1241092F22481E054
:101400008093A0200895992321F483E895E00E9419
:10141000EF571092F9241092FA2484E690E0A0E0AD
:10142000B0E08093AC209093AD20A093AE20B09319
:10143000AF20EEEAF5E28AE090E08193919326E214
:10144000E637F207D1F71092ED241092EE241092B5
:10145000F3241092F4241092F5241092F62481E0E3
:101460008093A1200895992321F483E695E00E94BA
:10147000EF570895AC0120E030E0F901E757F94D4E
:10148000DA01A20FB31F8C9186AF2F5F3F4F2F332E
:10149000310599F78091B020882321F48FE897E0F7
:1014A0000E94EF570895A4E3B0E0E9E5FAE00C9458
:1014B0006E5985E098E265EB70E241E00E94DC4DF8
:1014C000882309F0B5C080900F2870911028682DEE
:1014D000809111289091122822E330E040E050E002
:1014E0000E94305979018A019924939422E3322E83
:1014F00093E0692E712C6C0E7D1E2E010894411C08
:10150000511C3AC0939CC0011124C2975C01CC24A9
:10151000B7FCC094DC2C85E098E2B601A5010E94DE
:10152000863D882301F580910B2890910C28A0918D
:101530000D28B0910E288A159B05AC05BD0599F4C0
:1015400085E098E2B30142E350E092010E94F34E3D
:10155000882389F489819A81C29769F4C30162E37F
:101560000E94372F08C08091B020882321F487E99A
:1015700092E00E94EF579394892D90E0A0E0B0E0B4
:10158000E816F9060A071B0708F0BCCF82E3989E0D
:10159000C0011124C2975C01CC24B7FCC094DC2CA0
:1015A00085E098E2B601A5010E94863D882399F561
:1015B00080910B2890910C28A0910D28B0910E28B5
:1015C0008A159B05AC05BD0531F5C801B70122E3BD
:1015D00030E040E050E00E94EA58D82CD61A0D2D99
:1015E00010E083E0E82EF12CEC0EFD1E85E098E281
:1015F000B701A8019E012F5F3F4F0E94F34E882341
:1016000091F489819A818017910769F4C7016D2D42
:101610000E94372F08C08091B020882321F486E7EC
:1016200092E00E94EF5785E098E20E94204A08C0AD
:101630008091B020882321F489E592E00E94EF5741
:10164000E496E1E10C948A59A2E0B0E0EAE2FBE022
:101650000C9479598130C1F02091F3243091F42415
:101660004091F5245091F6248091AC209091AD20CA
:10167000A091AE20B091AF200297A109B10928171F
:1016800039074A075B0778F01092ED241092EE2498
:101690001092F3241092F4241092F5241092F62460
:1016A00040E052E00FC08091F3249091F424A09187
:1016B000F524B091F624AC0140505E4F1092ED2419
:1016C0001092EE247A0100E010E088E097E2B80181
:1016D000A7010E94863D282F882309F073C08091BE
:1016E0000E2790910F27A0911027B09111278E15EA
:1016F0009F05A007B10709F065C02091AC2030918B
:10170000AD204091AE205091AF208091F324909174
:10171000F424A091F524B091F62479018A01E81A05
:10172000F90A0A0B1B0BD801C701883C9105A105DA
:10173000B10518F088EC90E00CC08091F3249091F2
:10174000F424A091F524B091F6248901081B190B0B
:10175000C8018093B3209093B4204091B32050915E
:10176000B42088E097E26EEA75E29E012F5F3F4F5A
:101770000E94F34E482F882349F42091B3203091E2
:10178000B42089819A8182179307C9F18091B02092
:101790008823A9F500D00F92EDB7FEB731968CE102
:1017A00093E0ADB7BEB711968D939C931297428389
:1017B00013820E9431580F900F900F900F9087EF77
:1017C00092E01BC08091B0208823C9F400D00F9212
:1017D000EDB7FEB731968CEE92E0ADB7BEB711967D
:1017E0008D939C931297228313820E9431580F90FD
:1017F0000F900F900F9085EB92E00E94EF5722968A
:10180000E6E00C949559A2E0B0E0E9E0FCE00C942D
:1018100079598130C1F02091EF243091F02440912A
:10182000F1245091F2248091A8209091A920A091B8
:10183000AA20B091AB200297A109B1092817390756
:101840004A075B0778F01092EB241092EC24109278
:10185000EF241092F0241092F1241092F22440E030
:1018600052E00FC08091EF249091F024A091F124D8
:10187000B091F224AC0140505E4F1092EB241092D4
:10188000EC247A0100E010E089E795E2B801A701B5
:101890000E94863D282F882309F073C080917F2500
:1018A00090918025A0918125B09182258E159F056C
:1018B000A007B10709F065C02091A8203091A920A8
:1018C0004091AA205091AB208091EF249091F02478
:1018D000A091F124B091F22479018A01E81AF90A61
:1018E0000A0B1B0BD801C701883C9105A105B10566
:1018F00018F088EC90E00CC08091EF249091F024D7
:10190000A091F124B091F2248901081B190BC801A0
:101910008093B1209093B2204091B1205091B22099
:1019200089E795E267E278E29E012F5F3F4F0E94D0
:10193000F34E482F882349F42091B1203091B220F2
:1019400089819A8182179307C9F18091B0208823F9
:10195000A9F500D00F92EDB7FEB7319680E893E07D
:10196000ADB7BEB711968D939C93129742831382A5
:101970000E9431580F900F900F900F9088E593E0E0
:101980001BC08091B0208823C9F400D00F92EDB71E
:10199000FEB731968DE493E0ADB7BEB711968D9347
:1019A0009C931297228313820E9431580F900F90BC
:1019B0000F900F9087E293E00E94EF572296E6E0A7
:1019C0000C9495598091F9249091FA24892BE9F08F
:1019D0008091ED249091EE2401968093ED249093D4
:1019E000EE248091F3249091F424A091F524B091F9
:1019F000F6240296A11DB11D8093F3249093F42444
:101A0000A093F524B093F6240DC08091ED2490911D
:101A1000EE24019664E670E00E9409598093ED245B
:101A20009093EE24809103288530A9F4E091ED2471
:101A3000F091EE24EE0FFF1FE255FA4D8081918167
:101A4000BC0135E0660F771F3A95E1F7680F791F03
:101A500081E00E94542308958091F7249091F82406
:101A6000892BE9F08091EB249091EC2401968093EE
:101A7000EB249093EC248091EF249091F024A0919A
:101A8000F124B091F2240296A11DB11D8093EF24A0
:101A90009093F024A093F124B093F2240DC0809190
:101AA000EB249091EC24019664E670E00E940959C1
:101AB0008093EB249093EC248091B9278530A9F48E
:101AC000E091EB24F091EC24EE0FFF1FE95DF74D60
:101AD00080819181BC0155E0660F771F5A95E1F72F
:101AE000680F791F80E00E9454230895AEE0B2E0B1
:101AF000ECE7FDE00C947B59082F162F6A3080F438
:101B000000D000D0EDB7FEB73196CE010396ADB749
:101B1000BEB711968D939C93129780E090E21FC000
:101B2000CE010396643670F400D000D0EDB7FEB756
:101B30003196ADB7BEB711968D939C9312978EE0F8
:101B400090E20DC000D000D0EDB7FEB73196ADB732
:101B5000BEB711968D939C9312978BE190E282838E
:101B60009383148315820E94CD5B8DB79EB7069632
:101B70008DBF9EBF013021F0023009F0CCC065C09E
:101B800089E795E20E94204A89E795E2BE016D5FF0
:101B90007F4F41E00E94DC4D882309F048C089E76F
:101BA00095E2BE01615F7F4F40E052E09E012F5FF2
:101BB0003F4F0E94F34E882399F589819A81805086
:101BC000924071F58F858093A82088898093A92001
:101BD00089898093AA208A898093AB201093F72467
:101BE0001092F82400939C201092E4248091B0205D
:101BF000882329F500D00F92EDB7FEB7319686E520
:101C000094E0ADB7BEB711968D939C931297128353
:101C100013820E9431580F900F900F900F900FC0B9
:101C20008091B020882359F485E394E006C0809128
:101C3000B020882321F484E194E00E94EF571092B1
:101C4000A02081E00E94030C6EC088E097E20E9411
:101C5000204A88E097E2BE016D5F7F4F41E00E941D
:101C6000DC4D882309F049C088E097E2BE01615F3E
:101C70007F4F40E052E09E012F5F3F4F0E94F34EA6
:101C80008823A1F589819A818050924079F58F85CA
:101C90008093AC2088898093AD2089898093AE2081
:101CA0008A898093AF201093F9241092FA2481E05E
:101CB00080939C201092E4248091B020882329F501
:101CC00000D00F92EDB7FEB7319680EF93E0ADB73D
:101CD000BEB711968D939C931297128313820E9424
:101CE00031580F900F900F900F900FC08091B0203F
:101CF000882359F48FEC93E006C08091B0208823AC
:101D000021F48EEA93E00E94EF571092A12081E027
:101D10000E94240B08C08091B020882321F48BE816
:101D200093E00E94EF57C25FDD4FE4E00C949759B7
:101D3000AEE0B2E0EEE9FEE00C947B59082F162FDE
:101D40006A3080F400D000D0EDB7FEB73196CE01F6
:101D50000396ADB7BEB711968D939C93129787E209
:101D600090E21FC0CE010396643670F400D000D01C
:101D7000EDB7FEB73196ADB7BEB711968D939C9374
:101D8000129785E390E20DC000D000D0EDB7FEB70A
:101D90003196ADB7BEB711968D939C93129782E49E
:101DA00090E282839383148315820E94CD5B8DB76A
:101DB0009EB706968DBF9EBF013021F0023009F01C
:101DC000CCC065C089E795E20E94204A89E795E288
:101DD000BE016D5F7F4F41E00E94DC4D882309F01A
:101DE00048C089E795E2BE01615F7F4F40E052E065
:101DF0009E012F5F3F4F0E94F34E882399F5898102
:101E00009A818050924071F58F858093A8208889AF
:101E10008093A92089898093AA208A898093AB2006
:101E20001093F7241092F82400939C201092E4243D
:101E30008091B020882329F500D00F92EDB7FEB72E
:101E400031968FE395E0ADB7BEB711968D939C9315
:101E50001297128313820E9431580F900F900F90A7
:101E60000F900FC08091B020882359F482E295E052
:101E700006C08091B020882321F481E095E00E9483
:101E8000EF571092A02081E00E94030C6EC088E002
:101E900097E20E94204A88E097E2BE016D5F7F4F83
:101EA00041E00E94DC4D882309F049C088E097E2B8
:101EB000BE01615F7F4F40E052E09E012F5F3F4FC8
:101EC0000E94F34E8823A1F589819A818050924027
:101ED00079F58F858093AC2088898093AD2089899E
:101EE0008093AE208A898093AF201093F9241092BA
:101EF000FA2481E080939C201092E4248091B02009
:101F0000882329F500D00F92EDB7FEB731968DEDFD
:101F100094E0ADB7BEB711968D939C931297128340
:101F200013820E9431580F900F900F900F900FC0A6
:101F30008091B020882359F48FEB94E006C0809103
:101F4000B020882321F48EE994E00E94EF5710928C
:101F5000A12081E00E94240B08C08091B02088233A
:101F600021F48BE794E00E94EF57C25FDD4FE4E07D
:101F70000C9497591F93CF93DF93162FEA01882370
:101F800049F5809185268823E1F788E796E260E0AD
:101F9000AE01212F0E94713180919F298823E1F7A2
:101FA00082E999E260E0AE01212F0E9471318091B7
:101FB00035278823E1F788E297E260E0AE01212F20
:101FC0000E9471318091A7258823E1F78AE995E283
:101FD00060E022C0E82FF0E0DF01A85CB84DAC91D2
:101FE000E151F74D6081AA23D9F0A33051F0A4301C
:101FF00059F0A23019F4A2E9B9E208C0A8E7B6E2A4
:1020000005C0A8E2B7E202C0AAE9B5E21D968C912C
:102010001D978823D9F7CD01AE01212F0E94713180
:10202000DF91CF911F910895FC018081803119F0DB
:102030008131A9F407C08181738160E09281690FC9
:10204000711D09C0738160E08281680F711D8181FB
:10205000709561957F4F81500E945423089580E0D0
:1020600068E04DED50E20E94BA0F0895A2E0B0E0A2
:10207000ECE3F0E10C947A598C01FC018081803210
:1020800009F4A5C0813238F4803109F48FC085315C
:1020900009F0F0C093C0803309F4C3C08F3F21F032
:1020A000853209F0E7C0A0C0F801F1808091852653
:1020B0008823E1F788E796E26F2D4DEF50E222E0AA
:1020C0000E94713180919F298823E1F782E999E28A
:1020D0006F2D4DEF50E222E00E9471318091352743
:1020E0008823E1F788E297E26F2D4DEF50E222E07E
:1020F0000E9471318091A7258823E1F78AE995E252
:102100006F2D4DEF50E222E00E94713180EF95E596
:1021100020E233E0F9013197F1F70197D9F78FEF1A
:102120008983F8019281809185268823E1F79A833B
:1021300088E796E26F2DAE014F5F5F4F22E00E946D
:10214000713180919F298823E1F782E999E26F2D0F
:10215000AE014F5F5F4F22E00E94713180913527C1
:102160008823E1F788E297E26F2DAE014F5F5F4F62
:1021700022E00E9471318091A7258823E1F78AE946
:1021800095E26F2DAE014F5F5F4F22E00E947131EB
:1021900084EF91E020E233E0F9013197F1F7019704
:1021A000D9F780E062E04DEF50E268C0F80181812C
:1021B0008093B92782818093032862C0F8016281ED
:1021C000662349F0F80181810E94980E59C0F801F8
:1021D0006281662321F481810E94C90951C0F801FE
:1021E00081810E94760D4CC0F801928180E02181AE
:1021F0008C01020F111D980140E050E062E17AE786
:1022000080E090E00E9452592093A2203093A320B6
:102210008091B0208823A1F500D00F9281E598E04D
:102220001CC0F801928180E021818C01020F111DF8
:10223000980140E050E062E17AE780E090E00E949F
:1022400052592093A4203093A5208091B020882358
:10225000B9F400D00F928EE298E0EDB7FEB781831B
:102260009283038314830E9431580F900F900F9034
:102270000F9006C080E068E045ED50E20E94BA0F82
:102280002296E5E00C949659A2E8B0E0EAE4F1E188
:102290000C947759282F8A3080F400D000D0EDB705
:1022A000FEB731968BEF94E2ADB7BEB711968D9322
:1022B0009C9312978EE490E21FC08BEF94E2243639
:1022C00070F400D000D0EDB7FEB73196ADB7BEB711
:1022D00011968D939C9312978CE590E20DC000D0DF
:1022E00000D0EDB7FEB73196ADB7BEB711968D935E
:1022F0009C93129789E690E28283938324831582CC
:102300000E94CD5BEDB7FEB73696EDBFFEBF85E010
:1023100098E26BEF74E241E00E94DC4D8823C9F53E
:10232000E3E0CE2ED12CCC0EDD1E85E098E2B60186
:1023300040E850E09E012F5F3F4F0E94F34E8823FC
:1023400009F589819A8180389105E1F479E3E72ED6
:1023500077E2F72E00E010E0F601E00FF11F608158
:10236000D7016D937D010F5F1F4FC8018F5F9F4F96
:102370000E94085E0038110579F781E090E060E086
:102380000E94085E85E098E20E94204A82E296E080
:1023900002C08CEE95E00E94EF57CE57DF4FE8E089
:1023A0000C94935983E00E94D3220895AAE0B0E0F0
:1023B000ECEDF1E10C946D598091B927823009F46C
:1023C0008DC0833030F4882359F0813009F09AC1F0
:1023D00032C0833009F4D2C0843009F093C148C1BF
:1023E000E091EB24F091EC24EE0FFF1FE95DF74D37
:1023F00020813181220F331F209387263093882636
:1024000080910428992787FD9095AC01249FC001F5
:10241000259F900D349F900D11246AE070E00E947A
:102420001D59CB012091992545E0240290011124EA
:10243000820F931F9DC080E00E94E42264E070E060
:102440000E941D59CB01880F991F880F991F409139
:102450008726509188269A01220F331F240F351F9B
:10246000220F331F820F931F6AE070E00E941D59F4
:102470009B01609387267093882680910428992772
:1024800087FD9095BC01269FC001279F900D369F28
:10249000900D11246AE070E00E941D59CB0120913B
:1024A000992545E0240290011124820F931F62E0D8
:1024B00070E00E941D599B011B0171E0213037071C
:1024C00024F0212CF1E03F2E1FC18FEF2030380780
:1024D0000CF01AC1212CEFEF3E2E16C180E00E94B5
:1024E000E42264E070E00E941D59CB01880F991F1F
:1024F000880F991F40918726509188269A01220FB4
:10250000331F240F351F220F331F820F931F6AE0E2
:1025100070E00E941D59DB01609387267093882626
:10252000E091EB24F091EC24EE0FFF1FE95DF74DF5
:1025300020813181220F331F8091992545E084024B
:10254000C0011124280F391F80910428992787FD85
:102550009095FC01AE9FC001AF9F900DBE9F900D66
:1025600011246AE070E00E941D59C901860F971F6F
:1025700062E070E00E941D591B01C6C082E00E940B
:10258000E422182F092F60919D2070E080E090E0F8
:102590002FEF3FE040E050E00E94EA582AE030E0B0
:1025A00040E050E00E94305949015A01A9012090B1
:1025B000252830902628B10180E090E06D837E834D
:1025C0008F8398876901EE24FF242B013C01440C82
:1025D000551C661C771C212F302FC901481759073D
:1025E00008F4C4019C0140E050E0C301B2010E9424
:1025F000EA586C0D7D1D8E1D9F1DCC0CDD1CEE1C44
:10260000FF1CA70196010E945259215030404040C2
:1026100050408D819E81AF81B885281739074A07C0
:102620005B074CF0089421083108910140E050E02C
:102630000894211C311C57FF04C020E030E040E02A
:1026400050E02093BB273093BC2780917029909154
:1026500071292091BB273091BC27DC01A29DC001CC
:10266000A39D900DB29D900D1124820F931F46C023
:10267000E091EB24F091EC24EE0FFF1FE95DF74DA4
:102680000190F081E02D8091062790910727E80FB7
:10269000F91F2091252830912628F7FD09C0CF0188
:1026A000B9010E9409598093BB279093BC2710C0A1
:1026B000882799278E1B9F0BB9010E940959215029
:1026C0003040F901E81BF90BE093BB27F093BC27DE
:1026D00020917029309171294091BB275091BC27DE
:1026E0008091252890912628BC01269FC001279F14
:1026F000900D369F900D1124840F951F8093E9242F
:102700009093EA242224332480910328823009F410
:102710008BC0833030F4882359F0813009F099C19F
:1027200032C0833009F4D0C0843009F092C147C16F
:10273000E091ED24F091EE24EE0FFF1FE255FA4DEB
:1027400020813181220F331F2093AB253093AC259C
:102750008091BD27992787FD9095DC012A9FC001B4
:102760002B9F900D3A9F900D11246AE070E00E941B
:102770001D59CB012091D42B45E024029001112456
:10278000820F931F9BC081E00E94E42264E070E00E
:102790000E941D59CB01880F991F880F991F4091E6
:1027A000AB255091AC259A01220F331F240F351F02
:1027B000220F331F820F931F6AE070E00E941D59A1
:1027C0006093AB257093AC258091BD27992787FD39
:1027D0009095FC016E9FC0016F9F900D7E9F900DA4
:1027E00011246AE070E00E941D59CB012091D42B86
:1027F00045E0240290011124820F931F62E070E0F3
:102800000E941D597B01F1E061307F0724F0E12C2B
:10281000F1E0FF2E20C14FEF603074070CF01BC1B8
:10282000E12CEFEFFE2E17C181E00E94E42264E06C
:1028300070E00E941D59CB01880F991F880F991FC6
:102840004091AB255091AC259A01220F331F240FE4
:10285000351F220F331F820F931F6AE070E00E9422
:102860001D59DB016093AB257093AC25E091ED24FD
:10287000F091EE24EE0FFF1FE255FA4D20813181D9
:10288000220F331F8091D42B45E08402C001112414
:10289000280F391F8091BD27992787FD9095BC018E
:1028A000A69FC001A79F900DB69F900D11246AE0CE
:1028B00070E00E941D59C901860F971F62E070E009
:1028C0000E941D597B01C7C083E00E94E422182F9B
:1028D000092F60919D2070E080E090E02FEF3FE0B5
:1028E00040E050E00E94EA582AE030E040E050E04A
:1028F0000E94305949015A01A9018091A92590915E
:10290000AA2589879A87BC0180E090E069837A8351
:102910008B839C836901EE24FF242B013C01440C32
:10292000551C661C771C212F302FC90148175907E9
:1029300008F4C4019C0140E050E0C301B2010E94D0
:10294000EA586C0D7D1D8E1D9F1DCC0CDD1CEE1CF0
:10295000FF1CA70196010E9452592150304040406F
:10296000504069817A818B819C81261737074807FF
:10297000590734F089859A8501979C0140E050E021
:1029800057FF04C020E030E040E050E02093702981
:102990003093712920917029309171294091BB2782
:1029A0005091BC278091252890912628DC012A9FF0
:1029B000C0012B9F900D3A9F900D112444C0E091CF
:1029C000ED24F091EE24EE0FFF1FE255FA4D019039
:1029D000F081E02D8091762690917726E80FF91FFF
:1029E0002091A9253091AA25F7FD09C0CF01B90191
:1029F0000E940959809370299093712910C08827EB
:102A000099278E1B9F0BB9010E9409592150304014
:102A1000F901E81BF90BE0937029F09371292091DB
:102A20007029309171294091BB275091BC2780912A
:102A3000252890912628BC01269FC001279F900D34
:102A4000369F900D1124840F951F8093E924909355
:102A5000EA24EE24FF2480919C20813059F1121445
:102A6000130474F49101442737FD4095542F62E11B
:102A70007AE780E090E00E9430598EE598E013C03C
:102A800021143104C9F0222733272219330944279E
:102A900037FD4095542F62E17AE780E090E00E9494
:102AA000305982ED98E0BA01A90122E001E00E94CC
:102AB000BF300EC0EE24FF2482ED98E04EE450E0DB
:102AC00060E070E022E000E00E94BF302224332466
:102AD0001E141F0474F49701442737FD4095542FAA
:102AE00062E17AE780E090E00E94305986E998E060
:102AF00013C0E114F104A9F0222733272E193F094E
:102B0000442737FD4095542F62E17AE780E090E05A
:102B10000E9430598AE099E0BA01A90123E001E05E
:102B200008C08AE099E04EE450E060E070E023E005
:102B300000E00E94BF301092E5242E143F041CF0E8
:102B400081E08093E5242A96E2E10C948959A1E082
:102B5000B0E0EDEAF5E10C9475595C01FC01E08010
:102B6000F180C280D38084818093E8249581909302
:102B7000372786818093AD25882319F09093BA2753
:102B800009C0892F90E023E0880F991F2A95E1F76B
:102B90008093BA271092E42481E061E00E94B2227F
:102BA00091E007E010E00FC0A501400F511F892FF1
:102BB0006091BA2799830E94BA0F8091BA27080FB3
:102BC000111D99819F5F8091E824891768F77F2DF7
:102BD00060E06E0D711D80E00E9454237D2D60E049
:102BE0006C0D711D81E00E94542381E060E00E9421
:102BF000B2222196EAE00C9491594F925F926F9223
:102C00007F929F92AF92BF92CF92DF92EF92FF920C
:102C10000F931F93DF93CF9300D000D0CDB7DEB7D3
:102C20005C014DB65EB68FB781E061E00E94B222D2
:102C30009091BA278091E824989F600111248DB764
:102C40009EB78C199D098DBF9EBF6DB67EB6089448
:102C5000611C711C6D2D66956F5F70E080E090E0E7
:102C6000950140E050E00E94EA587B018C010894F5
:102C7000E11CF11C011D111DE9E0EE0CFF1C001F01
:102C8000111FEA95D1F782E799E2B801A7010E94E6
:102C9000863D982E882309F0F4C18091782990917F
:102CA0007929A0917A29B0917B298E159F05A007DB
:102CB000B10709F0E6C182E799E2B301A6019E01DE
:102CC0002F5F3F4F0E94F34E182F882309F0B4C1A5
:102CD00089819A818C159D0509F0AEC18091E4240B
:102CE000823018F081E00E9440221092E424DD241A
:102CF000D394EE24FF2473E0A72EB12CAC0EBD1E9E
:102D000095C183010E0D1F1DC090BA278091A12986
:102D1000813009F082C198E0C91659F5D8019C911B
:102D200011968C911197981721F512964C91129744
:102D300013968C9113974817E1F414963C911497CD
:102D400015968C9115973817A1F416962C91169715
:102D500017968C91281769F4941759F4931749F42E
:102D6000921739F48D2D61E0A8010E94BA0F51E04D
:102D700001C050E08091BA27883109F08CC0F3017E
:102D8000EE0DFF1DE081D80111968C911197E81787
:102D900009F081C012963C91129713968C9113976B
:102DA000381709F078C014962C91149715968C91C9
:102DB0001597281709F06FC016969C9116971796CD
:102DC0008C911797981709F066C0E31709F063C054
:102DD000E21709F060C0E91709F05DC018969C91F0
:102DE000189719968C911997981709F054C01A964C
:102DF0004C911A971B968C911B97481709F04BC062
:102E00001C963C911C971D968C911D97381709F0C4
:102E100042C01E962C911E971F968C911F972817C3
:102E2000D1F59417C1F59317B1F59217A1F5509606
:102E30009C91509751968C915197981761F55296A5
:102E40004C91529753968C915397481721F554966D
:102E50003C91549755968C9155973817E1F45696B6
:102E60002C91569757968C9157972817A1F4941741
:102E700091F4931781F4921771F4EB8318968C9167
:102E800018978C8350968C918D838D2D63E0A501CE
:102E90000E94BA0F51E08091BA27803209F0BBC07E
:102EA000F301EE0DFF1DE081D80111968C91119771
:102EB000E81709F0B0C012963C91129713968C91C6
:102EC0001397381709F0A7C014962C9114971596EC
:102ED0008C911597281709F09EC016969C9116970D
:102EE00017968C911797981709F095C0E31709F07A
:102EF00092C0E21709F08FC0E91709F08CC018964C
:102F00009C91189719968C911997981709F083C07E
:102F10001A964C911A971B968C911B97481709F09B
:102F20007AC01C963C911C971D968C911D97381762
:102F300009F071C01E962C911E971F968C911F97B9
:102F4000281709F068C0941709F065C0931709F0B5
:102F500062C0921709F05FC050969C9150975196AD
:102F60008C915197981709F056C052964C915297F0
:102F700053968C915397481709F04DC054963C9145
:102F8000549755968C915597381709F044C056962A
:102F90002C91569757968C9157972817E1F59417CF
:102FA000D1F59317C1F59217B1F558969C915897A2
:102FB00059968C915997981771F55A964C915A9742
:102FC0005B968C915B97481731F55C963C915C97CA
:102FD0005D968C915D973817F1F45E962C915E9713
:102FE0005F968C915F972817B1F49417A1F493170B
:102FF00091F4921781F4EB8318968C9118978C8337
:1030000050968C9150978D8358968C918E838D2DF0
:1030100064E0A50106C0552331F48D2D6091BA27D7
:10302000A8010E94BA0FEC0CF11CD3948091E82403
:103030008D1508F066CE4CC08091B020882309F031
:1030400047C086E697E00E94EF57EDB7FEB7389786
:10305000EDBFFEBF319688E497E0ADB7BEB71196DD
:103060008D939C93129712831382A482B5828981D7
:103070009A81868397830E943158EDB7FEB73896C0
:1030800025C08091B020882319F58EE197E00E9439
:10309000EF578DB79EB70A978DBF9EBFEDB7FEB7AE
:1030A00031968BEF96E0ADB7BEB711968D939C939A
:1030B000129792821382A482B582E682F7820087F9
:1030C00011870E943158EDB7FEB73A96EDBFFEBFAB
:1030D0008091B9278530E1F06091BB277091BC27C2
:1030E00080E090E06F5F7F4F8F4F9F4F2FEF3FE764
:1030F00040E050E00E94EA5820912528309126288F
:1031000040E050E00E94305980E0B9010E94542311
:10311000809103288530E1F06091702970917129C8
:1031200080E090E06F5F7F4F8F4F9F4F2FEF3FE723
:1031300040E050E00E94EA582091A9253091AA254C
:1031400040E050E00E94305981E0B9010E945423D0
:103150008091E624813059F58091BB279091BC275E
:103160004091BB275091BC2763E0969587956A955F
:10317000E1F790E0FC01E757F94D208130E053E0A2
:10318000880F991F5A95E1F7481B87E090E0841B50
:10319000910902C0359527958A95E2F720FD03C075
:1031A00080E060E002C080E061E00E94B22281E045
:1031B00060E00E94B2224DBE5EBE2696CDBFDEBF4D
:1031C000CF91DF911F910F91FF90EF90DF90CF9003
:1031D000BF90AF909F907F906F905F904F900895B9
:1031E000A0E0B0E0E6EFF8E10C94755981E080933F
:1031F0009C202091A9253091AA2580912528909185
:103200002628289F5001299FB00C389FB00C11240C
:103210000E94BF56C0E0D0E004C0CE010E94FD1560
:103220002196CA15DB05C8F30E94D4567B018C0198
:103230008DB79EB708978DBF9EBFCDB6DEB60894FA
:10324000C11CD11C85EC95E0EDB7FEB7818392835C
:10325000F601E282F38204831583B50180E090E0F9
:1032600028EE33E040E050E00E94EA58A8019701C0
:103270000E943059F601268337830E9431588DB75A
:103280009EB708968DBF9EBFCDB7DEB7EAE00C941F
:103290009159A2E0B2E0EFE4F9E10C947C59182FC7
:1032A0008A3080F400D000D0EDB7FEB7319687E0C9
:1032B00095E2ADB7BEB711968D939C93129785E7B3
:1032C00090E21FC087E095E2143670F400D000D081
:1032D000EDB7FEB73196ADB7BEB711968D939C93FF
:1032E000129783E890E20DC000D000D0EDB7FEB792
:1032F0003196ADB7BEB711968D939C93129780E926
:1033000090E282839383148315820E94CD5B8DB7F4
:103310009EB706968DBF9EBF82E799E20E94204A23
:1033200082E799E267E075E241E00E94DC4D882384
:1033300009F0A7C082E799E2BE016D5F7F4F40E0D0
:1033400052E09E012F5F3F4F0E94F34E882309F009
:1033500091C089819A818050924009F08BC08B8105
:10336000809325288C81809326288D818093A925A0
:103370008E818093AA258F818093E82498859093ED
:103380003727892F8B50843048F49A5090933727F1
:1033900081E08093AD259093BA270BC01092AD25A4
:1033A000892F90E0F3E0880F991FFA95E1F7809359
:1033B000BA271092702910927129809170299091EA
:1033C00071298093BB279093BC271092E924109217
:1033D000EA2481E080939C201092E4248091B02024
:1033E000882309F040C000D00F92EDB7FEB73196A8
:1033F00086EE96E0ADB7BEB711968D939C9312976B
:10340000128313820E9431588DB79EB708978DBFE3
:103410009EBFEDB7FEB7319683E996E0ADB7BEB774
:1034200011968D939C931297809125289091262830
:10343000828393838091A9259091AA258483958383
:103440008091E824868317828091372780871186B0
:103450008091AD25828713860E9431588DB79EB723
:103460000C968DBF9EBF8091E9249091EA240E9422
:10347000FD150FC08091B020882359F484E796E0B1
:1034800006C08091B020882321F488E596E00E9450
:10349000EF57CE5FDD4FE3E00C949859FC0180813B
:1034A000803721F0813709F0B5C073C0928180E088
:1034B0002181820F911D8093BB279093BC2794811B
:1034C00080E02381820F911D809370299093712950
:1034D0008091BB279091BC27809306279093072764
:1034E0008091702990917129809376269093772608
:1034F00020917029309171294091BB275091BC27B0
:103500008091252890912628BC01269FC001279FE5
:10351000900D369F900D1124840F951F8093E92400
:103520009093EA241092E4248091B020882351F5EE
:103530002091BB273091BC2740917029509171296F
:103540006091E9247091EA248DB79EB708978DBFEA
:103550009EBFEDB7FEB7319682EF97E0ADB7BEB72D
:1035600011968D939C9312972283338344835583C2
:10357000668377830E9431586DB77EB7685F7F4F4F
:103580006DBF7EBF8091E9249091EA240E94FD15D1
:1035900008955181509304284281409399253381A5
:1035A0003093BD2724812093D42B8091B020882391
:1035B000B9F58DB79EB70A978DBF9EBFEDB7FEB721
:1035C000319683EB97E0ADB7BEB711968D939C9380
:1035D0001297852F992787FD909582839383842F57
:1035E000992787FD909584839583832F992787FD5D
:1035F000909586839783822F992787FD9095808762
:1036000091870E9431586DB77EB7665F7F4F6DBF5F
:103610007EBF089580E068E045EE50E20E94BA0F58
:103620000895FC012181808190E0FC013197E13116
:10363000F10508F047C0E650FF4F0C94A459822FC3
:1036400062E04DEF50E242C0822F62E04FEF50E265
:103650003DC0822F0E9449190895822F0E94D623CF
:103660000895822F0E947A230895822F90E0880F78
:10367000991F8093A6209093A7200895822F0E94DF
:10368000342A0895822F0E9442270895822F0E9493
:1036900044110895822F81500E94E42200D00F929D
:1036A00024E738E0EDB7FEB7218332838383948328
:1036B0000E9431580F900F900F900F900895209313
:1036C0009D20089580E068E04DEC50E20E94BA0F22
:1036D0000895A2E0B0E0EFE6FBE10C947759FC011D
:1036E000E081E53409F40DC2E63408F058C0E93150
:1036F00009F4BFC2EA3140F5E33109F47EC2E43196
:1037000080F4E03109F46AC2E13120F4EE2309F4D7
:10371000DAC119C3E13109F465C2E23109F013C31A
:1037200068C2E63109F486C2E73138F4E43109F4BD
:1037300067C2E53109F007C366C2E73109F492C2F6
:10374000E83109F000C392C2E53309F472C1E633EF
:1037500098F4E23209F4E5C2E33238F4E03209F4D5
:1037600073C0E13209F0EFC2CCC2E53209F400C106
:10377000E03309F0E8C2B7C0E23409F4B3C1E3347E
:1037800038F4E03409F4A4C1E13409F0DCC2A5C185
:10379000E33409F4ACC1E43409F0D5C2ADC1E53974
:1037A00009F4E5C1E63928F5E03709F4C4C1E13789
:1037B00068F4E73409F4AFC1E73408F4A7C1E03591
:1037C00009F4B3C1E03609F0BEC2B2C1E23909F46E
:1037D000BFC1E33938F4E03909F4B0C1E13909F087
:1037E000B2C2B1C1E33909F4B8C1E43909F0ABC2DE
:1037F000B9C1EB3909F4D9C1EC3998F4E83909F4C5
:10380000C5C1E93938F4E63909F4B6C1E73909F038
:103810009AC2B7C1E93909F4BEC1EA3909F093C2C5
:10382000BFC1EE3909F4D0C1EF3938F4EC3909F4ED
:10383000C1C1ED3909F087C2C2C1EF3909F4C9C16C
:10384000EF3F09F080C26CC11092EF241092F02477
:103850001092F1241092F2241092F3241092F42486
:103860001092F5241092F6241092EB241092EC247E
:103870001092ED241092EE2410929C201092E424D9
:1038800086ED91E14EE450E060E070E021E001E07F
:103890000E9499308EE598E04EE450E060E070E0E0
:1038A00022E000E00E94993086E998E04EE450E082
:1038B00060E070E023E00E9499304091A220509196
:1038C000A32060E070E08CE29DE024E001E00E9433
:1038D00099304091A4205091A52060E070E082EEE4
:1038E0009CE025E0A3C081E080939C2086ED91E1DF
:1038F0004EE450E060E070E021E000E00E9499308A
:103900008EE598E04EE450E060E070E022E00E9436
:10391000993086E998E04EE450E060E070E023E002
:103920000E9499304091A2205091A32060E070E065
:103930008CE29DE024E00E9499304091A4205091B7
:10394000A52060E070E082EE9CE025E00E949930C6
:103950008091A020882319F481E00E94030C8091BB
:10396000A120882309F0F5C181E00E94240BF1C158
:103970001092EF241092F0241092F1241092F2246D
:103980001092F3241092F4241092F5241092F6244D
:103990001092EB241092EC241092ED241092EE245D
:1039A00010929C201092E42486ED91E14EE450E0C8
:1039B00060E070E021E001E00E9499308EE598E03F
:1039C0004EE450E060E070E022E000E00E949930B8
:1039D00086E998E04EE450E060E070E023E00E9469
:1039E00099304091A2205091A32060E070E08CE2D9
:1039F0009DE024E001E00E9499304091A420509184
:103A0000A52060E070E082EE9CE025E00E94993005
:103A10006091A6207091A72082E19AE70E9409593F
:103A2000AB0160E070E082ED91E120E00E9499300E
:103A300090C181E080939C2086ED91E14EE450E0BE
:103A400060E070E021E000E00E9499308EE598E0AF
:103A50004EE450E060E070E022E00E94993086E998
:103A600098E04EE450E060E070E023E00E9499307E
:103A70004091A2205091A32060E070E08CE29DE094
:103A800024E00E9499304091A4205091A52060E04C
:103A900070E082EE9CE025E00E9499302091A62003
:103AA0003091A72040E050E062E17AE780E090E0CA
:103AB0000E94525982ED91E1BA01A90120E00E94D1
:103AC000993082E092C080E068E043E155E23FC176
:103AD00080E068E141E051E23AC180E068E149E11B
:103AE00051E235C180E068E141E351E230C180E05C
:103AF00068E149E451E22BC180E068E141E651E22E
:103B000026C180E068E149E751E221C180E068E137
:103B100041E951E21CC180E068E149EA51E217C184
:103B200080E068E041EC51E212C10E94532211C1D1
:103B30000E94BE230EC10E94F0180BC180E060E21B
:103B400049EC51E204C180E060E249EE51E2FFC07D
:103B500080E060E249E052E2FAC080E060E249E2DF
:103B600052E2F5C080E060E249E452E2F0C080E059
:103B700060E249E652E2EBC080E060E249E852E2EE
:103B8000E6C080E060E249EA52E2E1C080E060E243
:103B900049EC52E2DCC080E060E249EE52E2D7C07C
:103BA00080E060E249E053E2D2C080E060E249E2B6
:103BB00053E2CDC080E060E249E453E2C8C080E057
:103BC00060E249E653E2C3C080E060E249E853E2C4
:103BD000BEC080E060E249EA53E2B9C081E0809370
:103BE000E624B7C01092E62480E060E00E94B22292
:103BF000B0C081E08093A129ACC01092A129A9C0D6
:103C00000E94530AA6C000D00F928CE099E0ADB795
:103C1000BEB711968D939C93129789EC93E21396FD
:103C20008D939C9314970E9431580F900F900F9092
:103C30000F908FC0B9E3EB2EB7E2FB2E01E01EEF31
:103C40006E010894C11CD11C1983F70181917F0179
:103C50008A83802F62E0A6010E94BA0F0F5F0138AD
:103C600099F777C081E08093B02073C01092B020A4
:103C700070C08DB79EB742978DBF9EBFEDB7FEB7A0
:103C800031968AEE98E0ADB7BEB711968D939C93AE
:103C9000129780910428992787FD909582839383BA
:103CA00080919925992787FD9095848395838091AC
:103CB000062790910727868397838091B92780876D
:103CC00011868091BD27992787FD909582879387DC
:103CD0008091D42B992787FD909584879587809133
:103CE0007626909177268687978780910328808B08
:103CF000118A0E943158EDB7FEB77296EDBFFEBF34
:103D000028C080E090E06FEF0E94085E0F920F9253
:103D100088EB98E0ADB7BEB711968D939C93129740
:103D20000DC080E090E060E00E94085E0F920F926C
:103D300086E898E0EDB7FEB7818392830E94315800
:103D40000F900F9006C080E068E045EC50E20E94C2
:103D5000BA0F2296E8E00C949359A0E5B6E0E3EBA5
:103D6000FEE10C94775980E090E00E94F85DE82E27
:103D700088E796E26E2D0E943D3282E999E26E2D2F
:103D80000E943D3288E297E26E2D0E943D328AE920
:103D900095E26E2D0E943D3288E796E260E874E07D
:103DA00040E450E023E20E94EE3082E999E260E9CB
:103DB00074E040E450E023E20E94EE3088E297E2B3
:103DC00060EA74E040E450E023E20E94EE308AE9C9
:103DD00095E260EB74E040E450E023E20E94EE30B4
:103DE0008E2D0E94E52F0E943A2D8EEA9EE280934E
:103DF00077259093782580E090E02AE030E0FC0180
:103E0000E255FA4D20833183FC01E95DF74D2083B3
:103E100031830296883C910591F7E9E8F6E220E0CB
:103E200030E04FEF2330310520F0C90106970397AA
:103E300010F4408301C010822F5F3F4F31962D3721
:103E4000310581F7109270291092712980917029A3
:103E5000909171298093BB279093BC278091BB27B9
:103E60009091BC278093762690937726809306279F
:103E7000909307271092D42B109299251092BD276A
:103E800010920428109203281092B9271092AB25A3
:103E90001092AC25109287261092882681E080939C
:103EA00037271092AD251092A12981E090E00E9461
:103EB000F85D8F3FD9F4198224E014C0E82FF0E0B8
:103EC000E85CF84D982F93709083882319F099231C
:103ED00009F420838981E82FF0E0E151F74D8083D8
:103EE0008F5F89838981813848F317C0198211C097
:103EF0000F2D10E0C8018F5F9F4F0E94F85DF80101
:103F0000E85CF84D80830151174DF801F082F3947D
:103F1000F982F980F0E8FF1558F785E69AE00E94EB
:103F2000EF5781E061E00E941D2201E060E2C62EB1
:103F300063E0D62E3AC080E00E945052082F81FFE5
:103F40000DC086E59AE00E94EF570E94DA2E04C069
:103F500080E00E945052082F01FDFACF02FF04C0FA
:103F600089E39AE00E94EF57198210C080E00E9416
:103F70004655082F80FF0DC089818F5F898384EFAC
:103F800091E0F6013197F1F70197D9F789818430F3
:103F900068F300FF0AC08FE19AE00E94EF5780E0CB
:103FA0000E945052082F81FFFACF00FDC4CF87E056
:103FB0009AE00E94EF5780E06AE0AE014F5F5F4FEA
:103FC0000E943A53892B59F58BEF99E00E94EF57E5
:103FD00089818430A1F0853028F4813051F082301D
:103FE000D1F40AC0883089F08C3091F0863099F491
:103FF00009C086EF99E011C082EF99E00EC08DEE06
:1040000099E00BC088EE99E008C083EE99E005C006
:104010008DED99E002C088ED99E00E94EF578FEB9B
:1040200099E00E94EF5780E062EA79E20E94DE3276
:10403000813051F0813028F0823049F0833069F4CA
:1040400009C085EB99E00BC08CEA99E008C089E9CA
:1040500099E005C08CE899E002C087E899E00E94E9
:10406000EF5780E068E043E155E20E94BA0F81E03B
:1040700060E00E941D220E9453228FEFE81609F093
:10408000D0C089E599E00E94EF578E010E5F1F4F67
:104090000E947B2E892B09F449C0C8010E94E12EA1
:1040A0008430910509F18530910548F482309105FD
:1040B00099F083309105A0F4019791F509C08E33F2
:1040C0009105D1F08F33910539F1059749F510C06D
:1040D000C8010E94691B2AC0C8010E94111B26C08A
:1040E000C8010E94361022C0C8010E9414101EC0D0
:1040F000C8010E944E1A1AC020E030E0F901E757CB
:10410000F94DD801A20FB31F8C9180832F5F3F4FD1
:104110002E33310599F70AC0C8010E943A0A06C039
:1041200080E068E04DEE50E20E94BA0F80919C2042
:10413000882309F0ADCF2091E9243091EA248091C1
:104140009E2090919F202817390771F08091E924D3
:104150009091EA2480939E2090939F208091E9245F
:104160009091EA240E94FD158091A020882349F5B2
:104170002091EB243091EC248091B1209091B220D9
:1041800096958795019728173907C0F42091EF2459
:104190003091F0244091F1245091F2248091A82094
:1041A0009091A920A091AA20B091AB200297A109DB
:1041B000B109281739074A075B0718F080E00E9409
:1041C000030C8091A120882309F062CF2091ED2477
:1041D0003091EE248091B3209091B42096958795EC
:1041E000019728173907C8F42091F3243091F4245B
:1041F0004091F5245091F6248091AC209091AD200F
:10420000A091AE20B091AF200297A109B109281763
:1042100039074A075B0708F43BCF80E00E94240B74
:1042200037CF8BE299E00E94EF578E010D5B1F4F55
:104230000E947B2E892BE1F3C8010E94E12E813080
:10424000910519F0C29749F404C0C8010E94691B86
:10425000EFCFC8010E94A715EBCF80E068E04DEEDC
:1042600050E20E94BA0FE4CF1F920F920FB60F9246
:1042700008B60F9209B60F920BB60F92112418BE12
:1042800019BE1BBE2F933F934F935F936F937F9302
:104290008F939F93AF93BF93EF93FF938AE995E238
:1042A0000E940A32FF91EF91BF91AF919F918F9140
:1042B0007F916F915F914F913F912F910F900BBE26
:1042C0000F9009BE0F9008BE0F900FBE0F901F9069
:1042D00018951F920F920FB60F9208B60F9209B65B
:1042E0000F920BB60F92112418BE19BE1BBE2F934E
:1042F0003F934F935F936F937F938F939F93AF936E
:10430000BF93EF93FF9388E297E20E940A32FF91F6
:10431000EF91BF91AF919F918F917F916F915F913D
:104320004F913F912F910F900BBE0F9009BE0F90B0
:1043300008BE0F900FBE0F901F9018951F920F92FE
:104340000FB60F9208B60F9209B60F920BB60F92E6
:10435000112418BE19BE1BBE2F933F934F935F933A
:104360006F937F938F939F93AF93BF93EF93FF933D
:1043700082E999E20E940A32FF91EF91BF91AF91D9
:104380009F918F917F916F915F914F913F912F916D
:104390000F900BBE0F9009BE0F9008BE0F900FBE7E
:1043A0000F901F9018951F920F920FB60F9208B69C
:1043B0000F9209B60F920BB60F92112418BE19BEB8
:1043C0001BBE2F933F934F935F936F937F938F9376
:1043D0009F93AF93BF93EF93FF9388E796E20E947A
:1043E0000A32FF91EF91BF91AF919F918F917F9191
:1043F0006F915F914F913F912F910F900BBE0F9056
:1044000009BE0F9008BE0F900FBE0F901F90189519
:104410000F93DF93CF930F92CDB7DEB72FB72983DA
:10442000F8941BBEFC0108ED04BF608389818FBF37
:104430000F90CF91DF910F910895282F30E0C9019F
:104440008C7F892BE1F4862F8E7FC9F42C5F3F4F40
:10445000613059F481E090E002C0880F991F2A95DD
:10446000E2F7E0E0F7E08683089581E090E002C0A3
:10447000880F991F2A95E2F7E0E0F7E08583089519
:10448000282F30E0C9018C7F892B61F42C5F3F4FCE
:1044900081E090E002C0880F991F2A95E2F7E0E0E2
:1044A000F7E08783089520E030E0A0E0B7E060E225
:1044B00040E253E017966C9317978CEA9DE0FA015F
:1044C0003197F1F70197D9F72F5F3F4F2A30310528
:1044D00089F70895482F50E0CA018C7F892B79F520
:1044E0006623B9F44C5F5F4F81E090E09C01042E9D
:1044F00002C0220F331F0A94E2F744505040E0E21A
:10450000F7E0268302C0880F991F4A95E2F781835E
:1045100008956130A1F481E090E09C01042E02C076
:10452000220F331F0A94E2F7E0E2F7E022834C5FA8
:104530005F4F02C0880F991F4A95E2F7858308955F
:10454000282F30E0C9018C7F892B11F080E008957D
:104550008091280790E002C0959587952A95E2F70B
:1045600081700895282F30E0C9018C7F892BD1F408
:10457000862F8E7FB9F4613059F481E090E002C05B
:10458000880F991F2A95E2F7E0E2F7E08583089506
:1045900081E090E002C0880F991F2A95E2F7E0E2DF
:1045A000F7E086830895282F30E0C9018C7F892B9E
:1045B00051F481E090E002C0880F991F2A95E2F73C
:1045C000E0E2F7E087830895A2E0B0E0EAEEF2E2ED
:1045D0000C947D59282F30E0C901887F892B19F070
:1045E00020E030E05CC080E1E0E4F6E08683C901D1
:1045F00087709070880F991F880F991F8068E0EC72
:10460000F8E083838091C20887FFFCCF80E1E0EC73
:10461000F8E083838091C20887FFFCCFE0E4F6E0F6
:1046200080E185838683E0ECF8E013828091C20804
:1046300087FFFCCFDE0111969091C308E0ECF8E013
:1046400013828091C20887FFFCCF8091C308119626
:104650009C9311978C9380E1E0E4F6E085832E7FB4
:1046600089819A81232B69F49C013F7094FF04C0D7
:1046700035952795386F02C03595279529833A835C
:104680000CC094FF04C09F709595879504C09061FD
:10469000959587959F7089839A8329813A81C9016D
:1046A0002296E2E00C949959982F8C7F11F580E8BE
:1046B00060307807F1F080E1E0E6F6E086839770FD
:1046C000E0ECF9E093838091C20987FFFCCFE0EC36
:1046D000F9E073838091C20987FFFCCFE0ECF9E039
:1046E00063838091C20987FFFCCF80E1E0E6F6E0BA
:1046F00085830895A0E0B0E0E0E8F3E20C947159FE
:10470000B82EC0E0D0E000E217E06624639482E0B7
:10471000782EB4E08B2EA8E09A2EF0E2EF2EF3E094
:10472000FF2EC12CE7E0DE2E70E2A72EF801678293
:1047300077828782978288EE93E0F7013197F1F7CD
:104740000197D9F78B2D0E94E422BC0128EE33E0BB
:10475000F7013197F1F721503040D1F781E00E9405
:104760005423C0FF02C0F601A7822196CC33D105A5
:10477000E9F6CDB7DEB7EEE00C948D590F93DF93D9
:10478000CF930F92CDB7DEB78FB78983F8941BBE56
:1047900021E089E790E0FC0108ED04BF20838981D6
:1047A0008FBF0F90CF91DF910F910895A0E0B0E0FF
:1047B000ECEDF3E20C947359982E00E040EAA42E3D
:1047C0004FE0B42E30E8C32E3EE3D32EE12C27E099
:1047D000F22E90E2892E1DC0143610F4BE0103C0E3
:1047E000B5016C1B7D0B80E00E945423892D0E9433
:1047F000E422BC0181E00E945423C6010197F1F735
:104800001F5F6496183C41F7F70187820F5F0E31F6
:1048100021F010E0C0E0D0E0DFCFCDB7DEB7ECE0B4
:104820000C948F59BC0128EB3CE040E050E008C0FC
:10483000F9012F5F3F4FE491EE23D1F74F5F5F4FB8
:104840004617570721F0F9018491882389F700D092
:104850000F9284EB9CE0EDB7FEB7818392832383B4
:1048600034830E9431580F900F900F900F9008954D
:10487000A0E0B0E0EEE3F4E20C9474595C016A014C
:104880007B01922EE8018AEA9FE00E94EF5787E6BB
:104890008883BB27AF2D9E2D8D2D8983CA829B8255
:1048A00085E48C83C50160E7A80125E0092D0E94FD
:1048B0001031D5011D968C911D978823D1F71E9636
:1048C0008C911E978130B9F01E962C9100D00F92DA
:1048D000EDB7FEB731968DE89FE0ADB7BEB7119644
:1048E0008D939C931297228313820E9431580F90CC
:1048F0000F900F900F90DE0131E020E00DC0E50138
:10490000ED81FE81E20FF11D908115968C91159736
:10491000981330E02F5F1196291588F3832F90E0CC
:10492000CDB7DEB7EBE00C949059A0E0B0E0EBE936
:10493000F4E20C9474595C016A017B01922EE80147
:1049400089EC9FE00E94EF5787E68883BB27AF2D55
:104950009E2D8D2D8983CA829B8285E48C83C5011F
:1049600060E7A80125E0092D0E941031D5011D96B0
:104970008C911D978823D1F71E968C911E978130BC
:10498000B9F01E962C9100D00F92EDB7FEB731967C
:104990008CEA9FE0ADB7BEB711968D939C931297AA
:1049A000228313820E9431580F900F900F900F9026
:1049B000DE0190E00AC0E501ED81FE81E90FF11D05
:1049C000808114968C9314979F5F1196991598F394
:1049D000CDB7DEB7EBE00C949059A0E0B0E0E3EF88
:1049E000F4E20C947659EC016A017B01B22E8AEE56
:1049F0009FE00E94EF5782E4D8018C93BB27AF2D34
:104A00009E2D8D2DF8018183C282B38285E484833B
:104A1000F5E0BF0ECE0160E7A8012B2D00E00E945B
:104A200010318D858823E9F78E858130B1F02E8590
:104A300000D00F92EDB7FEB731968BEC9FE0ADB78B
:104A4000BEB711968D939C931297228313820E9476
:104A500031580F900F900F900F90CDB7DEB7E9E06F
:104A60000C949259A0E0B0E0E8E3F5E20C9474599C
:104A70005C016A017B01922EE80189E090E10E94CD
:104A8000EF5787E68883BB27AF2D9E2D8D2D898319
:104A9000CA82892D86958B8386E48C83C50160E765
:104AA000A80125E0092D0E941031D5011D968C9199
:104AB0001D978823D1F71E968C911E978130B9F0EF
:104AC0001E962C9100D00F92EDB7FEB731968CEE6A
:104AD0009FE0ADB7BEB711968D939C93129722833A
:104AE00013820E9431580F900F900F900F90DE01AB
:104AF00031E020E00DC0E501ED81FE81E20FF11D06
:104B0000908115968C911597981330E02F5F119630
:104B1000291588F3832F90E0CDB7DEB7EBE00C9436
:104B20009059A0E0B0E0E7E9F5E20C9474595C011B
:104B30006A017B01922EE80188E290E10E94EF5722
:104B400087E68883BB27AF2D9E2D8D2D8983CA8252
:104B5000892D86958B8386E48C83C50160E7A80147
:104B600025E0092D0E941031D5011D968C911D97CD
:104B70008823D1F71E968C911E978130B9F01E962E
:104B80002C9100D00F92EDB7FEB731968BE090E1FB
:104B9000ADB7BEB711968D939C9312972283138263
:104BA0000E9431580F900F900F900F90DE0190E00F
:104BB0000AC0E501ED81FE81E90FF11D80811496A7
:104BC0008C9314979F5F1196991598F3CDB7DEB724
:104BD000EBE00C949059A0E0B0E0E1EFF5E20C942A
:104BE0007659EC016A017B01B22E88E490E10E94C3
:104BF000EF5782E4D8018C93BB27AF2D9E2D8D2DCE
:104C0000F8018183C2828B2D8695838386E4848319
:104C1000F5E0BF0ECE0160E7A8012B2D00E00E9459
:104C200010318D858823E9F78E858130B1F02E858E
:104C300000D00F92EDB7FEB731968AE290E1ADB7A2
:104C4000BEB711968D939C931297228313820E9474
:104C500031580F900F900F900F90CDB7DEB7E9E06D
:104C60000C949259AFE0B0E0E8E3F6E20C946D5991
:104C70007C018B01DB010D900020E9F76D010894A8
:104C8000C108D108C61AD70AB3E0CB16D1040CF478
:104C9000F2C0FB0181818B8382818C831D82CE01D6
:104CA00003968C879D87CE010396BE016F5F7F4F71
:104CB00040E150E00E94AF5AD7016C93E981FA813C
:104CC0008C859D85E817F90709F4D5C08081882374
:104CD00009F0D1C097E0C916D1040CF4CCC0D801BA
:104CE00013968C9113978B8314968C9114978C83C5
:104CF00015968C9115978D8316968C918E831F82B5
:104D0000CE010396BE016F5F7F4F40E150E00E94ED
:104D1000AF5AF70161837283E981FA818C859D85A1
:104D2000E817F90709F4A7C08081882309F0A3C018
:104D300099E0C916D1040CF49EC0D80117968C9145
:104D400017978B8318968C918C831D82CE010396C6
:104D5000BE016F5F7F4F40E150E00E94AF5AF70104
:104D60006383E981FA818C859D85E817F90709F449
:104D700082C08081882309F07EC0D70111968C9172
:104D8000119712969C9112977C90780E790E760E60
:104D90004801170144245524B9E0AB2EB12CFE0183
:104DA0003396EE87FF87CE0101968B87692E32C03E
:104DB0002C153D050CF05FC0D40119968C91199704
:104DC0008B831A968C918C83E2E0F0E0AE0EBF1ECE
:104DD0001D82CE0103966B85762D40E150E00E9446
:104DE000AF5AD10114966C93E981FA818E859F8523
:104DF000E817F90709F43FC0A2E0B0E08A0E9B1E55
:104E00000894211C311C80818823A9F5760E089412
:104E1000411C511CF701808190E095012F5F3F4FAD
:104E2000481659062CF22C153D052CF5F801EA0D13
:104E3000FB1D80818B8381818C831D828E010D5FA0
:104E40001F4FC801BE016F5F7F4F40E150E00E94DD
:104E5000AF5A84E091E0E80EF91ED7016C93E98126
:104E6000FA81E017F10739F08081882321F47194E9
:104E7000272D30E002C02FEF3FEFC9012F96E2E16E
:104E80000C948959A0E9B2E0E8E4F7E20C946D597A
:104E9000082FE82EFF24F701E85CF84DE081EE23AF
:104EA00009F4CDC2E33071F0E43089F0E23029F446
:104EB00082E9882E89E2982E0EC018E7812E16E22C
:104EC000912E09C0B8E28B2EB7E29B2E04C0AAE94E
:104ED0008A2EA5E29A2E83EE97E26EEC73E241E011
:104EE0000E94DC4D182F882349F087E99CE00E943E
:104EF000EF57812F90E00E9412243DC000D00F9206
:104F000085E89CE0ADB7BEB711968D939C93129740
:104F10001396ED92FC9214970E943158198281E009
:104F20008A830F900F900F900F90C401602FAE01F5
:104F30004F5F5F4F22E000E00E941031F401858551
:104F40008823E1F786858130B1F0268500D00F9265
:104F5000EDB7FEB7319687E69CE0ADB7BEB71196C8
:104F60008D939C931297228313820E9431580F9045
:104F70000F900F900F9088E893E120E233E0F90161
:104F80003197F1F70197D9F78AE59CE00E94EF5736
:104F90000FEF1FEFCC24DD2466247724F6E82F2EB4
:104FA000312C2C0E3D1EE6E84E2EE1E05E2E4C0E1E
:104FB0005D1EF2013496C357DD4FE883F983CD5867
:104FC000D240CBC00894611C711CF10101900020FB
:104FD000E9F7329780818A3009F41082D1018C91EF
:104FE0008A3309F0BAC0C201B1010E943226F82EFC
:104FF000C657DD4F8881CA58D240F81619F100D043
:105000000F9286E29CE0EDB7FEB7818392836382C4
:1050100074820E9431580F920F92EDB7FEB731960D
:105020008BEF9BE0ADB7BEB711968D939C93129713
:10503000C657DD4F8881CA58D24082831382F482DA
:10504000158282C0D20113962C911397222309F066
:1050500053C01196ED90FC9012975701AA0CAB2CFF
:10506000AA1CBB08B194A016B106C1F0CD1491F0F2
:105070001695102F0027179507950C0D111DA801E7
:1050800060E070E0DC18C4012D2D8E010F5F1F4F12
:105090000E94ED245FE7D52EDE20CD2C4E2D4F77DC
:1050A0004C1508F4C42EF2015081252F30E0C3576F
:1050B000DD4FA881B981CD58D240E42FF0E035967C
:1050C00081E090E08C0F9D1FE80FF91F2C5F3F4F90
:1050D000240D351D02C08D918193A217B307D9F716
:1050E000852F90E0840F911D2D2D30E02817390772
:1050F0009CF5D42ED50E30C02130A9F4CD14B9F1D1
:105100001695102F0027179507950C0D111DA80156
:1051100060E070E0DC18C4012D2D8E010F5F1F4F81
:105120000E94ED2424C000D000D0EDB7FEB7319628
:1051300089EB9BE0ADB7BEB711968D939C93129708
:1051400022831382648275820E943158EDB7FEB7C4
:105150003696EDBFFEBF0BC08501C10160E071E076
:1051600043EE57E20E949D50892B09F02BCF83EE2E
:1051700097E240E050E060E070E00E94863D182F2A
:10518000882349F08BE99BE00E94EF57812F90E044
:105190000E9412242CC18EE89BE00E94EF57CC2481
:1051A000CA94DC2C00E010E066247724CE018A57F4
:1051B0009F4FC157DD4F88839983CF58D24036E83F
:1051C000432E31E0532E4C0E5D1ED2011496C5576E
:1051D000DD4FA883B983CB58D240FFC00894611C2F
:1051E000711CC157DD4FE881F981CF58D240019041
:1051F0000020E9F7329780818A3009F41082CA577B
:10520000DF4F8881C658D0408A3309F0E6C0C2011A
:10521000B1010E943226F82EC657DD4F8881CA5848
:10522000D240F81619F100D00F928BE59BE0EDB754
:10523000FEB781839283638274820E9431580F92F9
:105240000F92EDB7FEB7319680E39BE0ADB7BEB7E6
:1052500011968D939C931297C657DD4F8881CA583B
:10526000D24082831382F4821582AEC0D20113969B
:105270002C911397222309F065C01196ED90FC90B4
:1052800012975701AA0CAB2CAA1CBB08B194AC1402
:10529000BD0449F1011721F1A6015695542F442769
:1052A00057954795400F511D60E070E0101BC401F9
:1052B000212F8E010F5F1F4F0E943824892B81F40C
:1052C00000D00F9283E19BE0EDB7FEB7818392831C
:1052D000C382D4820E9431580F900F900F900F908C
:1052E0001E2D1F77012F4E2D4F77401708F4042FE6
:1052F000D2015C91252F30E0C557DD4FA881B981DF
:10530000CB58D240E42FF0E0359681E090E08C0F4E
:105310009D1FE80FF91F2C5F3F4F240D351D02C064
:105320008D918193A217B307D9F7852F90E0840F51
:10533000911D212F30E0281739070CF04DC0142F94
:10534000150F4AC0213079F5011741F1A601569594
:10535000542F442757954795400F511D60E070E04A
:10536000101BC401212F8E010F5F1F4F0E94382494
:10537000892BA1F400D00F9286EF9AE0ADB7BEB7AB
:1053800011968D939C9312971396CD92DC9214975D
:105390000E9431580F900F900F900F9084EF9AE079
:1053A0000E94EF5724C000D000D0EDB7FEB7319671
:1053B00083EB9AE0ADB7BEB711968D939C9312978D
:1053C00022831382648275820E943158EDB7FEB742
:1053D0003696EDBFFEBF0BC06501C10160E071E014
:1053E00043EE57E20E949D50892B09F0F7CE85E4E9
:1053F0008983C40160E7AE014F5F5F4F21E000E0A9
:105400000E941031D4011D968C911D978823D1F7ED
:105410001E968C911E97813011F11E962C9100D012
:105420000F92EDB7FEB7319688E99AE0ADB7BEB7F7
:1054300011968D939C931297228313820AC000D0F9
:105440000F928DE79AE0EDB7FEB781839283E382F6
:10545000F4820E9431580F900F900F900F90C05718
:10546000DD4FE2E10C948959A0E9B2E0EAE3FAE207
:105470000C946D59082FE82EFF24F701E85CF84DD5
:10548000E081EE2309F4E1C2E33071F0E43089F009
:10549000E23029F492E9892E99E2992E0EC088E72C
:1054A000882E86E2982E09C018E2812E17E2912EEE
:1054B00004C0BAE98B2EB5E29B2E83EC97E269ED2E
:1054C00073E241E00E94DC4D182F882349F081E708
:1054D0009FE00E94EF57812F90E00E94122451C05C
:1054E00007FF12C084E0E0E6F6E0868384E690E001
:1054F00020E233E0F9013197F1F70197D9F784E021
:10550000E0E6F6E085833DC000D00F9280E69FE0A4
:10551000ADB7BEB711968D939C9312971396ED92EB
:10552000FC9214970E943158198281E08A830F906F
:105530000F900F900F90C401602FAE014F5F5F4F2F
:1055400022E000E00E941031F40185858823E1F714
:1055500086858130B1F0268500D00F92EDB7FEB779
:10556000319682E49FE0ADB7BEB711968D939C93C0
:105570001297228313820E9431580F900F900F9040
:105580000F9088E893E120E233E0F9013197F1F7D9
:105590000197D9F785E39FE00E94EF570FEF1FEFC8
:1055A000CC24DD2466247724A6E82A2E312C2C0E68
:1055B0003D1EF6E84F2EF1E05F2E4C0E5D1EF2010F
:1055C0003496C357DD4FE883F983CD58D240CBC022
:1055D0000894611C711CF10101900020E9F73297D9
:1055E00080818A3009F41082D1018C918A3309F0CC
:1055F000BAC0C201B1010E943226F82EC657DD4F53
:105600008881CA58D240F81619F100D00F9282E072
:105610009FE0EDB7FEB781839283638274820E941C
:1056200031580F920F92EDB7FEB7319687ED9EE09D
:10563000ADB7BEB711968D939C931297C657DD4FA9
:105640008881CA58D24082831382F482158282C034
:10565000D20113962C911397222309F053C011966F
:10566000ED90FC9012975701AA0CAB2CAA1CBB081A
:10567000B194A016B106C1F0CD1491F01695102F7B
:105680000027179507950C0D111DA80160E070E02B
:10569000DC18C4012D2D8E010F5F1F4F0E94EB25DA
:1056A0006FE7D62EDE20CD2C4E2D4F774C1508F40B
:1056B000C42EF2015081252F30E0C357DD4FA88161
:1056C000B981CD58D240E42FF0E0359681E090E0EA
:1056D0008C0F9D1FE80FF91F2C5F3F4F240D351DC8
:1056E00002C08D918193A217B307D9F7852F90E05F
:1056F000840F911D2D2D30E0281739079CF5D42EED
:10570000D50E30C02130A9F4CD14B9F11695102F63
:105710000027179507950C0D111DA80160E070E09A
:10572000DC18C4012D2D8E010F5F1F4F0E94EB2549
:1057300024C000D000D0EDB7FEB7319687E99EE0D7
:10574000ADB7BEB711968D939C93129722831382A7
:10575000648275820E943158EDB7FEB73696EDBF70
:10576000FEBF0BC08501C10160E071E043EC57E270
:105770000E949D50892B09F02BCF83EC97E240E0EB
:1057800050E060E070E00E94863D182F882349F0C9
:105790008AE79EE00E94EF57812F90E00E9412243A
:1057A0002CC18DE69EE00E94EF57CC24CA94DC2CDD
:1057B00000E010E066247724CE018A579F4FC1573E
:1057C000DD4F88839983CF58D24046E8442E41E08C
:1057D000542E4C0E5D1ED2011496C557DD4FA88382
:1057E000B983CB58D240FFC00894611C711CC157CB
:1057F000DD4FE881F981CF58D24001900020E9F7D0
:10580000329780818A3009F41082CA57DF4F88812D
:10581000C658D0408A3309F0E6C0C201B1010E94E7
:105820003226F82EC657DD4F8881CA58D240F81666
:1058300019F100D00F928BE39EE0EDB7FEB78183A4
:105840009283638274820E9431580F920F92EDB757
:10585000FEB7319680E19EE0ADB7BEB711968D934D
:105860009C931297C657DD4F8881CA58D2408283D5
:105870001382F4821582AEC0D20113962C91139735
:10588000222309F065C01196ED90FC901297570104
:10589000AA0CAB2CAA1CBB08B194AC14BD0449F1F2
:1058A000011721F1A6015695542F44275795479586
:1058B000400F511D60E070E0101BC401212F8E01CC
:1058C0000F5F1F4F0E943225892B81F400D00F9269
:1058D00083EF9DE0EDB7FEB781839283C382D482CC
:1058E0000E9431580F900F900F900F901E2D1F7730
:1058F000012F4E2D4F77401708F4042FD2015C91F1
:10590000252F30E0C557DD4FA881B981CB58D24053
:10591000E42FF0E0359681E090E08C0F9D1FE80FBA
:10592000F91F2C5F3F4F240D351D02C08D918193CF
:10593000A217B307D9F7852F90E0840F911D212F6F
:1059400030E0281739070CF04DC0142F150F4AC04E
:10595000213079F5011741F1A6015695542F4427BE
:1059600057954795400F511D60E070E0101BC40132
:10597000212F8E010F5F1F4F0E943225892BA1F42A
:1059800000D00F9286ED9DE0ADB7BEB711968D9316
:105990009C9312971396CD92DC9214970E943158E3
:1059A0000F900F900F900F9084ED9DE00E94EF57A5
:1059B00024C000D000D0EDB7FEB7319684E99DE059
:1059C000ADB7BEB711968D939C9312972283138225
:1059D000648275820E943158EDB7FEB73696EDBFEE
:1059E000FEBF0BC06501C10160E071E043EC57E20E
:1059F0000E949D50892B09F0F7CE85E48983C4016C
:105A000060E7AE014F5F5F4F21E000E00E94103180
:105A1000D4011D968C911D978823D1F71E968C91E9
:105A20001E97813011F11E962C9100D00F92EDB788
:105A3000FEB7319689E79DE0ADB7BEB711968D935D
:105A40009C931297228313820AC000D00F928EE596
:105A50009DE0EDB7FEB781839283E382F4820E94DA
:105A600031580F900F900F900F90C057DD4FE2E12B
:105A70000C948959A1E0B0E0E0E4FDE20C947A597D
:105A800080E061E00E941D22E0E4F6E028E0F22ED2
:105A9000F18284E0828380E1818390E2918320E837
:105AA00021838583E0E6F6E08183918321838583EA
:105AB00080EB80938006E0E8F6E01482E0EEF6E00A
:105AC000918380E48183218396838583268380EF7D
:105AD00080930007E0E0F7E0848300E217E0809322
